{"contracts/SignalVerifier.sol":{"SignalVerifier":{"abi":[{"anonymous":false,"inputs":[{"indexed":true,"internalType":"uint256","name":"id","type":"uint256"},{"indexed":true,"internalType":"address","name":"trader","type":"address"},{"indexed":false,"internalType":"string","name":"token","type":"string"},{"indexed":false,"internalType":"string","name":"action","type":"string"},{"indexed":false,"internalType":"uint256","name":"confidence","type":"uint256"}],"name":"SignalRecorded","type":"event"},{"inputs":[],"name":"getSignalsCount","outputs":[{"internalType":"uint256","name":"","type":"uint256"}],"stateMutability":"view","type":"function"},{"inputs":[{"internalType":"string","name":"_token","type":"string"},{"internalType":"string","name":"_action","type":"string"},{"internalType":"uint256","name":"_confidence","type":"uint256"},{"internalType":"bytes32","name":"_txHash","type":"bytes32"}],"name":"recordSignal","outputs":[{"internalType":"uint256","name":"","type":"uint256"}],"stateMutability":"nonpayable","type":"function"},{"inputs":[{"internalType":"uint256","name":"","type":"uint256"}],"name":"signals","outputs":[{"internalType":"uint256","name":"id","type":"uint256"},{"internalType":"address","name":"trader","type":"address"},{"internalType":"string","name":"token","type":"string"},{"internalType":"string","name":"action","type":"string"},{"internalType":"uint256","name":"timestamp","type":"uint256"},{"internalType":"uint256","name":"confidence","type":"uint256"},{"internalType":"bytes32","name":"txHash","type":"bytes32"}],"stateMutability":"view","type":"function"}],"evm":{"bytecode":{"linkReferences":{},"object":"608060405234801561001057600080fd5b50610be5806100206000396000f3fe608060405234801561001057600080fd5b50600436106100415760003560e01c80633f0d0c041461004657806347c740cd14610076578063985738b6146100ac575b600080fd5b610060600480360381019061005b91906105de565b6100ca565b60405161006d919061068c565b60405180910390f35b610090600480360381019061008b91906106a7565b61028a565b6040516100a397969594939291906107a3565b60405180910390f35b6100b461040c565b6040516100c1919061068c565b60405180910390f35b6000612710831115610111576040517f08c379a00000000000000000000000000000000000000000000000000000000081526004016101089061086c565b60405180910390fd5b60008080549050905060006040518060e001604052808381526020013373ffffffffffffffffffffffffffffffffffffffff1681526020018881526020018781526020014281526020018681526020018581525090806001815401808255809150506001900390600052602060002090600702016000909190919091506000820151816000015560208201518160010160006101000a81548173ffffffffffffffffffffffffffffffffffffffff021916908373ffffffffffffffffffffffffffffffffffffffff16021790555060408201518160020190816101f49190610a98565b50606082015181600301908161020a9190610a98565b506080820151816004015560a0820151816005015560c0820151816006015550503373ffffffffffffffffffffffffffffffffffffffff16817f63d44bba0705331609cfbab2b5ea8669c843843f3324eec8626e10ca24887e2788888860405161027693929190610b6a565b60405180910390a380915050949350505050565b6000818154811061029a57600080fd5b90600052602060002090600702016000915090508060000154908060010160009054906101000a900473ffffffffffffffffffffffffffffffffffffffff16908060020180546102e9906108bb565b80601f0160208091040260200160405190810160405280929190818152602001828054610315906108bb565b80156103625780601f1061033757610100808354040283529160200191610362565b820191906000526020600020905b81548152906001019060200180831161034557829003601f168201915b505050505090806003018054610377906108bb565b80601f01602080910402602001604051908101604052809291908181526020018280546103a3906108bb565b80156103f05780601f106103c5576101008083540402835291602001916103f0565b820191906000526020600020905b8154815290600101906020018083116103d357829003601f168201915b5050505050908060040154908060050154908060060154905087565b60008080549050905090565b6000604051905090565b600080fd5b600080fd5b600080fd5b600080fd5b6000601f19601f8301169050919050565b7f4e487b7100000000000000000000000000000000000000000000000000000000600052604160045260246000fd5b61047f82610436565b810181811067ffffffffffffffff8211171561049e5761049d610447565b5b80604052505050565b60006104b1610418565b90506104bd8282610476565b919050565b600067ffffffffffffffff8211156104dd576104dc610447565b5b6104e682610436565b9050602081019050919050565b82818337600083830152505050565b6000610515610510846104c2565b6104a7565b90508281526020810184848401111561053157610530610431565b5b61053c8482856104f3565b509392505050565b600082601f8301126105595761055861042c565b5b8135610569848260208601610502565b91505092915050565b6000819050919050565b61058581610572565b811461059057600080fd5b50565b6000813590506105a28161057c565b92915050565b6000819050919050565b6105bb816105a8565b81146105c657600080fd5b50565b6000813590506105d8816105b2565b92915050565b600080600080608085870312156105f8576105f7610422565b5b600085013567ffffffffffffffff81111561061657610615610427565b5b61062287828801610544565b945050602085013567ffffffffffffffff81111561064357610642610427565b5b61064f87828801610544565b935050604061066087828801610593565b9250506060610671878288016105c9565b91505092959194509250565b61068681610572565b82525050565b60006020820190506106a1600083018461067d565b92915050565b6000602082840312156106bd576106bc610422565b5b60006106cb84828501610593565b91505092915050565b600073ffffffffffffffffffffffffffffffffffffffff82169050919050565b60006106ff826106d4565b9050919050565b61070f816106f4565b82525050565b600081519050919050565b600082825260208201905092915050565b60005b8381101561074f578082015181840152602081019050610734565b60008484015250505050565b600061076682610715565b6107708185610720565b9350610780818560208601610731565b61078981610436565b840191505092915050565b61079d816105a8565b82525050565b600060e0820190506107b8600083018a61067d565b6107c56020830189610706565b81810360408301526107d7818861075b565b905081810360608301526107eb818761075b565b90506107fa608083018661067d565b61080760a083018561067d565b61081460c0830184610794565b98975050505050505050565b7f4d61782031303025000000000000000000000000000000000000000000000000600082015250565b6000610856600883610720565b915061086182610820565b602082019050919050565b6000602082019050818103600083015261088581610849565b9050919050565b7f4e487b7100000000000000000000000000000000000000000000000000000000600052602260045260246000fd5b600060028204905060018216806108d357607f821691505b6020821081036108e6576108e561088c565b5b50919050565b60008190508160005260206000209050919050565b60006020601f8301049050919050565b600082821b905092915050565b60006008830261094e7fffffffffffffffffffffffffffffffffffffffffffffffffffffffffffffffff82610911565b6109588683610911565b95508019841693508086168417925050509392505050565b6000819050919050565b600061099561099061098b84610572565b610970565b610572565b9050919050565b6000819050919050565b6109af8361097a565b6109c36109bb8261099c565b84845461091e565b825550505050565b600090565b6109d86109cb565b6109e38184846109a6565b505050565b5b81811015610a07576109fc6000826109d0565b6001810190506109e9565b5050565b601f821115610a4c57610a1d816108ec565b610a2684610901565b81016020851015610a35578190505b610a49610a4185610901565b8301826109e8565b50505b505050565b600082821c905092915050565b6000610a6f60001984600802610a51565b1980831691505092915050565b6000610a888383610a5e565b9150826002028217905092915050565b610aa182610715565b67ffffffffffffffff811115610aba57610ab9610447565b5b610ac482546108bb565b610acf828285610a0b565b600060209050601f831160018114610b025760008415610af0578287015190505b610afa8582610a7c565b865550610b62565b601f198416610b10866108ec565b60005b82811015610b3857848901518255600182019150602085019450602081019050610b13565b86831015610b555784890151610b51601f891682610a5e565b8355505b6001600288020188555050505b505050505050565b60006060820190508181036000830152610b84818661075b565b90508181036020830152610b98818561075b565b9050610ba7604083018461067d565b94935050505056fea26469706673582212200c0b7f0b7a935b4e762d3ba09e4483d487db5690f5d8011d6cf1c6f529bd074164736f6c63430008140033","opcodes":"PUSH1 0x80 PUSH1 0x40 MSTORE CALLVALUE DUP1 ISZERO PUSH2 0x10 JUMPI PUSH1 0x0 DUP1 REVERT JUMPDEST POP PUSH2 0xBE5 DUP1 PUSH2 0x20 PUSH1 0x0 CODECOPY PUSH1 0x0 RETURN INVALID PUSH1 0x80 PUSH1 0x40 MSTORE CALLVALUE DUP1 ISZERO PUSH2 0x10 JUMPI PUSH1 0x0 DUP1 REVERT JUMPDEST POP PUSH1 0x4 CALLDATASIZE LT PUSH2 0x41 JUMPI PUSH1 0x0 CALLDATALOAD PUSH1 0xE0 SHR DUP1 PUSH4 0x3F0D0C04 EQ PUSH2 0x46 JUMPI DUP1 PUSH4 0x47C740CD EQ PUSH2 0x76 JUMPI DUP1 PUSH4 0x985738B6 EQ PUSH2 0xAC JUMPI JUMPDEST PUSH1 0x0 DUP1 REVERT JUMPDEST PUSH2 0x60 PUSH1 0x4 DUP1 CALLDATASIZE SUB DUP2 ADD SWAP1 PUSH2 0x5B SWAP2 SWAP1 PUSH2 0x5DE JUMP JUMPDEST PUSH2 0xCA JUMP JUMPDEST PUSH1 0x40 MLOAD PUSH2 0x6D SWAP2 SWAP1 PUSH2 0x68C JUMP JUMPDEST PUSH1 0x40 MLOAD DUP1 SWAP2 SUB SWAP1 RETURN JUMPDEST PUSH2 0x90 PUSH1 0x4 DUP1 CALLDATASIZE SUB DUP2 ADD SWAP1 PUSH2 0x8B SWAP2 SWAP1 PUSH2 0x6A7 JUMP JUMPDEST PUSH2 0x28A JUMP JUMPDEST PUSH1 0x40 MLOAD PUSH2 0xA3 SWAP8 SWAP7 SWAP6 SWAP5 SWAP4 SWAP3 SWAP2 SWAP1 PUSH2 0x7A3 JUMP JUMPDEST PUSH1 0x40 MLOAD DUP1 SWAP2 SUB SWAP1 RETURN JUMPDEST PUSH2 0xB4 PUSH2 0x40C JUMP JUMPDEST PUSH1 0x40 MLOAD PUSH2 0xC1 SWAP2 SWAP1 PUSH2 0x68C JUMP JUMPDEST PUSH1 0x40 MLOAD DUP1 SWAP2 SUB SWAP1 RETURN JUMPDEST PUSH1 0x0 PUSH2 0x2710 DUP4 GT ISZERO PUSH2 0x111 JUMPI PUSH1 0x40 MLOAD PUSH32 0x8C379A000000000000000000000000000000000000000000000000000000000 DUP2 MSTORE PUSH1 0x4 ADD PUSH2 0x108 SWAP1 PUSH2 0x86C JUMP JUMPDEST PUSH1 0x40 MLOAD DUP1 SWAP2 SUB SWAP1 REVERT JUMPDEST PUSH1 0x0 DUP1 DUP1 SLOAD SWAP1 POP SWAP1 POP PUSH1 0x0 PUSH1 0x40 MLOAD DUP1 PUSH1 0xE0 ADD PUSH1 0x40 MSTORE DUP1 DUP4 DUP2 MSTORE PUSH1 0x20 ADD CALLER PUSH20 0xFFFFFFFFFFFFFFFFFFFFFFFFFFFFFFFFFFFFFFFF AND DUP2 MSTORE PUSH1 0x20 ADD DUP9 DUP2 MSTORE PUSH1 0x20 ADD DUP8 DUP2 MSTORE PUSH1 0x20 ADD TIMESTAMP DUP2 MSTORE PUSH1 0x20 ADD DUP7 DUP2 MSTORE PUSH1 0x20 ADD DUP6 DUP2 MSTORE POP SWAP1 DUP1 PUSH1 0x1 DUP2 SLOAD ADD DUP1 DUP3 SSTORE DUP1 SWAP2 POP POP PUSH1 0x1 SWAP1 SUB SWAP1 PUSH1 0x0 MSTORE PUSH1 0x20 PUSH1 0x0 KECCAK256 SWAP1 PUSH1 0x7 MUL ADD PUSH1 0x0 SWAP1 SWAP2 SWAP1 SWAP2 SWAP1 SWAP2 POP PUSH1 0x0 DUP3 ADD MLOAD DUP2 PUSH1 0x0 ADD SSTORE PUSH1 0x20 DUP3 ADD MLOAD DUP2 PUSH1 0x1 ADD PUSH1 0x0 PUSH2 0x100 EXP DUP2 SLOAD DUP2 PUSH20 0xFFFFFFFFFFFFFFFFFFFFFFFFFFFFFFFFFFFFFFFF MUL NOT AND SWAP1 DUP4 PUSH20 0xFFFFFFFFFFFFFFFFFFFFFFFFFFFFFFFFFFFFFFFF AND MUL OR SWAP1 SSTORE POP PUSH1 0x40 DUP3 ADD MLOAD DUP2 PUSH1 0x2 ADD SWAP1 DUP2 PUSH2 0x1F4 SWAP2 SWAP1 PUSH2 0xA98 JUMP JUMPDEST POP PUSH1 0x60 DUP3 ADD MLOAD DUP2 PUSH1 0x3 ADD SWAP1 DUP2 PUSH2 0x20A SWAP2 SWAP1 PUSH2 0xA98 JUMP JUMPDEST POP PUSH1 0x80 DUP3 ADD MLOAD DUP2 PUSH1 0x4 ADD SSTORE PUSH1 0xA0 DUP3 ADD MLOAD DUP2 PUSH1 0x5 ADD SSTORE PUSH1 0xC0 DUP3 ADD MLOAD DUP2 PUSH1 0x6 ADD SSTORE POP POP CALLER PUSH20 0xFFFFFFFFFFFFFFFFFFFFFFFFFFFFFFFFFFFFFFFF AND DUP2 PUSH32 0x63D44BBA0705331609CFBAB2B5EA8669C843843F3324EEC8626E10CA24887E27 DUP9 DUP9 DUP9 PUSH1 0x40 MLOAD PUSH2 0x276 SWAP4 SWAP3 SWAP2 SWAP1 PUSH2 0xB6A JUMP JUMPDEST PUSH1 0x40 MLOAD DUP1 SWAP2 SUB SWAP1 LOG3 DUP1 SWAP2 POP POP SWAP5 SWAP4 POP POP POP POP JUMP JUMPDEST PUSH1 0x0 DUP2 DUP2 SLOAD DUP2 LT PUSH2 0x29A JUMPI PUSH1 0x0 DUP1 REVERT JUMPDEST SWAP1 PUSH1 0x0 MSTORE PUSH1 0x20 PUSH1 0x0 KECCAK256 SWAP1 PUSH1 0x7 MUL ADD PUSH1 0x0 SWAP2 POP SWAP1 POP DUP1 PUSH1 0x0 ADD SLOAD SWAP1 DUP1 PUSH1 0x1 ADD PUSH1 0x0 SWAP1 SLOAD SWAP1 PUSH2 0x100 EXP SWAP1 DIV PUSH20 0xFFFFFFFFFFFFFFFFFFFFFFFFFFFFFFFFFFFFFFFF AND SWAP1 DUP1 PUSH1 0x2 ADD DUP1 SLOAD PUSH2 0x2E9 SWAP1 PUSH2 0x8BB JUMP JUMPDEST DUP1 PUSH1 0x1F ADD PUSH1 0x20 DUP1 SWAP2 DIV MUL PUSH1 0x20 ADD PUSH1 0x40 MLOAD SWAP1 DUP2 ADD PUSH1 0x40 MSTORE DUP1 SWAP3 SWAP2 SWAP1 DUP2 DUP2 MSTORE PUSH1 0x20 ADD DUP3 DUP1 SLOAD PUSH2 0x315 SWAP1 PUSH2 0x8BB JUMP JUMPDEST DUP1 ISZERO PUSH2 0x362 JUMPI DUP1 PUSH1 0x1F LT PUSH2 0x337 JUMPI PUSH2 0x100 DUP1 DUP4 SLOAD DIV MUL DUP4 MSTORE SWAP2 PUSH1 0x20 ADD SWAP2 PUSH2 0x362 JUMP JUMPDEST DUP3 ADD SWAP2 SWAP1 PUSH1 0x0 MSTORE PUSH1 0x20 PUSH1 0x0 KECCAK256 SWAP1 JUMPDEST DUP2 SLOAD DUP2 MSTORE SWAP1 PUSH1 0x1 ADD SWAP1 PUSH1 0x20 ADD DUP1 DUP4 GT PUSH2 0x345 JUMPI DUP3 SWAP1 SUB PUSH1 0x1F AND DUP3 ADD SWAP2 JUMPDEST POP POP POP POP POP SWAP1 DUP1 PUSH1 0x3 ADD DUP1 SLOAD PUSH2 0x377 SWAP1 PUSH2 0x8BB JUMP JUMPDEST DUP1 PUSH1 0x1F ADD PUSH1 0x20 DUP1 SWAP2 DIV MUL PUSH1 0x20 ADD PUSH1 0x40 MLOAD SWAP1 DUP2 ADD PUSH1 0x40 MSTORE DUP1 SWAP3 SWAP2 SWAP1 DUP2 DUP2 MSTORE PUSH1 0x20 ADD DUP3 DUP1 SLOAD PUSH2 0x3A3 SWAP1 PUSH2 0x8BB JUMP JUMPDEST DUP1 ISZERO PUSH2 0x3F0 JUMPI DUP1 PUSH1 0x1F LT PUSH2 0x3C5 JUMPI PUSH2 0x100 DUP1 DUP4 SLOAD DIV MUL DUP4 MSTORE SWAP2 PUSH1 0x20 ADD SWAP2 PUSH2 0x3F0 JUMP JUMPDEST DUP3 ADD SWAP2 SWAP1 PUSH1 0x0 MSTORE PUSH1 0x20 PUSH1 0x0 KECCAK256 SWAP1 JUMPDEST DUP2 SLOAD DUP2 MSTORE SWAP1 PUSH1 0x1 ADD SWAP1 PUSH1 0x20 ADD DUP1 DUP4 GT PUSH2 0x3D3 JUMPI DUP3 SWAP1 SUB PUSH1 0x1F AND DUP3 ADD SWAP2 JUMPDEST POP POP POP POP POP SWAP1 DUP1 PUSH1 0x4 ADD SLOAD SWAP1 DUP1 PUSH1 0x5 ADD SLOAD SWAP1 DUP1 PUSH1 0x6 ADD SLOAD SWAP1 POP DUP8 JUMP JUMPDEST PUSH1 0x0 DUP1 DUP1 SLOAD SWAP1 POP SWAP1 POP SWAP1 JUMP JUMPDEST PUSH1 0x0 PUSH1 0x40 MLOAD SWAP1 POP SWAP1 JUMP JUMPDEST PUSH1 0x0 DUP1 REVERT JUMPDEST PUSH1 0x0 DUP1 REVERT JUMPDEST PUSH1 0x0 DUP1 REVERT JUMPDEST PUSH1 0x0 DUP1 REVERT JUMPDEST PUSH1 0x0 PUSH1 0x1F NOT PUSH1 0x1F DUP4 ADD AND SWAP1 POP SWAP2 SWAP1 POP JUMP JUMPDEST PUSH32 0x4E487B7100000000000000000000000000000000000000000000000000000000 PUSH1 0x0 MSTORE PUSH1 0x41 PUSH1 0x4 MSTORE PUSH1 0x24 PUSH1 0x0 REVERT JUMPDEST PUSH2 0x47F DUP3 PUSH2 0x436 JUMP JUMPDEST DUP2 ADD DUP2 DUP2 LT PUSH8 0xFFFFFFFFFFFFFFFF DUP3 GT OR ISZERO PUSH2 0x49E JUMPI PUSH2 0x49D PUSH2 0x447 JUMP JUMPDEST JUMPDEST DUP1 PUSH1 0x40 MSTORE POP POP POP JUMP JUMPDEST PUSH1 0x0 PUSH2 0x4B1 PUSH2 0x418 JUMP JUMPDEST SWAP1 POP PUSH2 0x4BD DUP3 DUP3 PUSH2 0x476 JUMP JUMPDEST SWAP2 SWAP1 POP JUMP JUMPDEST PUSH1 0x0 PUSH8 0xFFFFFFFFFFFFFFFF DUP3 GT ISZERO PUSH2 0x4DD JUMPI PUSH2 0x4DC PUSH2 0x447 JUMP JUMPDEST JUMPDEST PUSH2 0x4E6 DUP3 PUSH2 0x436 JUMP JUMPDEST SWAP1 POP PUSH1 0x20 DUP2 ADD SWAP1 POP SWAP2 SWAP1 POP JUMP JUMPDEST DUP3 DUP2 DUP4 CALLDATACOPY PUSH1 0x0 DUP4 DUP4 ADD MSTORE POP POP POP JUMP JUMPDEST PUSH1 0x0 PUSH2 0x515 PUSH2 0x510 DUP5 PUSH2 0x4C2 JUMP JUMPDEST PUSH2 0x4A7 JUMP JUMPDEST SWAP1 POP DUP3 DUP2 MSTORE PUSH1 0x20 DUP2 ADD DUP5 DUP5 DUP5 ADD GT ISZERO PUSH2 0x531 JUMPI PUSH2 0x530 PUSH2 0x431 JUMP JUMPDEST JUMPDEST PUSH2 0x53C DUP5 DUP3 DUP6 PUSH2 0x4F3 JUMP JUMPDEST POP SWAP4 SWAP3 POP POP POP JUMP JUMPDEST PUSH1 0x0 DUP3 PUSH1 0x1F DUP4 ADD SLT PUSH2 0x559 JUMPI PUSH2 0x558 PUSH2 0x42C JUMP JUMPDEST JUMPDEST DUP2 CALLDATALOAD PUSH2 0x569 DUP5 DUP3 PUSH1 0x20 DUP7 ADD PUSH2 0x502 JUMP JUMPDEST SWAP2 POP POP SWAP3 SWAP2 POP POP JUMP JUMPDEST PUSH1 0x0 DUP2 SWAP1 POP SWAP2 SWAP1 POP JUMP JUMPDEST PUSH2 0x585 DUP2 PUSH2 0x572 JUMP JUMPDEST DUP2 EQ PUSH2 0x590 JUMPI PUSH1 0x0 DUP1 REVERT JUMPDEST POP JUMP JUMPDEST PUSH1 0x0 DUP2 CALLDATALOAD SWAP1 POP PUSH2 0x5A2 DUP2 PUSH2 0x57C JUMP JUMPDEST SWAP3 SWAP2 POP POP JUMP JUMPDEST PUSH1 0x0 DUP2 SWAP1 POP SWAP2 SWAP1 POP JUMP JUMPDEST PUSH2 0x5BB DUP2 PUSH2 0x5A8 JUMP JUMPDEST DUP2 EQ PUSH2 0x5C6 JUMPI PUSH1 0x0 DUP1 REVERT JUMPDEST POP JUMP JUMPDEST PUSH1 0x0 DUP2 CALLDATALOAD SWAP1 POP PUSH2 0x5D8 DUP2 PUSH2 0x5B2 JUMP JUMPDEST SWAP3 SWAP2 POP POP JUMP JUMPDEST PUSH1 0x0 DUP1 PUSH1 0x0 DUP1 PUSH1 0x80 DUP6 DUP8 SUB SLT ISZERO PUSH2 0x5F8 JUMPI PUSH2 0x5F7 PUSH2 0x422 JUMP JUMPDEST JUMPDEST PUSH1 0x0 DUP6 ADD CALLDATALOAD PUSH8 0xFFFFFFFFFFFFFFFF DUP2 GT ISZERO PUSH2 0x616 JUMPI PUSH2 0x615 PUSH2 0x427 JUMP JUMPDEST JUMPDEST PUSH2 0x622 DUP8 DUP3 DUP9 ADD PUSH2 0x544 JUMP JUMPDEST SWAP5 POP POP PUSH1 0x20 DUP6 ADD CALLDATALOAD PUSH8 0xFFFFFFFFFFFFFFFF DUP2 GT ISZERO PUSH2 0x643 JUMPI PUSH2 0x642 PUSH2 0x427 JUMP JUMPDEST JUMPDEST PUSH2 0x64F DUP8 DUP3 DUP9 ADD PUSH2 0x544 JUMP JUMPDEST SWAP4 POP POP PUSH1 0x40 PUSH2 0x660 DUP8 DUP3 DUP9 ADD PUSH2 0x593 JUMP JUMPDEST SWAP3 POP POP PUSH1 0x60 PUSH2 0x671 DUP8 DUP3 DUP9 ADD PUSH2 0x5C9 JUMP JUMPDEST SWAP2 POP POP SWAP3 SWAP6 SWAP2 SWAP5 POP SWAP3 POP JUMP JUMPDEST PUSH2 0x686 DUP2 PUSH2 0x572 JUMP JUMPDEST DUP3 MSTORE POP POP JUMP JUMPDEST PUSH1 0x0 PUSH1 0x20 DUP3 ADD SWAP1 POP PUSH2 0x6A1 PUSH1 0x0 DUP4 ADD DUP5 PUSH2 0x67D JUMP JUMPDEST SWAP3 SWAP2 POP POP JUMP JUMPDEST PUSH1 0x0 PUSH1 0x20 DUP3 DUP5 SUB SLT ISZERO PUSH2 0x6BD JUMPI PUSH2 0x6BC PUSH2 0x422 JUMP JUMPDEST JUMPDEST PUSH1 0x0 PUSH2 0x6CB DUP5 DUP3 DUP6 ADD PUSH2 0x593 JUMP JUMPDEST SWAP2 POP POP SWAP3 SWAP2 POP POP JUMP JUMPDEST PUSH1 0x0 PUSH20 0xFFFFFFFFFFFFFFFFFFFFFFFFFFFFFFFFFFFFFFFF DUP3 AND SWAP1 POP SWAP2 SWAP1 POP JUMP JUMPDEST PUSH1 0x0 PUSH2 0x6FF DUP3 PUSH2 0x6D4 JUMP JUMPDEST SWAP1 POP SWAP2 SWAP1 POP JUMP JUMPDEST PUSH2 0x70F DUP2 PUSH2 0x6F4 JUMP JUMPDEST DUP3 MSTORE POP POP JUMP JUMPDEST PUSH1 0x0 DUP2 MLOAD SWAP1 POP SWAP2 SWAP1 POP JUMP JUMPDEST PUSH1 0x0 DUP3 DUP3 MSTORE PUSH1 0x20 DUP3 ADD SWAP1 POP SWAP3 SWAP2 POP POP JUMP JUMPDEST PUSH1 0x0 JUMPDEST DUP4 DUP2 LT ISZERO PUSH2 0x74F JUMPI DUP1 DUP3 ADD MLOAD DUP2 DUP5 ADD MSTORE PUSH1 0x20 DUP2 ADD SWAP1 POP PUSH2 0x734 JUMP JUMPDEST PUSH1 0x0 DUP5 DUP5 ADD MSTORE POP POP POP POP JUMP JUMPDEST PUSH1 0x0 PUSH2 0x766 DUP3 PUSH2 0x715 JUMP JUMPDEST PUSH2 0x770 DUP2 DUP6 PUSH2 0x720 JUMP JUMPDEST SWAP4 POP PUSH2 0x780 DUP2 DUP6 PUSH1 0x20 DUP7 ADD PUSH2 0x731 JUMP JUMPDEST PUSH2 0x789 DUP2 PUSH2 0x436 JUMP JUMPDEST DUP5 ADD SWAP2 POP POP SWAP3 SWAP2 POP POP JUMP JUMPDEST PUSH2 0x79D DUP2 PUSH2 0x5A8 JUMP JUMPDEST DUP3 MSTORE POP POP JUMP JUMPDEST PUSH1 0x0 PUSH1 0xE0 DUP3 ADD SWAP1 POP PUSH2 0x7B8 PUSH1 0x0 DUP4 ADD DUP11 PUSH2 0x67D JUMP JUMPDEST PUSH2 0x7C5 PUSH1 0x20 DUP4 ADD DUP10 PUSH2 0x706 JUMP JUMPDEST DUP2 DUP2 SUB PUSH1 0x40 DUP4 ADD MSTORE PUSH2 0x7D7 DUP2 DUP9 PUSH2 0x75B JUMP JUMPDEST SWAP1 POP DUP2 DUP2 SUB PUSH1 0x60 DUP4 ADD MSTORE PUSH2 0x7EB DUP2 DUP8 PUSH2 0x75B JUMP JUMPDEST SWAP1 POP PUSH2 0x7FA PUSH1 0x80 DUP4 ADD DUP7 PUSH2 0x67D JUMP JUMPDEST PUSH2 0x807 PUSH1 0xA0 DUP4 ADD DUP6 PUSH2 0x67D JUMP JUMPDEST PUSH2 0x814 PUSH1 0xC0 DUP4 ADD DUP5 PUSH2 0x794 JUMP JUMPDEST SWAP9 SWAP8 POP POP POP POP POP POP POP POP JUMP JUMPDEST PUSH32 0x4D61782031303025000000000000000000000000000000000000000000000000 PUSH1 0x0 DUP3 ADD MSTORE POP JUMP JUMPDEST PUSH1 0x0 PUSH2 0x856 PUSH1 0x8 DUP4 PUSH2 0x720 JUMP JUMPDEST SWAP2 POP PUSH2 0x861 DUP3 PUSH2 0x820 JUMP JUMPDEST PUSH1 0x20 DUP3 ADD SWAP1 POP SWAP2 SWAP1 POP JUMP JUMPDEST PUSH1 0x0 PUSH1 0x20 DUP3 ADD SWAP1 POP DUP2 DUP2 SUB PUSH1 0x0 DUP4 ADD MSTORE PUSH2 0x885 DUP2 PUSH2 0x849 JUMP JUMPDEST SWAP1 POP SWAP2 SWAP1 POP JUMP JUMPDEST PUSH32 0x4E487B7100000000000000000000000000000000000000000000000000000000 PUSH1 0x0 MSTORE PUSH1 0x22 PUSH1 0x4 MSTORE PUSH1 0x24 PUSH1 0x0 REVERT JUMPDEST PUSH1 0x0 PUSH1 0x2 DUP3 DIV SWAP1 POP PUSH1 0x1 DUP3 AND DUP1 PUSH2 0x8D3 JUMPI PUSH1 0x7F DUP3 AND SWAP2 POP JUMPDEST PUSH1 0x20 DUP3 LT DUP2 SUB PUSH2 0x8E6 JUMPI PUSH2 0x8E5 PUSH2 0x88C JUMP JUMPDEST JUMPDEST POP SWAP2 SWAP1 POP JUMP JUMPDEST PUSH1 0x0 DUP2 SWAP1 POP DUP2 PUSH1 0x0 MSTORE PUSH1 0x20 PUSH1 0x0 KECCAK256 SWAP1 POP SWAP2 SWAP1 POP JUMP JUMPDEST PUSH1 0x0 PUSH1 0x20 PUSH1 0x1F DUP4 ADD DIV SWAP1 POP SWAP2 SWAP1 POP JUMP JUMPDEST PUSH1 0x0 DUP3 DUP3 SHL SWAP1 POP SWAP3 SWAP2 POP POP JUMP JUMPDEST PUSH1 0x0 PUSH1 0x8 DUP4 MUL PUSH2 0x94E PUSH32 0xFFFFFFFFFFFFFFFFFFFFFFFFFFFFFFFFFFFFFFFFFFFFFFFFFFFFFFFFFFFFFFFF DUP3 PUSH2 0x911 JUMP JUMPDEST PUSH2 0x958 DUP7 DUP4 PUSH2 0x911 JUMP JUMPDEST SWAP6 POP DUP1 NOT DUP5 AND SWAP4 POP DUP1 DUP7 AND DUP5 OR SWAP3 POP POP POP SWAP4 SWAP3 POP POP POP JUMP JUMPDEST PUSH1 0x0 DUP2 SWAP1 POP SWAP2 SWAP1 POP JUMP JUMPDEST PUSH1 0x0 PUSH2 0x995 PUSH2 0x990 PUSH2 0x98B DUP5 PUSH2 0x572 JUMP JUMPDEST PUSH2 0x970 JUMP JUMPDEST PUSH2 0x572 JUMP JUMPDEST SWAP1 POP SWAP2 SWAP1 POP JUMP JUMPDEST PUSH1 0x0 DUP2 SWAP1 POP SWAP2 SWAP1 POP JUMP JUMPDEST PUSH2 0x9AF DUP4 PUSH2 0x97A JUMP JUMPDEST PUSH2 0x9C3 PUSH2 0x9BB DUP3 PUSH2 0x99C JUMP JUMPDEST DUP5 DUP5 SLOAD PUSH2 0x91E JUMP JUMPDEST DUP3 SSTORE POP POP POP POP JUMP JUMPDEST PUSH1 0x0 SWAP1 JUMP JUMPDEST PUSH2 0x9D8 PUSH2 0x9CB JUMP JUMPDEST PUSH2 0x9E3 DUP2 DUP5 DUP5 PUSH2 0x9A6 JUMP JUMPDEST POP POP POP JUMP JUMPDEST JUMPDEST DUP2 DUP2 LT ISZERO PUSH2 0xA07 JUMPI PUSH2 0x9FC PUSH1 0x0 DUP3 PUSH2 0x9D0 JUMP JUMPDEST PUSH1 0x1 DUP2 ADD SWAP1 POP PUSH2 0x9E9 JUMP JUMPDEST POP POP JUMP JUMPDEST PUSH1 0x1F DUP3 GT ISZERO PUSH2 0xA4C JUMPI PUSH2 0xA1D DUP2 PUSH2 0x8EC JUMP JUMPDEST PUSH2 0xA26 DUP5 PUSH2 0x901 JUMP JUMPDEST DUP2 ADD PUSH1 0x20 DUP6 LT ISZERO PUSH2 0xA35 JUMPI DUP2 SWAP1 POP JUMPDEST PUSH2 0xA49 PUSH2 0xA41 DUP6 PUSH2 0x901 JUMP JUMPDEST DUP4 ADD DUP3 PUSH2 0x9E8 JUMP JUMPDEST POP POP JUMPDEST POP POP POP JUMP JUMPDEST PUSH1 0x0 DUP3 DUP3 SHR SWAP1 POP SWAP3 SWAP2 POP POP JUMP JUMPDEST PUSH1 0x0 PUSH2 0xA6F PUSH1 0x0 NOT DUP5 PUSH1 0x8 MUL PUSH2 0xA51 JUMP JUMPDEST NOT DUP1 DUP4 AND SWAP2 POP POP SWAP3 SWAP2 POP POP JUMP JUMPDEST PUSH1 0x0 PUSH2 0xA88 DUP4 DUP4 PUSH2 0xA5E JUMP JUMPDEST SWAP2 POP DUP3 PUSH1 0x2 MUL DUP3 OR SWAP1 POP SWAP3 SWAP2 POP POP JUMP JUMPDEST PUSH2 0xAA1 DUP3 PUSH2 0x715 JUMP JUMPDEST PUSH8 0xFFFFFFFFFFFFFFFF DUP2 GT ISZERO PUSH2 0xABA JUMPI PUSH2 0xAB9 PUSH2 0x447 JUMP JUMPDEST JUMPDEST PUSH2 0xAC4 DUP3 SLOAD PUSH2 0x8BB JUMP JUMPDEST PUSH2 0xACF DUP3 DUP3 DUP6 PUSH2 0xA0B JUMP JUMPDEST PUSH1 0x0 PUSH1 0x20 SWAP1 POP PUSH1 0x1F DUP4 GT PUSH1 0x1 DUP2 EQ PUSH2 0xB02 JUMPI PUSH1 0x0 DUP5 ISZERO PUSH2 0xAF0 JUMPI DUP3 DUP8 ADD MLOAD SWAP1 POP JUMPDEST PUSH2 0xAFA DUP6 DUP3 PUSH2 0xA7C JUMP JUMPDEST DUP7 SSTORE POP PUSH2 0xB62 JUMP JUMPDEST PUSH1 0x1F NOT DUP5 AND PUSH2 0xB10 DUP7 PUSH2 0x8EC JUMP JUMPDEST PUSH1 0x0 JUMPDEST DUP3 DUP2 LT ISZERO PUSH2 0xB38 JUMPI DUP5 DUP10 ADD MLOAD DUP3 SSTORE PUSH1 0x1 DUP3 ADD SWAP2 POP PUSH1 0x20 DUP6 ADD SWAP5 POP PUSH1 0x20 DUP2 ADD SWAP1 POP PUSH2 0xB13 JUMP JUMPDEST DUP7 DUP4 LT ISZERO PUSH2 0xB55 JUMPI DUP5 DUP10 ADD MLOAD PUSH2 0xB51 PUSH1 0x1F DUP10 AND DUP3 PUSH2 0xA5E JUMP JUMPDEST DUP4 SSTORE POP JUMPDEST PUSH1 0x1 PUSH1 0x2 DUP9 MUL ADD DUP9 SSTORE POP POP POP JUMPDEST POP POP POP POP POP POP JUMP JUMPDEST PUSH1 0x0 PUSH1 0x60 DUP3 ADD SWAP1 POP DUP2 DUP2 SUB PUSH1 0x0 DUP4 ADD MSTORE PUSH2 0xB84 DUP2 DUP7 PUSH2 0x75B JUMP JUMPDEST SWAP1 POP DUP2 DUP2 SUB PUSH1 0x20 DUP4 ADD MSTORE PUSH2 0xB98 DUP2 DUP6 PUSH2 0x75B JUMP JUMPDEST SWAP1 POP PUSH2 0xBA7 PUSH1 0x40 DUP4 ADD DUP5 PUSH2 0x67D JUMP JUMPDEST SWAP5 SWAP4 POP POP POP POP JUMP INVALID LOG2 PUSH5 0x6970667358 0x22 SLT KECCAK256 0xC SIGNEXTEND PUSH32 0xB7A935B4E762D3BA09E4483D487DB5690F5D8011D6CF1C6F529BD074164736F PUSH13 0x63430008140033000000000000 "},"methodIdentifiers":{"getSignalsCount()":"985738b6","recordSignal(string,string,uint256,bytes32)":"3f0d0c04","signals(uint256)":"47c740cd"}}}}}