{
  "_format": "hh-sol-artifact-1",
  "contractName": "InternalSystem",
  "sourceName": "contracts/InternalSystem/InternalSystem.sol",
  "abi": [
    {
      "inputs": [
        {
          "internalType": "address",
          "name": "paymentToken_",
          "type": "address"
        },
        {
          "internalType": "address",
          "name": "initialOwner",
          "type": "address"
        }
      ],
      "stateMutability": "nonpayable",
      "type": "constructor"
    },
    {
      "inputs": [],
      "name": "BadCalldata",
      "type": "error"
    },
    {
      "inputs": [
        {
          "internalType": "bytes",
          "name": "reason",
          "type": "bytes"
        }
      ],
      "name": "CallFailed",
      "type": "error"
    },
    {
      "inputs": [],
      "name": "InsufficientFree",
      "type": "error"
    },
    {
      "inputs": [],
      "name": "InsufficientPosition",
      "type": "error"
    },
    {
      "inputs": [],
      "name": "NotOwnerForGenericExecute",
      "type": "error"
    },
    {
      "inputs": [],
      "name": "OnlyZeroValue",
      "type": "error"
    },
    {
      "inputs": [
        {
          "internalType": "address",
          "name": "owner",
          "type": "address"
        }
      ],
      "name": "OwnableInvalidOwner",
      "type": "error"
    },
    {
      "inputs": [
        {
          "internalType": "address",
          "name": "account",
          "type": "address"
        }
      ],
      "name": "OwnableUnauthorizedAccount",
      "type": "error"
    },
    {
      "inputs": [
        {
          "internalType": "address",
          "name": "token",
          "type": "address"
        }
      ],
      "name": "SafeERC20FailedOperation",
      "type": "error"
    },
    {
      "inputs": [],
      "name": "TargetNotAllowed",
      "type": "error"
    },
    {
      "anonymous": false,
      "inputs": [
        {
          "indexed": true,
          "internalType": "address",
          "name": "user",
          "type": "address"
        },
        {
          "indexed": true,
          "internalType": "address",
          "name": "manager",
          "type": "address"
        },
        {
          "indexed": true,
          "internalType": "address",
          "name": "assetToken",
          "type": "address"
        },
        {
          "indexed": false,
          "internalType": "uint256",
          "name": "paymentIn",
          "type": "uint256"
        },
        {
          "indexed": false,
          "internalType": "uint256",
          "name": "assetOut",
          "type": "uint256"
        }
      ],
      "name": "Bought",
      "type": "event"
    },
    {
      "anonymous": false,
      "inputs": [
        {
          "indexed": true,
          "internalType": "address",
          "name": "user",
          "type": "address"
        },
        {
          "indexed": false,
          "internalType": "uint256",
          "name": "amount",
          "type": "uint256"
        }
      ],
      "name": "Deposited",
      "type": "event"
    },
    {
      "anonymous": false,
      "inputs": [
        {
          "indexed": true,
          "internalType": "address",
          "name": "user",
          "type": "address"
        },
        {
          "indexed": true,
          "internalType": "address",
          "name": "target",
          "type": "address"
        },
        {
          "indexed": true,
          "internalType": "bytes4",
          "name": "selector",
          "type": "bytes4"
        },
        {
          "indexed": false,
          "internalType": "uint256",
          "name": "value",
          "type": "uint256"
        }
      ],
      "name": "Execute",
      "type": "event"
    },
    {
      "anonymous": false,
      "inputs": [
        {
          "indexed": true,
          "internalType": "address",
          "name": "previousOwner",
          "type": "address"
        },
        {
          "indexed": true,
          "internalType": "address",
          "name": "newOwner",
          "type": "address"
        }
      ],
      "name": "OwnershipTransferred",
      "type": "event"
    },
    {
      "anonymous": false,
      "inputs": [
        {
          "indexed": true,
          "internalType": "address",
          "name": "user",
          "type": "address"
        },
        {
          "indexed": true,
          "internalType": "address",
          "name": "manager",
          "type": "address"
        },
        {
          "indexed": true,
          "internalType": "address",
          "name": "assetToken",
          "type": "address"
        },
        {
          "indexed": false,
          "internalType": "uint256",
          "name": "assetIn",
          "type": "uint256"
        },
        {
          "indexed": false,
          "internalType": "uint256",
          "name": "paymentOut",
          "type": "uint256"
        }
      ],
      "name": "Sold",
      "type": "event"
    },
    {
      "anonymous": false,
      "inputs": [
        {
          "indexed": true,
          "internalType": "address",
          "name": "user",
          "type": "address"
        },
        {
          "indexed": false,
          "internalType": "uint256",
          "name": "amount",
          "type": "uint256"
        }
      ],
      "name": "SoldToFree",
      "type": "event"
    },
    {
      "anonymous": false,
      "inputs": [
        {
          "indexed": true,
          "internalType": "address",
          "name": "target",
          "type": "address"
        },
        {
          "indexed": false,
          "internalType": "bool",
          "name": "allowed",
          "type": "bool"
        }
      ],
      "name": "TargetAllowed",
      "type": "event"
    },
    {
      "anonymous": false,
      "inputs": [
        {
          "indexed": true,
          "internalType": "address",
          "name": "user",
          "type": "address"
        },
        {
          "indexed": false,
          "internalType": "uint256",
          "name": "amount",
          "type": "uint256"
        }
      ],
      "name": "Withdrawn",
      "type": "event"
    },
    {
      "inputs": [
        {
          "internalType": "address",
          "name": "",
          "type": "address"
        }
      ],
      "name": "allowedTarget",
      "outputs": [
        {
          "internalType": "bool",
          "name": "",
          "type": "bool"
        }
      ],
      "stateMutability": "view",
      "type": "function"
    },
    {
      "inputs": [
        {
          "internalType": "address",
          "name": "user",
          "type": "address"
        }
      ],
      "name": "balancesOf",
      "outputs": [
        {
          "components": [
            {
              "internalType": "uint256",
              "name": "free",
              "type": "uint256"
            },
            {
              "internalType": "uint256",
              "name": "got",
              "type": "uint256"
            },
            {
              "internalType": "uint256",
              "name": "sold",
              "type": "uint256"
            },
            {
              "internalType": "uint256",
              "name": "out",
              "type": "uint256"
            }
          ],
          "internalType": "struct InternalSystem.Balances",
          "name": "",
          "type": "tuple"
        }
      ],
      "stateMutability": "view",
      "type": "function"
    },
    {
      "inputs": [
        {
          "internalType": "uint256",
          "name": "amount",
          "type": "uint256"
        }
      ],
      "name": "deposit",
      "outputs": [],
      "stateMutability": "nonpayable",
      "type": "function"
    },
    {
      "inputs": [
        {
          "internalType": "address",
          "name": "target",
          "type": "address"
        },
        {
          "internalType": "uint256",
          "name": "value",
          "type": "uint256"
        },
        {
          "internalType": "bytes",
          "name": "data",
          "type": "bytes"
        }
      ],
      "name": "execute",
      "outputs": [
        {
          "internalType": "bytes",
          "name": "result",
          "type": "bytes"
        }
      ],
      "stateMutability": "nonpayable",
      "type": "function"
    },
    {
      "inputs": [
        {
          "internalType": "uint256",
          "name": "amount",
          "type": "uint256"
        }
      ],
      "name": "moveSoldToFree",
      "outputs": [],
      "stateMutability": "nonpayable",
      "type": "function"
    },
    {
      "inputs": [],
      "name": "owner",
      "outputs": [
        {
          "internalType": "address",
          "name": "",
          "type": "address"
        }
      ],
      "stateMutability": "view",
      "type": "function"
    },
    {
      "inputs": [],
      "name": "paymentToken",
      "outputs": [
        {
          "internalType": "contract IERC20",
          "name": "",
          "type": "address"
        }
      ],
      "stateMutability": "view",
      "type": "function"
    },
    {
      "inputs": [
        {
          "internalType": "address",
          "name": "user",
          "type": "address"
        },
        {
          "internalType": "address",
          "name": "assetToken",
          "type": "address"
        }
      ],
      "name": "positionOf",
      "outputs": [
        {
          "internalType": "uint256",
          "name": "",
          "type": "uint256"
        }
      ],
      "stateMutability": "view",
      "type": "function"
    },
    {
      "inputs": [],
      "name": "renounceOwnership",
      "outputs": [],
      "stateMutability": "nonpayable",
      "type": "function"
    },
    {
      "inputs": [
        {
          "internalType": "address",
          "name": "target",
          "type": "address"
        },
        {
          "internalType": "bool",
          "name": "allowed",
          "type": "bool"
        }
      ],
      "name": "setAllowedTarget",
      "outputs": [],
      "stateMutability": "nonpayable",
      "type": "function"
    },
    {
      "inputs": [
        {
          "internalType": "address",
          "name": "newOwner",
          "type": "address"
        }
      ],
      "name": "transferOwnership",
      "outputs": [],
      "stateMutability": "nonpayable",
      "type": "function"
    },
    {
      "inputs": [
        {
          "internalType": "uint256",
          "name": "amount",
          "type": "uint256"
        }
      ],
      "name": "withdraw",
      "outputs": [],
      "stateMutability": "nonpayable",
      "type": "function"
    }
  ],
  "bytecode": "0x60a060405234801561001057600080fd5b506040516200134938038062001349833981016040819052610031916100e8565b806001600160a01b03811661006057604051631e4fbdf760e01b81526000600482015260240160405180910390fd5b6100698161007c565b50506001600160a01b031660805261011b565b600080546001600160a01b038381166001600160a01b0319831681178455604051919092169283917f8be0079c531659141344cd1fd0a4f28419497f9722a3daafe3b4186f6b6457e09190a35050565b80516001600160a01b03811681146100e357600080fd5b919050565b600080604083850312156100fb57600080fd5b610104836100cc565b9150610112602084016100cc565b90509250929050565b6080516111fe6200014b6000396000818160d601528181610260015281816106cc01526108f101526111fe6000f3fe608060405234801561001057600080fd5b50600436106100a45760003560e01c80632e1a7d4d146100a95780632fc8830f146100be5780633013ce29146100d15780635f39f8921461010e5780636392a51f14610141578063715018a614610187578063892f928e1461018f5780638da5cb5b146101b0578063b61d27f6146101b8578063b6b55f25146101d8578063ca1dd22e146101eb578063f2fde38b146101fe575b600080fd5b6100bc6100b7366004610f00565b610211565b005b6100bc6100cc366004610f00565b6102c1565b6100f87f000000000000000000000000000000000000000000000000000000000000000081565b6040516101059190610f19565b60405180910390f35b61013161011c366004610f42565b60036020526000908152604090205460ff1681565b6040519015158152602001610105565b61015461014f366004610f42565b610338565b60405161010591908151815260208083015190820152604080830151908201526060918201519181019190915260800190565b6100bc6103b0565b6101a261019d366004610f66565b6103c4565b604051908152602001610105565b6100f86103f1565b6101cb6101c6366004610f9f565b610400565b604051610105919061104c565b6100bc6101e6366004610f00565b6106bf565b6100bc6101f936600461107f565b610750565b6100bc61020c366004610f42565b6107b0565b33600090815260016020526040902080548211156102425760405163fa9ec97360e01b815260040160405180910390fd5b80548290038155600381018054830190556102876001600160a01b037f00000000000000000000000000000000000000000000000000000000000000001633846107ee565b60405182815233907f7084f5476618d8e60b11ef0d7d3f06914655adb8793e28ff7f018d4c76d505d5906020015b60405180910390a25050565b33600090815260016020526040902060028101548211156102f55760405163fa9ec97360e01b815260040160405180910390fd5b600281018054839003905580548201815560405182815233907f7a3ea96721ab769446edd792ffc4106550c7a983d80d1dcd2853747bfc09e8bd906020016102b5565b6103636040518060800160405280600081526020016000815260200160008152602001600081525090565b506001600160a01b03166000908152600160208181526040928390208351608081018552815481529281015491830191909152600281015492820192909252600390910154606082015290565b6103b861081f565b6103c26000610851565b565b6001600160a01b038083166000908152600260209081526040808320938516835292905220545b92915050565b6000546001600160a01b031690565b6001600160a01b03841660009081526003602052604090205460609060ff1661043c576040516348cbf26d60e01b815260040160405180910390fd5b831561045b57604051631eae938960e11b815260040160405180910390fd5b600482101561047d5760405163068b856560e21b815260040160405180910390fd5b600061048c60048285876110b2565b610495916110dc565b9050806001600160e01b031916866001600160a01b0316336001600160a01b03167f617529f582f57b4019d1afd3244f10b9f046a08d3892ec9891b5ea0a5f77aeff886040516104e791815260200190565b60405180910390a4635a65392360e01b6001600160e01b031982160161057f5760008080610518866004818a6110b2565b810190610525919061110c565b925092509250610538338a8585856108a1565b3360009081526002602090815260408083206001600160a01b038716845282529182902054825191820152015b6040516020818303038152906040529450505050506106b7565b634aec6dcf60e11b6001600160e01b03198216016105eb57600080806105a8866004818a6110b2565b8101906105b5919061110c565b9250925092506105c8338a858585610a8e565b336000908152600160209081526040918290206002015482519182015201610565565b6105f36103f1565b6001600160a01b0316336001600160a01b03161461062457604051631b1c465b60e31b815260040160405180910390fd5b600080876001600160a01b0316878787604051610642929190611141565b60006040518083038185875af1925050503d806000811461067f576040519150601f19603f3d011682016040523d82523d6000602084013e610684565b606091505b5091509150816106b2578060405163a5fa8d2b60e01b81526004016106a9919061104c565b60405180910390fd5b925050505b949350505050565b6106f46001600160a01b037f000000000000000000000000000000000000000000000000000000000000000016333084610cad565b3360009081526001602052604081208054839290610713908490611151565b909155505060405181815233907f2da466a7b24304f47e87fa2e1e5a81b9831ce54fec19055ce277ca2f39ba42c49060200160405180910390a250565b61075861081f565b6001600160a01b038216600081815260036020908152604091829020805460ff191685151590811790915591519182527fa15b89ddfd4f8f39b42c00d0e35440aa574da8d20d9e1d886e42edf16ce9ad4c91016102b5565b6107b861081f565b6001600160a01b0381166107e2576000604051631e4fbdf760e01b81526004016106a99190610f19565b6107eb81610851565b50565b6107fb8383836001610ce0565b61081a5782604051635274afe760e01b81526004016106a99190610f19565b505050565b336108286103f1565b6001600160a01b0316146103c2573360405163118cdaa760e01b81526004016106a99190610f19565b600080546001600160a01b038381166001600160a01b0319831681178455604051919092169283917f8be0079c531659141344cd1fd0a4f28419497f9722a3daafe3b4186f6b6457e09190a35050565b6001600160a01b038516600090815260016020526040902080548311156108db5760405163fa9ec97360e01b815260040160405180910390fd5b80548390038155600181018054840190556109177f00000000000000000000000000000000000000000000000000000000000000008685610d46565b600084848460405160240161092e93929190611172565b60408051601f198184030181529181526020820180516001600160e01b031663a59ac6dd60e01b1790525190915060009081906001600160a01b03891690610977908590611193565b6000604051808303816000865af19150503d80600081146109b4576040519150601f19603f3d011682016040523d82523d6000602084013e6109b9565b606091505b5091509150816109de578060405163a5fa8d2b60e01b81526004016106a9919061104c565b6000818060200190518101906109f491906111af565b6001600160a01b03808c166000908152600260209081526040808320938d16835292905290812080549293508392909190610a30908490611151565b909155505060408051888152602081018390526001600160a01b03808b16928c821692918e16917fe7804cc8b53dc839e6771b33c9cadfcc8e85986e3b8dd5058bf3753f92ea36f5910160405180910390a450505050505050505050565b6001600160a01b0380861660009081526002602090815260408083209387168352929052205482811015610ad557604051633289c42960e11b815260040160405180910390fd5b6001600160a01b0380871660009081526002602090815260408083209388168352929052208382039055610b0a848685610d46565b6000848484604051602401610b2193929190611172565b60408051601f198184030181529181526020820180516001600160e01b0316633513923160e11b1790525190915060009081906001600160a01b03891690610b6a908590611193565b6000604051808303816000865af19150503d8060008114610ba7576040519150601f19603f3d011682016040523d82523d6000602084013e610bac565b606091505b509150915081610bd1578060405163a5fa8d2b60e01b81526004016106a9919061104c565b600081806020019051810190610be791906111af565b6001600160a01b038b1660009081526001602052604081206002810180549394509092849290610c18908490611151565b909155505060018101548211610c38576001810180548390039055610c40565b600060018201555b886001600160a01b03168a6001600160a01b03168c6001600160a01b03167f5764dbcef91eb6f946584f4ea671217c686fa7e858ce4f9f42d08422b86556a98b86604051610c98929190918252602082015260400190565b60405180910390a45050505050505050505050565b610cbb848484846001610dfa565b610cda5783604051635274afe760e01b81526004016106a99190610f19565b50505050565b60405163a9059cbb60e01b60008181526001600160a01b038616600452602485905291602083604481808b5af192506001600051148316610d3a578383151615610d2d573d6000823e3d81fd5b6000873b113d1516831692505b60405250949350505050565b604051636eb1769f60e11b81523060048201526001600160a01b0383811660248301526000919085169063dd62ed3e90604401602060405180830381865afa158015610d96573d6000803e3d6000fd5b505050506040513d601f19601f82011682018060405250810190610dba91906111af565b9050818110610dc95750505050565b8015610de457610de46001600160a01b038516846000610e6c565b610cda6001600160a01b03851684600019610e6c565b6040516323b872dd60e01b60008181526001600160a01b038781166004528616602452604485905291602083606481808c5af192506001600051148316610e5a578383151615610e4d573d6000823e3d81fd5b6000883b113d1516831692505b60405250600060605295945050505050565b610e798383836000610eb3565b61081a57610e8b838360006001610eb3565b610eaa5782604051635274afe760e01b81526004016106a99190610f19565b6107fb83838360015b60405163095ea7b360e01b60008181526001600160a01b038616600452602485905291602083604481808b5af192506001600051148316610d3a578383151615610d2d573d6000823e3d81fd5b600060208284031215610f1257600080fd5b5035919050565b6001600160a01b0391909116815260200190565b6001600160a01b03811681146107eb57600080fd5b600060208284031215610f5457600080fd5b8135610f5f81610f2d565b9392505050565b60008060408385031215610f7957600080fd5b8235610f8481610f2d565b91506020830135610f9481610f2d565b809150509250929050565b60008060008060608587031215610fb557600080fd5b8435610fc081610f2d565b935060208501359250604085013567ffffffffffffffff80821115610fe457600080fd5b818701915087601f830112610ff857600080fd5b81358181111561100757600080fd5b88602082850101111561101957600080fd5b95989497505060200194505050565b60005b8381101561104357818101518382015260200161102b565b50506000910152565b602081526000825180602084015261106b816040850160208701611028565b601f01601f19169190910160400192915050565b6000806040838503121561109257600080fd5b823561109d81610f2d565b915060208301358015158114610f9457600080fd5b600080858511156110c257600080fd5b838611156110cf57600080fd5b5050820193919092039150565b6001600160e01b031981358181169160048510156111045780818660040360031b1b83161692505b505092915050565b60008060006060848603121561112157600080fd5b833561112c81610f2d565b95602085013595506040909401359392505050565b8183823760009101908152919050565b808201808211156103eb57634e487b7160e01b600052601160045260246000fd5b6001600160a01b039390931683526020830191909152604082015260600190565b600082516111a5818460208701611028565b9190910192915050565b6000602082840312156111c157600080fd5b505191905056fea26469706673582212204f68e217bc3ff8e7767d1dacd1a329f4368d88d7e6f2626e636efc58db6e495564736f6c63430008180033",
  "linkReferences": {},
  "deployedLinkReferences": {}
}