{
  "_format": "hh-sol-artifact-1",
  "contractName": "SignalVerifier",
  "sourceName": "contracts/SignalVerifier.sol",
  "abi": [
    {
      "anonymous": false,
      "inputs": [
        {
          "indexed": true,
          "internalType": "uint256",
          "name": "id",
          "type": "uint256"
        },
        {
          "indexed": true,
          "internalType": "address",
          "name": "trader",
          "type": "address"
        },
        {
          "indexed": false,
          "internalType": "string",
          "name": "token",
          "type": "string"
        },
        {
          "indexed": false,
          "internalType": "string",
          "name": "action",
          "type": "string"
        },
        {
          "indexed": false,
          "internalType": "uint256",
          "name": "confidence",
          "type": "uint256"
        }
      ],
      "name": "SignalRecorded",
      "type": "event"
    },
    {
      "inputs": [],
      "name": "getSignalsCount",
      "outputs": [
        {
          "internalType": "uint256",
          "name": "",
          "type": "uint256"
        }
      ],
      "stateMutability": "view",
      "type": "function"
    },
    {
      "inputs": [
        {
          "internalType": "string",
          "name": "_token",
          "type": "string"
        },
        {
          "internalType": "string",
          "name": "_action",
          "type": "string"
        },
        {
          "internalType": "uint256",
          "name": "_confidence",
          "type": "uint256"
        },
        {
          "internalType": "bytes32",
          "name": "_txHash",
          "type": "bytes32"
        }
      ],
      "name": "recordSignal",
      "outputs": [
        {
          "internalType": "uint256",
          "name": "",
          "type": "uint256"
        }
      ],
      "stateMutability": "nonpayable",
      "type": "function"
    },
    {
      "inputs": [
        {
          "internalType": "uint256",
          "name": "",
          "type": "uint256"
        }
      ],
      "name": "signals",
      "outputs": [
        {
          "internalType": "uint256",
          "name": "id",
          "type": "uint256"
        },
        {
          "internalType": "address",
          "name": "trader",
          "type": "address"
        },
        {
          "internalType": "string",
          "name": "token",
          "type": "string"
        },
        {
          "internalType": "string",
          "name": "action",
          "type": "string"
        },
        {
          "internalType": "uint256",
          "name": "timestamp",
          "type": "uint256"
        },
        {
          "internalType": "uint256",
          "name": "confidence",
          "type": "uint256"
        },
        {
          "internalType": "bytes32",
          "name": "txHash",
          "type": "bytes32"
        }
      ],
      "stateMutability": "view",
      "type": "function"
    }
  ],
  "bytecode": "0x608060405234801561001057600080fd5b50610be5806100206000396000f3fe608060405234801561001057600080fd5b50600436106100415760003560e01c80633f0d0c041461004657806347c740cd14610076578063985738b6146100ac575b600080fd5b610060600480360381019061005b91906105de565b6100ca565b60405161006d919061068c565b60405180910390f35b610090600480360381019061008b91906106a7565b61028a565b6040516100a397969594939291906107a3565b60405180910390f35b6100b461040c565b6040516100c1919061068c565b60405180910390f35b6000612710831115610111576040517f08c379a00000000000000000000000000000000000000000000000000000000081526004016101089061086c565b60405180910390fd5b60008080549050905060006040518060e001604052808381526020013373ffffffffffffffffffffffffffffffffffffffff1681526020018881526020018781526020014281526020018681526020018581525090806001815401808255809150506001900390600052602060002090600702016000909190919091506000820151816000015560208201518160010160006101000a81548173ffffffffffffffffffffffffffffffffffffffff021916908373ffffffffffffffffffffffffffffffffffffffff16021790555060408201518160020190816101f49190610a98565b50606082015181600301908161020a9190610a98565b506080820151816004015560a0820151816005015560c0820151816006015550503373ffffffffffffffffffffffffffffffffffffffff16817f63d44bba0705331609cfbab2b5ea8669c843843f3324eec8626e10ca24887e2788888860405161027693929190610b6a565b60405180910390a380915050949350505050565b6000818154811061029a57600080fd5b90600052602060002090600702016000915090508060000154908060010160009054906101000a900473ffffffffffffffffffffffffffffffffffffffff16908060020180546102e9906108bb565b80601f0160208091040260200160405190810160405280929190818152602001828054610315906108bb565b80156103625780601f1061033757610100808354040283529160200191610362565b820191906000526020600020905b81548152906001019060200180831161034557829003601f168201915b505050505090806003018054610377906108bb565b80601f01602080910402602001604051908101604052809291908181526020018280546103a3906108bb565b80156103f05780601f106103c5576101008083540402835291602001916103f0565b820191906000526020600020905b8154815290600101906020018083116103d357829003601f168201915b5050505050908060040154908060050154908060060154905087565b60008080549050905090565b6000604051905090565b600080fd5b600080fd5b600080fd5b600080fd5b6000601f19601f8301169050919050565b7f4e487b7100000000000000000000000000000000000000000000000000000000600052604160045260246000fd5b61047f82610436565b810181811067ffffffffffffffff8211171561049e5761049d610447565b5b80604052505050565b60006104b1610418565b90506104bd8282610476565b919050565b600067ffffffffffffffff8211156104dd576104dc610447565b5b6104e682610436565b9050602081019050919050565b82818337600083830152505050565b6000610515610510846104c2565b6104a7565b90508281526020810184848401111561053157610530610431565b5b61053c8482856104f3565b509392505050565b600082601f8301126105595761055861042c565b5b8135610569848260208601610502565b91505092915050565b6000819050919050565b61058581610572565b811461059057600080fd5b50565b6000813590506105a28161057c565b92915050565b6000819050919050565b6105bb816105a8565b81146105c657600080fd5b50565b6000813590506105d8816105b2565b92915050565b600080600080608085870312156105f8576105f7610422565b5b600085013567ffffffffffffffff81111561061657610615610427565b5b61062287828801610544565b945050602085013567ffffffffffffffff81111561064357610642610427565b5b61064f87828801610544565b935050604061066087828801610593565b9250506060610671878288016105c9565b91505092959194509250565b61068681610572565b82525050565b60006020820190506106a1600083018461067d565b92915050565b6000602082840312156106bd576106bc610422565b5b60006106cb84828501610593565b91505092915050565b600073ffffffffffffffffffffffffffffffffffffffff82169050919050565b60006106ff826106d4565b9050919050565b61070f816106f4565b82525050565b600081519050919050565b600082825260208201905092915050565b60005b8381101561074f578082015181840152602081019050610734565b60008484015250505050565b600061076682610715565b6107708185610720565b9350610780818560208601610731565b61078981610436565b840191505092915050565b61079d816105a8565b82525050565b600060e0820190506107b8600083018a61067d565b6107c56020830189610706565b81810360408301526107d7818861075b565b905081810360608301526107eb818761075b565b90506107fa608083018661067d565b61080760a083018561067d565b61081460c0830184610794565b98975050505050505050565b7f4d61782031303025000000000000000000000000000000000000000000000000600082015250565b6000610856600883610720565b915061086182610820565b602082019050919050565b6000602082019050818103600083015261088581610849565b9050919050565b7f4e487b7100000000000000000000000000000000000000000000000000000000600052602260045260246000fd5b600060028204905060018216806108d357607f821691505b6020821081036108e6576108e561088c565b5b50919050565b60008190508160005260206000209050919050565b60006020601f8301049050919050565b600082821b905092915050565b60006008830261094e7fffffffffffffffffffffffffffffffffffffffffffffffffffffffffffffffff82610911565b6109588683610911565b95508019841693508086168417925050509392505050565b6000819050919050565b600061099561099061098b84610572565b610970565b610572565b9050919050565b6000819050919050565b6109af8361097a565b6109c36109bb8261099c565b84845461091e565b825550505050565b600090565b6109d86109cb565b6109e38184846109a6565b505050565b5b81811015610a07576109fc6000826109d0565b6001810190506109e9565b5050565b601f821115610a4c57610a1d816108ec565b610a2684610901565b81016020851015610a35578190505b610a49610a4185610901565b8301826109e8565b50505b505050565b600082821c905092915050565b6000610a6f60001984600802610a51565b1980831691505092915050565b6000610a888383610a5e565b9150826002028217905092915050565b610aa182610715565b67ffffffffffffffff811115610aba57610ab9610447565b5b610ac482546108bb565b610acf828285610a0b565b600060209050601f831160018114610b025760008415610af0578287015190505b610afa8582610a7c565b865550610b62565b601f198416610b10866108ec565b60005b82811015610b3857848901518255600182019150602085019450602081019050610b13565b86831015610b555784890151610b51601f891682610a5e565b8355505b6001600288020188555050505b505050505050565b60006060820190508181036000830152610b84818661075b565b90508181036020830152610b98818561075b565b9050610ba7604083018461067d565b94935050505056fea26469706673582212200c0b7f0b7a935b4e762d3ba09e4483d487db5690f5d8011d6cf1c6f529bd074164736f6c63430008140033",
  "linkReferences": {},
  "deployedLinkReferences": {}
}