{
  "_format": "hh-sol-artifact-1",
  "contractName": "MockUniswapLikeManager",
  "sourceName": "contracts/assetsManagers/MockUniswapLikeManager.sol",
  "abi": [
    {
      "inputs": [
        {
          "internalType": "address",
          "name": "paymentToken_",
          "type": "address"
        },
        {
          "internalType": "uint256",
          "name": "stablePerAssetE18_",
          "type": "uint256"
        },
        {
          "internalType": "uint256",
          "name": "feeBps_",
          "type": "uint256"
        },
        {
          "internalType": "address",
          "name": "initialOwner",
          "type": "address"
        }
      ],
      "stateMutability": "nonpayable",
      "type": "constructor"
    },
    {
      "inputs": [],
      "name": "AssetNotSupported",
      "type": "error"
    },
    {
      "inputs": [],
      "name": "BadPrice",
      "type": "error"
    },
    {
      "inputs": [
        {
          "internalType": "address",
          "name": "owner",
          "type": "address"
        }
      ],
      "name": "OwnableInvalidOwner",
      "type": "error"
    },
    {
      "inputs": [
        {
          "internalType": "address",
          "name": "account",
          "type": "address"
        }
      ],
      "name": "OwnableUnauthorizedAccount",
      "type": "error"
    },
    {
      "inputs": [
        {
          "internalType": "address",
          "name": "token",
          "type": "address"
        }
      ],
      "name": "SafeERC20FailedOperation",
      "type": "error"
    },
    {
      "inputs": [],
      "name": "Slippage",
      "type": "error"
    },
    {
      "anonymous": false,
      "inputs": [
        {
          "indexed": true,
          "internalType": "address",
          "name": "previousOwner",
          "type": "address"
        },
        {
          "indexed": true,
          "internalType": "address",
          "name": "newOwner",
          "type": "address"
        }
      ],
      "name": "OwnershipTransferred",
      "type": "event"
    },
    {
      "inputs": [
        {
          "internalType": "address",
          "name": "assetToken",
          "type": "address"
        },
        {
          "internalType": "uint256",
          "name": "paymentAmountIn",
          "type": "uint256"
        },
        {
          "internalType": "uint256",
          "name": "minAssetOut",
          "type": "uint256"
        }
      ],
      "name": "buy",
      "outputs": [
        {
          "internalType": "uint256",
          "name": "assetOut",
          "type": "uint256"
        }
      ],
      "stateMutability": "nonpayable",
      "type": "function"
    },
    {
      "inputs": [],
      "name": "feeBps",
      "outputs": [
        {
          "internalType": "uint256",
          "name": "",
          "type": "uint256"
        }
      ],
      "stateMutability": "view",
      "type": "function"
    },
    {
      "inputs": [],
      "name": "owner",
      "outputs": [
        {
          "internalType": "address",
          "name": "",
          "type": "address"
        }
      ],
      "stateMutability": "view",
      "type": "function"
    },
    {
      "inputs": [],
      "name": "paymentToken",
      "outputs": [
        {
          "internalType": "address",
          "name": "",
          "type": "address"
        }
      ],
      "stateMutability": "view",
      "type": "function"
    },
    {
      "inputs": [],
      "name": "renounceOwnership",
      "outputs": [],
      "stateMutability": "nonpayable",
      "type": "function"
    },
    {
      "inputs": [
        {
          "internalType": "address",
          "name": "assetToken",
          "type": "address"
        },
        {
          "internalType": "uint256",
          "name": "assetAmountIn",
          "type": "uint256"
        },
        {
          "internalType": "uint256",
          "name": "minPaymentOut",
          "type": "uint256"
        }
      ],
      "name": "sell",
      "outputs": [
        {
          "internalType": "uint256",
          "name": "paymentOut",
          "type": "uint256"
        }
      ],
      "stateMutability": "nonpayable",
      "type": "function"
    },
    {
      "inputs": [
        {
          "internalType": "uint256",
          "name": "feeBps_",
          "type": "uint256"
        }
      ],
      "name": "setFeeBps",
      "outputs": [],
      "stateMutability": "nonpayable",
      "type": "function"
    },
    {
      "inputs": [
        {
          "internalType": "uint256",
          "name": "stablePerAssetE18_",
          "type": "uint256"
        }
      ],
      "name": "setStablePerAssetE18",
      "outputs": [],
      "stateMutability": "nonpayable",
      "type": "function"
    },
    {
      "inputs": [
        {
          "internalType": "address",
          "name": "assetToken",
          "type": "address"
        },
        {
          "internalType": "bool",
          "name": "supported",
          "type": "bool"
        }
      ],
      "name": "setSupportedAsset",
      "outputs": [],
      "stateMutability": "nonpayable",
      "type": "function"
    },
    {
      "inputs": [],
      "name": "stablePerAssetE18",
      "outputs": [
        {
          "internalType": "uint256",
          "name": "",
          "type": "uint256"
        }
      ],
      "stateMutability": "view",
      "type": "function"
    },
    {
      "inputs": [
        {
          "internalType": "address",
          "name": "",
          "type": "address"
        }
      ],
      "name": "supportedAsset",
      "outputs": [
        {
          "internalType": "bool",
          "name": "",
          "type": "bool"
        }
      ],
      "stateMutability": "view",
      "type": "function"
    },
    {
      "inputs": [
        {
          "internalType": "address",
          "name": "newOwner",
          "type": "address"
        }
      ],
      "name": "transferOwnership",
      "outputs": [],
      "stateMutability": "nonpayable",
      "type": "function"
    }
  ],
  "bytecode": "0x60a060405234801561001057600080fd5b5060405161092738038061092783398101604081905261002f9161010f565b806001600160a01b03811661005e57604051631e4fbdf760e01b81526000600482015260240160405180910390fd5b610067816100a3565b50826000036100895760405163fd1ee34960e01b815260040160405180910390fd5b506001600160a01b03909216608052600355600255610155565b600080546001600160a01b038381166001600160a01b0319831681178455604051919092169283917f8be0079c531659141344cd1fd0a4f28419497f9722a3daafe3b4186f6b6457e09190a35050565b80516001600160a01b038116811461010a57600080fd5b919050565b6000806000806080858703121561012557600080fd5b61012e856100f3565b9350602085015192506040850151915061014a606086016100f3565b905092959194509250565b6080516107aa61017d6000396000818160ca0152818161028e015261039501526107aa6000f3fe608060405234801561001057600080fd5b50600436106100a45760003560e01c806324a9d853146100a95780633013ce29146100c55780636a272462146100f9578063715018a61461010c57806372c27b62146101165780638da5cb5b14610129578063a59ac6dd1461013a578063d82e66fa1461014d578063ef76e2ee14610180578063f293c59814610193578063f2fde38b1461019c578063fc4e88f5146101af575b600080fd5b6100b260025481565b6040519081526020015b60405180910390f35b6100ec7f000000000000000000000000000000000000000000000000000000000000000081565b6040516100bc9190610632565b6100b2610107366004610662565b6101c2565b6101146102be565b005b610114610124366004610695565b6102d2565b6000546001600160a01b03166100ec565b6100b2610148366004610662565b6102df565b61017061015b3660046106ae565b60016020526000908152604090205460ff1681565b60405190151581526020016100bc565b61011461018e3660046106d0565b6103d1565b6100b260035481565b6101146101aa3660046106ae565b610404565b6101146101bd366004610695565b61044b565b6001600160a01b03831660009081526001602052604081205460ff166101fb5760405163981a2a2b60e01b815260040160405180910390fd5b6000670de0b6b3a7640000600354856102149190610722565b61021e919061073f565b90506000612710600254836102339190610722565b61023d919061073f565b90506102498183610761565b92508383101561026c576040516307dd37f760e41b815260040160405180910390fd5b6102816001600160a01b038716333088610479565b6102b56001600160a01b037f00000000000000000000000000000000000000000000000000000000000000001633856104ac565b50509392505050565b6102c66104dd565b6102d0600061050a565b565b6102da6104dd565b600255565b6001600160a01b03831660009081526001602052604081205460ff166103185760405163981a2a2b60e01b815260040160405180910390fd5b60035460009061033085670de0b6b3a7640000610722565b61033a919061073f565b905060006127106002548361034f9190610722565b610359919061073f565b90506103658183610761565b925083831015610388576040516307dd37f760e41b815260040160405180910390fd5b6103bd6001600160a01b037f000000000000000000000000000000000000000000000000000000000000000016333088610479565b6102b56001600160a01b03871633856104ac565b6103d96104dd565b6001600160a01b03919091166000908152600160205260409020805460ff1916911515919091179055565b61040c6104dd565b6001600160a01b03811661043f576000604051631e4fbdf760e01b81526004016104369190610632565b60405180910390fd5b6104488161050a565b50565b6104536104dd565b806000036104745760405163fd1ee34960e01b815260040160405180910390fd5b600355565b61048784848484600161055a565b6104a65783604051635274afe760e01b81526004016104369190610632565b50505050565b6104b983838360016105cc565b6104d85782604051635274afe760e01b81526004016104369190610632565b505050565b6000546001600160a01b031633146102d0573360405163118cdaa760e01b81526004016104369190610632565b600080546001600160a01b038381166001600160a01b0319831681178455604051919092169283917f8be0079c531659141344cd1fd0a4f28419497f9722a3daafe3b4186f6b6457e09190a35050565b6040516323b872dd60e01b60008181526001600160a01b038781166004528616602452604485905291602083606481808c5af1925060016000511483166105ba5783831516156105ad573d6000823e3d81fd5b6000883b113d1516831692505b60405250600060605295945050505050565b60405163a9059cbb60e01b60008181526001600160a01b038616600452602485905291602083604481808b5af192506001600051148316610626578383151615610619573d6000823e3d81fd5b6000873b113d1516831692505b60405250949350505050565b6001600160a01b0391909116815260200190565b80356001600160a01b038116811461065d57600080fd5b919050565b60008060006060848603121561067757600080fd5b61068084610646565b95602085013595506040909401359392505050565b6000602082840312156106a757600080fd5b5035919050565b6000602082840312156106c057600080fd5b6106c982610646565b9392505050565b600080604083850312156106e357600080fd5b6106ec83610646565b91506020830135801515811461070157600080fd5b809150509250929050565b634e487b7160e01b600052601160045260246000fd5b80820281158282048414176107395761073961070c565b92915050565b60008261075c57634e487b7160e01b600052601260045260246000fd5b500490565b818103818111156107395761073961070c56fea264697066735822122025b6a6f66f7f22c27f12ab95132cf52863647a62fe59543f7aa55e4a0ccf13c764736f6c63430008180033",
  "linkReferences": {},
  "deployedLinkReferences": {}
}