{"contracts/assetsManagers/PrivateBrokerManager.sol":{"PrivateBrokerManager":{"abi":[{"inputs":[{"internalType":"address","name":"paymentToken_","type":"address"},{"internalType":"uint256","name":"stablePerAssetE18_","type":"uint256"},{"internalType":"uint256","name":"feeBps_","type":"uint256"},{"internalType":"address","name":"initialOwner","type":"address"}],"stateMutability":"nonpayable","type":"constructor"},{"inputs":[],"name":"AssetNotSupported","type":"error"},{"inputs":[],"name":"BadPrice","type":"error"},{"inputs":[],"name":"NotAuthorizedDesk","type":"error"},{"inputs":[{"internalType":"address","name":"owner","type":"address"}],"name":"OwnableInvalidOwner","type":"error"},{"inputs":[{"internalType":"address","name":"account","type":"address"}],"name":"OwnableUnauthorizedAccount","type":"error"},{"inputs":[{"internalType":"address","name":"token","type":"address"}],"name":"SafeERC20FailedOperation","type":"error"},{"inputs":[],"name":"Slippage","type":"error"},{"anonymous":false,"inputs":[{"indexed":true,"internalType":"address","name":"previousOwner","type":"address"},{"indexed":true,"internalType":"address","name":"newOwner","type":"address"}],"name":"OwnershipTransferred","type":"event"},{"inputs":[{"internalType":"address","name":"","type":"address"}],"name":"authorizedDesk","outputs":[{"internalType":"bool","name":"","type":"bool"}],"stateMutability":"view","type":"function"},{"inputs":[{"internalType":"address","name":"assetToken","type":"address"},{"internalType":"uint256","name":"paymentAmountIn","type":"uint256"},{"internalType":"uint256","name":"minAssetOut","type":"uint256"}],"name":"buy","outputs":[{"internalType":"uint256","name":"assetOut","type":"uint256"}],"stateMutability":"nonpayable","type":"function"},{"inputs":[],"name":"feeBps","outputs":[{"internalType":"uint256","name":"","type":"uint256"}],"stateMutability":"view","type":"function"},{"inputs":[],"name":"owner","outputs":[{"internalType":"address","name":"","type":"address"}],"stateMutability":"view","type":"function"},{"inputs":[],"name":"paymentToken","outputs":[{"internalType":"address","name":"","type":"address"}],"stateMutability":"view","type":"function"},{"inputs":[],"name":"renounceOwnership","outputs":[],"stateMutability":"nonpayable","type":"function"},{"inputs":[{"internalType":"address","name":"assetToken","type":"address"},{"internalType":"uint256","name":"assetAmountIn","type":"uint256"},{"internalType":"uint256","name":"minPaymentOut","type":"uint256"}],"name":"sell","outputs":[{"internalType":"uint256","name":"paymentOut","type":"uint256"}],"stateMutability":"nonpayable","type":"function"},{"inputs":[{"internalType":"address","name":"desk","type":"address"},{"internalType":"bool","name":"authorized","type":"bool"}],"name":"setAuthorizedDesk","outputs":[],"stateMutability":"nonpayable","type":"function"},{"inputs":[{"internalType":"uint256","name":"feeBps_","type":"uint256"}],"name":"setFeeBps","outputs":[],"stateMutability":"nonpayable","type":"function"},{"inputs":[{"internalType":"uint256","name":"stablePerAssetE18_","type":"uint256"}],"name":"setStablePerAssetE18","outputs":[],"stateMutability":"nonpayable","type":"function"},{"inputs":[{"internalType":"address","name":"assetToken","type":"address"},{"internalType":"bool","name":"supported","type":"bool"}],"name":"setSupportedAsset","outputs":[],"stateMutability":"nonpayable","type":"function"},{"inputs":[],"name":"stablePerAssetE18","outputs":[{"internalType":"uint256","name":"","type":"uint256"}],"stateMutability":"view","type":"function"},{"inputs":[{"internalType":"address","name":"","type":"address"}],"name":"supportedAsset","outputs":[{"internalType":"bool","name":"","type":"bool"}],"stateMutability":"view","type":"function"},{"inputs":[{"internalType":"address","name":"newOwner","type":"address"}],"name":"transferOwnership","outputs":[],"stateMutability":"nonpayable","type":"function"}],"devdoc":{"errors":{"OwnableInvalidOwner(address)":[{"details":"The owner is not a valid owner account. (eg. `address(0)`)"}],"OwnableUnauthorizedAccount(address)":[{"details":"The caller account is not authorized to perform an operation."}],"SafeERC20FailedOperation(address)":[{"details":"An operation with an ERC-20 token failed."}]},"kind":"dev","methods":{"owner()":{"details":"Returns the address of the current owner."},"renounceOwnership()":{"details":"Leaves the contract without owner. It will not be possible to call `onlyOwner` functions. Can only be called by the current owner. NOTE: Renouncing ownership will leave the contract without an owner, thereby disabling any functionality that is only available to the owner."},"transferOwnership(address)":{"details":"Transfers ownership of the contract to a new account (`newOwner`). Can only be called by the current owner."}},"version":1},"evm":{"bytecode":{"linkReferences":{},"object":"60a060405234801561001057600080fd5b50604051610a05380380610a0583398101604081905261002f9161010f565b806001600160a01b03811661005e57604051631e4fbdf760e01b81526000600482015260240160405180910390fd5b610067816100a3565b50826000036100895760405163fd1ee34960e01b815260040160405180910390fd5b506001600160a01b03909216608052600455600355610155565b600080546001600160a01b038381166001600160a01b0319831681178455604051919092169283917f8be0079c531659141344cd1fd0a4f28419497f9722a3daafe3b4186f6b6457e09190a35050565b80516001600160a01b038116811461010a57600080fd5b919050565b6000806000806080858703121561012557600080fd5b61012e856100f3565b9350602085015192506040850151915061014a606086016100f3565b905092959194509250565b60805161088761017e6000396000818161011301528181610309015261047201526108876000f3fe608060405234801561001057600080fd5b50600436106100ba5760003560e01c80630d224390146100bf57806324a9d853146100f75780633013ce291461010e5780636a27246214610142578063715018a61461015557806372c27b621461015f57806381724c28146101725780638da5cb5b14610185578063a59ac6dd14610196578063d82e66fa146101a9578063ef76e2ee146101cc578063f293c598146101df578063f2fde38b146101e8578063fc4e88f5146101fb575b600080fd5b6100e26100cd36600461072b565b60026020526000908152604090205460ff1681565b60405190151581526020015b60405180910390f35b61010060035481565b6040519081526020016100ee565b6101357f000000000000000000000000000000000000000000000000000000000000000081565b6040516100ee919061074d565b610100610150366004610761565b61020e565b61015d610339565b005b61015d61016d366004610794565b61034d565b61015d6101803660046107ad565b61035a565b6000546001600160a01b0316610135565b6101006101a4366004610761565b61038d565b6100e26101b736600461072b565b60016020526000908152604090205460ff1681565b61015d6101da3660046107ad565b6104ae565b61010060045481565b61015d6101f636600461072b565b6104e1565b61015d610209366004610794565b610528565b3360009081526002602052604081205460ff1661023d5760405162a0cc2960e61b815260040160405180910390fd5b6001600160a01b03841660009081526001602052604090205460ff166102765760405163981a2a2b60e01b815260040160405180910390fd5b6000670de0b6b3a76400006004548561028f91906107ff565b610299919061081c565b90506000612710600354836102ae91906107ff565b6102b8919061081c565b90506102c4818361083e565b9250838310156102e7576040516307dd37f760e41b815260040160405180910390fd5b6102fc6001600160a01b038716333088610556565b6103306001600160a01b037f0000000000000000000000000000000000000000000000000000000000000000163385610589565b50509392505050565b6103416105ba565b61034b60006105e7565b565b6103556105ba565b600355565b6103626105ba565b6001600160a01b03919091166000908152600260205260409020805460ff1916911515919091179055565b3360009081526002602052604081205460ff166103bc5760405162a0cc2960e61b815260040160405180910390fd5b6001600160a01b03841660009081526001602052604090205460ff166103f55760405163981a2a2b60e01b815260040160405180910390fd5b60045460009061040d85670de0b6b3a76400006107ff565b610417919061081c565b905060006127106003548361042c91906107ff565b610436919061081c565b9050610442818361083e565b925083831015610465576040516307dd37f760e41b815260040160405180910390fd5b61049a6001600160a01b037f000000000000000000000000000000000000000000000000000000000000000016333088610556565b6103306001600160a01b0387163385610589565b6104b66105ba565b6001600160a01b03919091166000908152600160205260409020805460ff1916911515919091179055565b6104e96105ba565b6001600160a01b03811661051c576000604051631e4fbdf760e01b8152600401610513919061074d565b60405180910390fd5b610525816105e7565b50565b6105306105ba565b806000036105515760405163fd1ee34960e01b815260040160405180910390fd5b600455565b610564848484846001610637565b6105835783604051635274afe760e01b8152600401610513919061074d565b50505050565b61059683838360016106a9565b6105b55782604051635274afe760e01b8152600401610513919061074d565b505050565b6000546001600160a01b0316331461034b573360405163118cdaa760e01b8152600401610513919061074d565b600080546001600160a01b038381166001600160a01b0319831681178455604051919092169283917f8be0079c531659141344cd1fd0a4f28419497f9722a3daafe3b4186f6b6457e09190a35050565b6040516323b872dd60e01b60008181526001600160a01b038781166004528616602452604485905291602083606481808c5af19250600160005114831661069757838315161561068a573d6000823e3d81fd5b6000883b113d1516831692505b60405250600060605295945050505050565b60405163a9059cbb60e01b60008181526001600160a01b038616600452602485905291602083604481808b5af1925060016000511483166107035783831516156106f6573d6000823e3d81fd5b6000873b113d1516831692505b60405250949350505050565b80356001600160a01b038116811461072657600080fd5b919050565b60006020828403121561073d57600080fd5b6107468261070f565b9392505050565b6001600160a01b0391909116815260200190565b60008060006060848603121561077657600080fd5b61077f8461070f565b95602085013595506040909401359392505050565b6000602082840312156107a657600080fd5b5035919050565b600080604083850312156107c057600080fd5b6107c98361070f565b9150602083013580151581146107de57600080fd5b809150509250929050565b634e487b7160e01b600052601160045260246000fd5b8082028115828204841417610816576108166107e9565b92915050565b60008261083957634e487b7160e01b600052601260045260246000fd5b500490565b81810381811115610816576108166107e956fea26469706673582212202c274b62136bedadcfccfa1534392433cad27c7aed4e43725cba25835e4a8a3664736f6c63430008180033","opcodes":"PUSH1 0xA0 PUSH1 0x40 MSTORE CALLVALUE DUP1 ISZERO PUSH2 0x10 JUMPI PUSH1 0x0 DUP1 REVERT JUMPDEST POP PUSH1 0x40 MLOAD PUSH2 0xA05 CODESIZE SUB DUP1 PUSH2 0xA05 DUP4 CODECOPY DUP2 ADD PUSH1 0x40 DUP2 SWAP1 MSTORE PUSH2 0x2F SWAP2 PUSH2 0x10F JUMP JUMPDEST DUP1 PUSH1 0x1 PUSH1 0x1 PUSH1 0xA0 SHL SUB DUP2 AND PUSH2 0x5E JUMPI PUSH1 0x40 MLOAD PUSH4 0x1E4FBDF7 PUSH1 0xE0 SHL DUP2 MSTORE PUSH1 0x0 PUSH1 0x4 DUP3 ADD MSTORE PUSH1 0x24 ADD PUSH1 0x40 MLOAD DUP1 SWAP2 SUB SWAP1 REVERT JUMPDEST PUSH2 0x67 DUP2 PUSH2 0xA3 JUMP JUMPDEST POP DUP3 PUSH1 0x0 SUB PUSH2 0x89 JUMPI PUSH1 0x40 MLOAD PUSH4 0xFD1EE349 PUSH1 0xE0 SHL DUP2 MSTORE PUSH1 0x4 ADD PUSH1 0x40 MLOAD DUP1 SWAP2 SUB SWAP1 REVERT JUMPDEST POP PUSH1 0x1 PUSH1 0x1 PUSH1 0xA0 SHL SUB SWAP1 SWAP3 AND PUSH1 0x80 MSTORE PUSH1 0x4 SSTORE PUSH1 0x3 SSTORE PUSH2 0x155 JUMP JUMPDEST PUSH1 0x0 DUP1 SLOAD PUSH1 0x1 PUSH1 0x1 PUSH1 0xA0 SHL SUB DUP4 DUP2 AND PUSH1 0x1 PUSH1 0x1 PUSH1 0xA0 SHL SUB NOT DUP4 AND DUP2 OR DUP5 SSTORE PUSH1 0x40 MLOAD SWAP2 SWAP1 SWAP3 AND SWAP3 DUP4 SWAP2 PUSH32 0x8BE0079C531659141344CD1FD0A4F28419497F9722A3DAAFE3B4186F6B6457E0 SWAP2 SWAP1 LOG3 POP POP JUMP JUMPDEST DUP1 MLOAD PUSH1 0x1 PUSH1 0x1 PUSH1 0xA0 SHL SUB DUP2 AND DUP2 EQ PUSH2 0x10A JUMPI PUSH1 0x0 DUP1 REVERT JUMPDEST SWAP2 SWAP1 POP JUMP JUMPDEST PUSH1 0x0 DUP1 PUSH1 0x0 DUP1 PUSH1 0x80 DUP6 DUP8 SUB SLT ISZERO PUSH2 0x125 JUMPI PUSH1 0x0 DUP1 REVERT JUMPDEST PUSH2 0x12E DUP6 PUSH2 0xF3 JUMP JUMPDEST SWAP4 POP PUSH1 0x20 DUP6 ADD MLOAD SWAP3 POP PUSH1 0x40 DUP6 ADD MLOAD SWAP2 POP PUSH2 0x14A PUSH1 0x60 DUP7 ADD PUSH2 0xF3 JUMP JUMPDEST SWAP1 POP SWAP3 SWAP6 SWAP2 SWAP5 POP SWAP3 POP JUMP JUMPDEST PUSH1 0x80 MLOAD PUSH2 0x887 PUSH2 0x17E PUSH1 0x0 CODECOPY PUSH1 0x0 DUP2 DUP2 PUSH2 0x113 ADD MSTORE DUP2 DUP2 PUSH2 0x309 ADD MSTORE PUSH2 0x472 ADD MSTORE PUSH2 0x887 PUSH1 0x0 RETURN INVALID PUSH1 0x80 PUSH1 0x40 MSTORE CALLVALUE DUP1 ISZERO PUSH2 0x10 JUMPI PUSH1 0x0 DUP1 REVERT JUMPDEST POP PUSH1 0x4 CALLDATASIZE LT PUSH2 0xBA JUMPI PUSH1 0x0 CALLDATALOAD PUSH1 0xE0 SHR DUP1 PUSH4 0xD224390 EQ PUSH2 0xBF JUMPI DUP1 PUSH4 0x24A9D853 EQ PUSH2 0xF7 JUMPI DUP1 PUSH4 0x3013CE29 EQ PUSH2 0x10E JUMPI DUP1 PUSH4 0x6A272462 EQ PUSH2 0x142 JUMPI DUP1 PUSH4 0x715018A6 EQ PUSH2 0x155 JUMPI DUP1 PUSH4 0x72C27B62 EQ PUSH2 0x15F JUMPI DUP1 PUSH4 0x81724C28 EQ PUSH2 0x172 JUMPI DUP1 PUSH4 0x8DA5CB5B EQ PUSH2 0x185 JUMPI DUP1 PUSH4 0xA59AC6DD EQ PUSH2 0x196 JUMPI DUP1 PUSH4 0xD82E66FA EQ PUSH2 0x1A9 JUMPI DUP1 PUSH4 0xEF76E2EE EQ PUSH2 0x1CC JUMPI DUP1 PUSH4 0xF293C598 EQ PUSH2 0x1DF JUMPI DUP1 PUSH4 0xF2FDE38B EQ PUSH2 0x1E8 JUMPI DUP1 PUSH4 0xFC4E88F5 EQ PUSH2 0x1FB JUMPI JUMPDEST PUSH1 0x0 DUP1 REVERT JUMPDEST PUSH2 0xE2 PUSH2 0xCD CALLDATASIZE PUSH1 0x4 PUSH2 0x72B JUMP JUMPDEST PUSH1 0x2 PUSH1 0x20 MSTORE PUSH1 0x0 SWAP1 DUP2 MSTORE PUSH1 0x40 SWAP1 KECCAK256 SLOAD PUSH1 0xFF AND DUP2 JUMP JUMPDEST PUSH1 0x40 MLOAD SWAP1 ISZERO ISZERO DUP2 MSTORE PUSH1 0x20 ADD JUMPDEST PUSH1 0x40 MLOAD DUP1 SWAP2 SUB SWAP1 RETURN JUMPDEST PUSH2 0x100 PUSH1 0x3 SLOAD DUP2 JUMP JUMPDEST PUSH1 0x40 MLOAD SWAP1 DUP2 MSTORE PUSH1 0x20 ADD PUSH2 0xEE JUMP JUMPDEST PUSH2 0x135 PUSH32 0x0 DUP2 JUMP JUMPDEST PUSH1 0x40 MLOAD PUSH2 0xEE SWAP2 SWAP1 PUSH2 0x74D JUMP JUMPDEST PUSH2 0x100 PUSH2 0x150 CALLDATASIZE PUSH1 0x4 PUSH2 0x761 JUMP JUMPDEST PUSH2 0x20E JUMP JUMPDEST PUSH2 0x15D PUSH2 0x339 JUMP JUMPDEST STOP JUMPDEST PUSH2 0x15D PUSH2 0x16D CALLDATASIZE PUSH1 0x4 PUSH2 0x794 JUMP JUMPDEST PUSH2 0x34D JUMP JUMPDEST PUSH2 0x15D PUSH2 0x180 CALLDATASIZE PUSH1 0x4 PUSH2 0x7AD JUMP JUMPDEST PUSH2 0x35A JUMP JUMPDEST PUSH1 0x0 SLOAD PUSH1 0x1 PUSH1 0x1 PUSH1 0xA0 SHL SUB AND PUSH2 0x135 JUMP JUMPDEST PUSH2 0x100 PUSH2 0x1A4 CALLDATASIZE PUSH1 0x4 PUSH2 0x761 JUMP JUMPDEST PUSH2 0x38D JUMP JUMPDEST PUSH2 0xE2 PUSH2 0x1B7 CALLDATASIZE PUSH1 0x4 PUSH2 0x72B JUMP JUMPDEST PUSH1 0x1 PUSH1 0x20 MSTORE PUSH1 0x0 SWAP1 DUP2 MSTORE PUSH1 0x40 SWAP1 KECCAK256 SLOAD PUSH1 0xFF AND DUP2 JUMP JUMPDEST PUSH2 0x15D PUSH2 0x1DA CALLDATASIZE PUSH1 0x4 PUSH2 0x7AD JUMP JUMPDEST PUSH2 0x4AE JUMP JUMPDEST PUSH2 0x100 PUSH1 0x4 SLOAD DUP2 JUMP JUMPDEST PUSH2 0x15D PUSH2 0x1F6 CALLDATASIZE PUSH1 0x4 PUSH2 0x72B JUMP JUMPDEST PUSH2 0x4E1 JUMP JUMPDEST PUSH2 0x15D PUSH2 0x209 CALLDATASIZE PUSH1 0x4 PUSH2 0x794 JUMP JUMPDEST PUSH2 0x528 JUMP JUMPDEST CALLER PUSH1 0x0 SWAP1 DUP2 MSTORE PUSH1 0x2 PUSH1 0x20 MSTORE PUSH1 0x40 DUP2 KECCAK256 SLOAD PUSH1 0xFF AND PUSH2 0x23D JUMPI PUSH1 0x40 MLOAD PUSH3 0xA0CC29 PUSH1 0xE6 SHL DUP2 MSTORE PUSH1 0x4 ADD PUSH1 0x40 MLOAD DUP1 SWAP2 SUB SWAP1 REVERT JUMPDEST PUSH1 0x1 PUSH1 0x1 PUSH1 0xA0 SHL SUB DUP5 AND PUSH1 0x0 SWAP1 DUP2 MSTORE PUSH1 0x1 PUSH1 0x20 MSTORE PUSH1 0x40 SWAP1 KECCAK256 SLOAD PUSH1 0xFF AND PUSH2 0x276 JUMPI PUSH1 0x40 MLOAD PUSH4 0x981A2A2B PUSH1 0xE0 SHL DUP2 MSTORE PUSH1 0x4 ADD PUSH1 0x40 MLOAD DUP1 SWAP2 SUB SWAP1 REVERT JUMPDEST PUSH1 0x0 PUSH8 0xDE0B6B3A7640000 PUSH1 0x4 SLOAD DUP6 PUSH2 0x28F SWAP2 SWAP1 PUSH2 0x7FF JUMP JUMPDEST PUSH2 0x299 SWAP2 SWAP1 PUSH2 0x81C JUMP JUMPDEST SWAP1 POP PUSH1 0x0 PUSH2 0x2710 PUSH1 0x3 SLOAD DUP4 PUSH2 0x2AE SWAP2 SWAP1 PUSH2 0x7FF JUMP JUMPDEST PUSH2 0x2B8 SWAP2 SWAP1 PUSH2 0x81C JUMP JUMPDEST SWAP1 POP PUSH2 0x2C4 DUP2 DUP4 PUSH2 0x83E JUMP JUMPDEST SWAP3 POP DUP4 DUP4 LT ISZERO PUSH2 0x2E7 JUMPI PUSH1 0x40 MLOAD PUSH4 0x7DD37F7 PUSH1 0xE4 SHL DUP2 MSTORE PUSH1 0x4 ADD PUSH1 0x40 MLOAD DUP1 SWAP2 SUB SWAP1 REVERT JUMPDEST PUSH2 0x2FC PUSH1 0x1 PUSH1 0x1 PUSH1 0xA0 SHL SUB DUP8 AND CALLER ADDRESS DUP9 PUSH2 0x556 JUMP JUMPDEST PUSH2 0x330 PUSH1 0x1 PUSH1 0x1 PUSH1 0xA0 SHL SUB PUSH32 0x0 AND CALLER DUP6 PUSH2 0x589 JUMP JUMPDEST POP POP SWAP4 SWAP3 POP POP POP JUMP JUMPDEST PUSH2 0x341 PUSH2 0x5BA JUMP JUMPDEST PUSH2 0x34B PUSH1 0x0 PUSH2 0x5E7 JUMP JUMPDEST JUMP JUMPDEST PUSH2 0x355 PUSH2 0x5BA JUMP JUMPDEST PUSH1 0x3 SSTORE JUMP JUMPDEST PUSH2 0x362 PUSH2 0x5BA JUMP JUMPDEST PUSH1 0x1 PUSH1 0x1 PUSH1 0xA0 SHL SUB SWAP2 SWAP1 SWAP2 AND PUSH1 0x0 SWAP1 DUP2 MSTORE PUSH1 0x2 PUSH1 0x20 MSTORE PUSH1 0x40 SWAP1 KECCAK256 DUP1 SLOAD PUSH1 0xFF NOT AND SWAP2 ISZERO ISZERO SWAP2 SWAP1 SWAP2 OR SWAP1 SSTORE JUMP JUMPDEST CALLER PUSH1 0x0 SWAP1 DUP2 MSTORE PUSH1 0x2 PUSH1 0x20 MSTORE PUSH1 0x40 DUP2 KECCAK256 SLOAD PUSH1 0xFF AND PUSH2 0x3BC JUMPI PUSH1 0x40 MLOAD PUSH3 0xA0CC29 PUSH1 0xE6 SHL DUP2 MSTORE PUSH1 0x4 ADD PUSH1 0x40 MLOAD DUP1 SWAP2 SUB SWAP1 REVERT JUMPDEST PUSH1 0x1 PUSH1 0x1 PUSH1 0xA0 SHL SUB DUP5 AND PUSH1 0x0 SWAP1 DUP2 MSTORE PUSH1 0x1 PUSH1 0x20 MSTORE PUSH1 0x40 SWAP1 KECCAK256 SLOAD PUSH1 0xFF AND PUSH2 0x3F5 JUMPI PUSH1 0x40 MLOAD PUSH4 0x981A2A2B PUSH1 0xE0 SHL DUP2 MSTORE PUSH1 0x4 ADD PUSH1 0x40 MLOAD DUP1 SWAP2 SUB SWAP1 REVERT JUMPDEST PUSH1 0x4 SLOAD PUSH1 0x0 SWAP1 PUSH2 0x40D DUP6 PUSH8 0xDE0B6B3A7640000 PUSH2 0x7FF JUMP JUMPDEST PUSH2 0x417 SWAP2 SWAP1 PUSH2 0x81C JUMP JUMPDEST SWAP1 POP PUSH1 0x0 PUSH2 0x2710 PUSH1 0x3 SLOAD DUP4 PUSH2 0x42C SWAP2 SWAP1 PUSH2 0x7FF JUMP JUMPDEST PUSH2 0x436 SWAP2 SWAP1 PUSH2 0x81C JUMP JUMPDEST SWAP1 POP PUSH2 0x442 DUP2 DUP4 PUSH2 0x83E JUMP JUMPDEST SWAP3 POP DUP4 DUP4 LT ISZERO PUSH2 0x465 JUMPI PUSH1 0x40 MLOAD PUSH4 0x7DD37F7 PUSH1 0xE4 SHL DUP2 MSTORE PUSH1 0x4 ADD PUSH1 0x40 MLOAD DUP1 SWAP2 SUB SWAP1 REVERT JUMPDEST PUSH2 0x49A PUSH1 0x1 PUSH1 0x1 PUSH1 0xA0 SHL SUB PUSH32 0x0 AND CALLER ADDRESS DUP9 PUSH2 0x556 JUMP JUMPDEST PUSH2 0x330 PUSH1 0x1 PUSH1 0x1 PUSH1 0xA0 SHL SUB DUP8 AND CALLER DUP6 PUSH2 0x589 JUMP JUMPDEST PUSH2 0x4B6 PUSH2 0x5BA JUMP JUMPDEST PUSH1 0x1 PUSH1 0x1 PUSH1 0xA0 SHL SUB SWAP2 SWAP1 SWAP2 AND PUSH1 0x0 SWAP1 DUP2 MSTORE PUSH1 0x1 PUSH1 0x20 MSTORE PUSH1 0x40 SWAP1 KECCAK256 DUP1 SLOAD PUSH1 0xFF NOT AND SWAP2 ISZERO ISZERO SWAP2 SWAP1 SWAP2 OR SWAP1 SSTORE JUMP JUMPDEST PUSH2 0x4E9 PUSH2 0x5BA JUMP JUMPDEST PUSH1 0x1 PUSH1 0x1 PUSH1 0xA0 SHL SUB DUP2 AND PUSH2 0x51C JUMPI PUSH1 0x0 PUSH1 0x40 MLOAD PUSH4 0x1E4FBDF7 PUSH1 0xE0 SHL DUP2 MSTORE PUSH1 0x4 ADD PUSH2 0x513 SWAP2 SWAP1 PUSH2 0x74D JUMP JUMPDEST PUSH1 0x40 MLOAD DUP1 SWAP2 SUB SWAP1 REVERT JUMPDEST PUSH2 0x525 DUP2 PUSH2 0x5E7 JUMP JUMPDEST POP JUMP JUMPDEST PUSH2 0x530 PUSH2 0x5BA JUMP JUMPDEST DUP1 PUSH1 0x0 SUB PUSH2 0x551 JUMPI PUSH1 0x40 MLOAD PUSH4 0xFD1EE349 PUSH1 0xE0 SHL DUP2 MSTORE PUSH1 0x4 ADD PUSH1 0x40 MLOAD DUP1 SWAP2 SUB SWAP1 REVERT JUMPDEST PUSH1 0x4 SSTORE JUMP JUMPDEST PUSH2 0x564 DUP5 DUP5 DUP5 DUP5 PUSH1 0x1 PUSH2 0x637 JUMP JUMPDEST PUSH2 0x583 JUMPI DUP4 PUSH1 0x40 MLOAD PUSH4 0x5274AFE7 PUSH1 0xE0 SHL DUP2 MSTORE PUSH1 0x4 ADD PUSH2 0x513 SWAP2 SWAP1 PUSH2 0x74D JUMP JUMPDEST POP POP POP POP JUMP JUMPDEST PUSH2 0x596 DUP4 DUP4 DUP4 PUSH1 0x1 PUSH2 0x6A9 JUMP JUMPDEST PUSH2 0x5B5 JUMPI DUP3 PUSH1 0x40 MLOAD PUSH4 0x5274AFE7 PUSH1 0xE0 SHL DUP2 MSTORE PUSH1 0x4 ADD PUSH2 0x513 SWAP2 SWAP1 PUSH2 0x74D JUMP JUMPDEST POP POP POP JUMP JUMPDEST PUSH1 0x0 SLOAD PUSH1 0x1 PUSH1 0x1 PUSH1 0xA0 SHL SUB AND CALLER EQ PUSH2 0x34B JUMPI CALLER PUSH1 0x40 MLOAD PUSH4 0x118CDAA7 PUSH1 0xE0 SHL DUP2 MSTORE PUSH1 0x4 ADD PUSH2 0x513 SWAP2 SWAP1 PUSH2 0x74D JUMP JUMPDEST PUSH1 0x0 DUP1 SLOAD PUSH1 0x1 PUSH1 0x1 PUSH1 0xA0 SHL SUB DUP4 DUP2 AND PUSH1 0x1 PUSH1 0x1 PUSH1 0xA0 SHL SUB NOT DUP4 AND DUP2 OR DUP5 SSTORE PUSH1 0x40 MLOAD SWAP2 SWAP1 SWAP3 AND SWAP3 DUP4 SWAP2 PUSH32 0x8BE0079C531659141344CD1FD0A4F28419497F9722A3DAAFE3B4186F6B6457E0 SWAP2 SWAP1 LOG3 POP POP JUMP JUMPDEST PUSH1 0x40 MLOAD PUSH4 0x23B872DD PUSH1 0xE0 SHL PUSH1 0x0 DUP2 DUP2 MSTORE PUSH1 0x1 PUSH1 0x1 PUSH1 0xA0 SHL SUB DUP8 DUP2 AND PUSH1 0x4 MSTORE DUP7 AND PUSH1 0x24 MSTORE PUSH1 0x44 DUP6 SWAP1 MSTORE SWAP2 PUSH1 0x20 DUP4 PUSH1 0x64 DUP2 DUP1 DUP13 GAS CALL SWAP3 POP PUSH1 0x1 PUSH1 0x0 MLOAD EQ DUP4 AND PUSH2 0x697 JUMPI DUP4 DUP4 ISZERO AND ISZERO PUSH2 0x68A JUMPI RETURNDATASIZE PUSH1 0x0 DUP3 RETURNDATACOPY RETURNDATASIZE DUP2 REVERT JUMPDEST PUSH1 0x0 DUP9 EXTCODESIZE GT RETURNDATASIZE ISZERO AND DUP4 AND SWAP3 POP JUMPDEST PUSH1 0x40 MSTORE POP PUSH1 0x0 PUSH1 0x60 MSTORE SWAP6 SWAP5 POP POP POP POP POP JUMP JUMPDEST PUSH1 0x40 MLOAD PUSH4 0xA9059CBB PUSH1 0xE0 SHL PUSH1 0x0 DUP2 DUP2 MSTORE PUSH1 0x1 PUSH1 0x1 PUSH1 0xA0 SHL SUB DUP7 AND PUSH1 0x4 MSTORE PUSH1 0x24 DUP6 SWAP1 MSTORE SWAP2 PUSH1 0x20 DUP4 PUSH1 0x44 DUP2 DUP1 DUP12 GAS CALL SWAP3 POP PUSH1 0x1 PUSH1 0x0 MLOAD EQ DUP4 AND PUSH2 0x703 JUMPI DUP4 DUP4 ISZERO AND ISZERO PUSH2 0x6F6 JUMPI RETURNDATASIZE PUSH1 0x0 DUP3 RETURNDATACOPY RETURNDATASIZE DUP2 REVERT JUMPDEST PUSH1 0x0 DUP8 EXTCODESIZE GT RETURNDATASIZE ISZERO AND DUP4 AND SWAP3 POP JUMPDEST PUSH1 0x40 MSTORE POP SWAP5 SWAP4 POP POP POP POP JUMP JUMPDEST DUP1 CALLDATALOAD PUSH1 0x1 PUSH1 0x1 PUSH1 0xA0 SHL SUB DUP2 AND DUP2 EQ PUSH2 0x726 JUMPI PUSH1 0x0 DUP1 REVERT JUMPDEST SWAP2 SWAP1 POP JUMP JUMPDEST PUSH1 0x0 PUSH1 0x20 DUP3 DUP5 SUB SLT ISZERO PUSH2 0x73D JUMPI PUSH1 0x0 DUP1 REVERT JUMPDEST PUSH2 0x746 DUP3 PUSH2 0x70F JUMP JUMPDEST SWAP4 SWAP3 POP POP POP JUMP JUMPDEST PUSH1 0x1 PUSH1 0x1 PUSH1 0xA0 SHL SUB SWAP2 SWAP1 SWAP2 AND DUP2 MSTORE PUSH1 0x20 ADD SWAP1 JUMP JUMPDEST PUSH1 0x0 DUP1 PUSH1 0x0 PUSH1 0x60 DUP5 DUP7 SUB SLT ISZERO PUSH2 0x776 JUMPI PUSH1 0x0 DUP1 REVERT JUMPDEST PUSH2 0x77F DUP5 PUSH2 0x70F JUMP JUMPDEST SWAP6 PUSH1 0x20 DUP6 ADD CALLDATALOAD SWAP6 POP PUSH1 0x40 SWAP1 SWAP5 ADD CALLDATALOAD SWAP4 SWAP3 POP POP POP JUMP JUMPDEST PUSH1 0x0 PUSH1 0x20 DUP3 DUP5 SUB SLT ISZERO PUSH2 0x7A6 JUMPI PUSH1 0x0 DUP1 REVERT JUMPDEST POP CALLDATALOAD SWAP2 SWAP1 POP JUMP JUMPDEST PUSH1 0x0 DUP1 PUSH1 0x40 DUP4 DUP6 SUB SLT ISZERO PUSH2 0x7C0 JUMPI PUSH1 0x0 DUP1 REVERT JUMPDEST PUSH2 0x7C9 DUP4 PUSH2 0x70F JUMP JUMPDEST SWAP2 POP PUSH1 0x20 DUP4 ADD CALLDATALOAD DUP1 ISZERO ISZERO DUP2 EQ PUSH2 0x7DE JUMPI PUSH1 0x0 DUP1 REVERT JUMPDEST DUP1 SWAP2 POP POP SWAP3 POP SWAP3 SWAP1 POP JUMP JUMPDEST PUSH4 0x4E487B71 PUSH1 0xE0 SHL PUSH1 0x0 MSTORE PUSH1 0x11 PUSH1 0x4 MSTORE PUSH1 0x24 PUSH1 0x0 REVERT JUMPDEST DUP1 DUP3 MUL DUP2 ISZERO DUP3 DUP3 DIV DUP5 EQ OR PUSH2 0x816 JUMPI PUSH2 0x816 PUSH2 0x7E9 JUMP JUMPDEST SWAP3 SWAP2 POP POP JUMP JUMPDEST PUSH1 0x0 DUP3 PUSH2 0x839 JUMPI PUSH4 0x4E487B71 PUSH1 0xE0 SHL PUSH1 0x0 MSTORE PUSH1 0x12 PUSH1 0x4 MSTORE PUSH1 0x24 PUSH1 0x0 REVERT JUMPDEST POP DIV SWAP1 JUMP JUMPDEST DUP2 DUP2 SUB DUP2 DUP2 GT ISZERO PUSH2 0x816 JUMPI PUSH2 0x816 PUSH2 0x7E9 JUMP INVALID LOG2 PUSH5 0x6970667358 0x22 SLT KECCAK256 0x2C 0x27 0x4B PUSH3 0x136BED 0xAD 0xCF 0xCC STATICCALL ISZERO CALLVALUE CODECOPY 0x24 CALLER 0xCA 0xD2 PUSH29 0x7AED4E43725CBA25835E4A8A3664736F6C634300081800330000000000 "},"gasEstimates":{"creation":{"codeDepositCost":"436600","executionCost":"infinite","totalCost":"infinite"},"external":{"authorizedDesk(address)":"2498","buy(address,uint256,uint256)":"infinite","feeBps()":"2295","owner()":"2487","paymentToken()":"infinite","renounceOwnership()":"infinite","sell(address,uint256,uint256)":"infinite","setAuthorizedDesk(address,bool)":"26968","setFeeBps(uint256)":"24576","setStablePerAssetE18(uint256)":"24775","setSupportedAsset(address,bool)":"27056","stablePerAssetE18()":"2515","supportedAsset(address)":"2696","transferOwnership(address)":"28575"}},"methodIdentifiers":{"authorizedDesk(address)":"0d224390","buy(address,uint256,uint256)":"a59ac6dd","feeBps()":"24a9d853","owner()":"8da5cb5b","paymentToken()":"3013ce29","renounceOwnership()":"715018a6","sell(address,uint256,uint256)":"6a272462","setAuthorizedDesk(address,bool)":"81724c28","setFeeBps(uint256)":"72c27b62","setStablePerAssetE18(uint256)":"fc4e88f5","setSupportedAsset(address,bool)":"ef76e2ee","stablePerAssetE18()":"f293c598","supportedAsset(address)":"d82e66fa","transferOwnership(address)":"f2fde38b"}},"storageLayout":{"storage":[{"astId":8,"contract":"contracts/assetsManagers/PrivateBrokerManager.sol:PrivateBrokerManager","label":"_owner","offset":0,"slot":"0","type":"t_address"},{"astId":2568,"contract":"contracts/assetsManagers/PrivateBrokerManager.sol:PrivateBrokerManager","label":"supportedAsset","offset":0,"slot":"1","type":"t_mapping(t_address,t_bool)"},{"astId":2572,"contract":"contracts/assetsManagers/PrivateBrokerManager.sol:PrivateBrokerManager","label":"authorizedDesk","offset":0,"slot":"2","type":"t_mapping(t_address,t_bool)"},{"astId":2574,"contract":"contracts/assetsManagers/PrivateBrokerManager.sol:PrivateBrokerManager","label":"feeBps","offset":0,"slot":"3","type":"t_uint256"},{"astId":2576,"contract":"contracts/assetsManagers/PrivateBrokerManager.sol:PrivateBrokerManager","label":"stablePerAssetE18","offset":0,"slot":"4","type":"t_uint256"}],"types":{"t_address":{"encoding":"inplace","label":"address","numberOfBytes":"20"},"t_bool":{"encoding":"inplace","label":"bool","numberOfBytes":"1"},"t_mapping(t_address,t_bool)":{"encoding":"mapping","key":"t_address","label":"mapping(address => bool)","numberOfBytes":"32","value":"t_bool"},"t_uint256":{"encoding":"inplace","label":"uint256","numberOfBytes":"32"}}},"userdoc":{"kind":"user","methods":{},"version":1}}}}