{"contracts/assetsManagers/MockUniswapLikeManager.sol":{"MockUniswapLikeManager":{"abi":[{"inputs":[{"internalType":"address","name":"paymentToken_","type":"address"},{"internalType":"uint256","name":"stablePerAssetE18_","type":"uint256"},{"internalType":"uint256","name":"feeBps_","type":"uint256"},{"internalType":"address","name":"initialOwner","type":"address"}],"stateMutability":"nonpayable","type":"constructor"},{"inputs":[],"name":"AssetNotSupported","type":"error"},{"inputs":[],"name":"BadPrice","type":"error"},{"inputs":[{"internalType":"address","name":"owner","type":"address"}],"name":"OwnableInvalidOwner","type":"error"},{"inputs":[{"internalType":"address","name":"account","type":"address"}],"name":"OwnableUnauthorizedAccount","type":"error"},{"inputs":[{"internalType":"address","name":"token","type":"address"}],"name":"SafeERC20FailedOperation","type":"error"},{"inputs":[],"name":"Slippage","type":"error"},{"anonymous":false,"inputs":[{"indexed":true,"internalType":"address","name":"previousOwner","type":"address"},{"indexed":true,"internalType":"address","name":"newOwner","type":"address"}],"name":"OwnershipTransferred","type":"event"},{"inputs":[{"internalType":"address","name":"assetToken","type":"address"},{"internalType":"uint256","name":"paymentAmountIn","type":"uint256"},{"internalType":"uint256","name":"minAssetOut","type":"uint256"}],"name":"buy","outputs":[{"internalType":"uint256","name":"assetOut","type":"uint256"}],"stateMutability":"nonpayable","type":"function"},{"inputs":[],"name":"feeBps","outputs":[{"internalType":"uint256","name":"","type":"uint256"}],"stateMutability":"view","type":"function"},{"inputs":[],"name":"owner","outputs":[{"internalType":"address","name":"","type":"address"}],"stateMutability":"view","type":"function"},{"inputs":[],"name":"paymentToken","outputs":[{"internalType":"address","name":"","type":"address"}],"stateMutability":"view","type":"function"},{"inputs":[],"name":"renounceOwnership","outputs":[],"stateMutability":"nonpayable","type":"function"},{"inputs":[{"internalType":"address","name":"assetToken","type":"address"},{"internalType":"uint256","name":"assetAmountIn","type":"uint256"},{"internalType":"uint256","name":"minPaymentOut","type":"uint256"}],"name":"sell","outputs":[{"internalType":"uint256","name":"paymentOut","type":"uint256"}],"stateMutability":"nonpayable","type":"function"},{"inputs":[{"internalType":"uint256","name":"feeBps_","type":"uint256"}],"name":"setFeeBps","outputs":[],"stateMutability":"nonpayable","type":"function"},{"inputs":[{"internalType":"uint256","name":"stablePerAssetE18_","type":"uint256"}],"name":"setStablePerAssetE18","outputs":[],"stateMutability":"nonpayable","type":"function"},{"inputs":[{"internalType":"address","name":"assetToken","type":"address"},{"internalType":"bool","name":"supported","type":"bool"}],"name":"setSupportedAsset","outputs":[],"stateMutability":"nonpayable","type":"function"},{"inputs":[],"name":"stablePerAssetE18","outputs":[{"internalType":"uint256","name":"","type":"uint256"}],"stateMutability":"view","type":"function"},{"inputs":[{"internalType":"address","name":"","type":"address"}],"name":"supportedAsset","outputs":[{"internalType":"bool","name":"","type":"bool"}],"stateMutability":"view","type":"function"},{"inputs":[{"internalType":"address","name":"newOwner","type":"address"}],"name":"transferOwnership","outputs":[],"stateMutability":"nonpayable","type":"function"}],"devdoc":{"errors":{"OwnableInvalidOwner(address)":[{"details":"The owner is not a valid owner account. (eg. `address(0)`)"}],"OwnableUnauthorizedAccount(address)":[{"details":"The caller account is not authorized to perform an operation."}],"SafeERC20FailedOperation(address)":[{"details":"An operation with an ERC-20 token failed."}]},"kind":"dev","methods":{"owner()":{"details":"Returns the address of the current owner."},"renounceOwnership()":{"details":"Leaves the contract without owner. It will not be possible to call `onlyOwner` functions. Can only be called by the current owner. NOTE: Renouncing ownership will leave the contract without an owner, thereby disabling any functionality that is only available to the owner."},"transferOwnership(address)":{"details":"Transfers ownership of the contract to a new account (`newOwner`). Can only be called by the current owner."}},"version":1},"evm":{"bytecode":{"linkReferences":{},"object":"60a060405234801561001057600080fd5b5060405161092738038061092783398101604081905261002f9161010f565b806001600160a01b03811661005e57604051631e4fbdf760e01b81526000600482015260240160405180910390fd5b610067816100a3565b50826000036100895760405163fd1ee34960e01b815260040160405180910390fd5b506001600160a01b03909216608052600355600255610155565b600080546001600160a01b038381166001600160a01b0319831681178455604051919092169283917f8be0079c531659141344cd1fd0a4f28419497f9722a3daafe3b4186f6b6457e09190a35050565b80516001600160a01b038116811461010a57600080fd5b919050565b6000806000806080858703121561012557600080fd5b61012e856100f3565b9350602085015192506040850151915061014a606086016100f3565b905092959194509250565b6080516107aa61017d6000396000818160ca0152818161028e015261039501526107aa6000f3fe608060405234801561001057600080fd5b50600436106100a45760003560e01c806324a9d853146100a95780633013ce29146100c55780636a272462146100f9578063715018a61461010c57806372c27b62146101165780638da5cb5b14610129578063a59ac6dd1461013a578063d82e66fa1461014d578063ef76e2ee14610180578063f293c59814610193578063f2fde38b1461019c578063fc4e88f5146101af575b600080fd5b6100b260025481565b6040519081526020015b60405180910390f35b6100ec7f000000000000000000000000000000000000000000000000000000000000000081565b6040516100bc9190610632565b6100b2610107366004610662565b6101c2565b6101146102be565b005b610114610124366004610695565b6102d2565b6000546001600160a01b03166100ec565b6100b2610148366004610662565b6102df565b61017061015b3660046106ae565b60016020526000908152604090205460ff1681565b60405190151581526020016100bc565b61011461018e3660046106d0565b6103d1565b6100b260035481565b6101146101aa3660046106ae565b610404565b6101146101bd366004610695565b61044b565b6001600160a01b03831660009081526001602052604081205460ff166101fb5760405163981a2a2b60e01b815260040160405180910390fd5b6000670de0b6b3a7640000600354856102149190610722565b61021e919061073f565b90506000612710600254836102339190610722565b61023d919061073f565b90506102498183610761565b92508383101561026c576040516307dd37f760e41b815260040160405180910390fd5b6102816001600160a01b038716333088610479565b6102b56001600160a01b037f00000000000000000000000000000000000000000000000000000000000000001633856104ac565b50509392505050565b6102c66104dd565b6102d0600061050a565b565b6102da6104dd565b600255565b6001600160a01b03831660009081526001602052604081205460ff166103185760405163981a2a2b60e01b815260040160405180910390fd5b60035460009061033085670de0b6b3a7640000610722565b61033a919061073f565b905060006127106002548361034f9190610722565b610359919061073f565b90506103658183610761565b925083831015610388576040516307dd37f760e41b815260040160405180910390fd5b6103bd6001600160a01b037f000000000000000000000000000000000000000000000000000000000000000016333088610479565b6102b56001600160a01b03871633856104ac565b6103d96104dd565b6001600160a01b03919091166000908152600160205260409020805460ff1916911515919091179055565b61040c6104dd565b6001600160a01b03811661043f576000604051631e4fbdf760e01b81526004016104369190610632565b60405180910390fd5b6104488161050a565b50565b6104536104dd565b806000036104745760405163fd1ee34960e01b815260040160405180910390fd5b600355565b61048784848484600161055a565b6104a65783604051635274afe760e01b81526004016104369190610632565b50505050565b6104b983838360016105cc565b6104d85782604051635274afe760e01b81526004016104369190610632565b505050565b6000546001600160a01b031633146102d0573360405163118cdaa760e01b81526004016104369190610632565b600080546001600160a01b038381166001600160a01b0319831681178455604051919092169283917f8be0079c531659141344cd1fd0a4f28419497f9722a3daafe3b4186f6b6457e09190a35050565b6040516323b872dd60e01b60008181526001600160a01b038781166004528616602452604485905291602083606481808c5af1925060016000511483166105ba5783831516156105ad573d6000823e3d81fd5b6000883b113d1516831692505b60405250600060605295945050505050565b60405163a9059cbb60e01b60008181526001600160a01b038616600452602485905291602083604481808b5af192506001600051148316610626578383151615610619573d6000823e3d81fd5b6000873b113d1516831692505b60405250949350505050565b6001600160a01b0391909116815260200190565b80356001600160a01b038116811461065d57600080fd5b919050565b60008060006060848603121561067757600080fd5b61068084610646565b95602085013595506040909401359392505050565b6000602082840312156106a757600080fd5b5035919050565b6000602082840312156106c057600080fd5b6106c982610646565b9392505050565b600080604083850312156106e357600080fd5b6106ec83610646565b91506020830135801515811461070157600080fd5b809150509250929050565b634e487b7160e01b600052601160045260246000fd5b80820281158282048414176107395761073961070c565b92915050565b60008261075c57634e487b7160e01b600052601260045260246000fd5b500490565b818103818111156107395761073961070c56fea264697066735822122025b6a6f66f7f22c27f12ab95132cf52863647a62fe59543f7aa55e4a0ccf13c764736f6c63430008180033","opcodes":"PUSH1 0xA0 PUSH1 0x40 MSTORE CALLVALUE DUP1 ISZERO PUSH2 0x10 JUMPI PUSH1 0x0 DUP1 REVERT JUMPDEST POP PUSH1 0x40 MLOAD PUSH2 0x927 CODESIZE SUB DUP1 PUSH2 0x927 DUP4 CODECOPY DUP2 ADD PUSH1 0x40 DUP2 SWAP1 MSTORE PUSH2 0x2F SWAP2 PUSH2 0x10F JUMP JUMPDEST DUP1 PUSH1 0x1 PUSH1 0x1 PUSH1 0xA0 SHL SUB DUP2 AND PUSH2 0x5E JUMPI PUSH1 0x40 MLOAD PUSH4 0x1E4FBDF7 PUSH1 0xE0 SHL DUP2 MSTORE PUSH1 0x0 PUSH1 0x4 DUP3 ADD MSTORE PUSH1 0x24 ADD PUSH1 0x40 MLOAD DUP1 SWAP2 SUB SWAP1 REVERT JUMPDEST PUSH2 0x67 DUP2 PUSH2 0xA3 JUMP JUMPDEST POP DUP3 PUSH1 0x0 SUB PUSH2 0x89 JUMPI PUSH1 0x40 MLOAD PUSH4 0xFD1EE349 PUSH1 0xE0 SHL DUP2 MSTORE PUSH1 0x4 ADD PUSH1 0x40 MLOAD DUP1 SWAP2 SUB SWAP1 REVERT JUMPDEST POP PUSH1 0x1 PUSH1 0x1 PUSH1 0xA0 SHL SUB SWAP1 SWAP3 AND PUSH1 0x80 MSTORE PUSH1 0x3 SSTORE PUSH1 0x2 SSTORE PUSH2 0x155 JUMP JUMPDEST PUSH1 0x0 DUP1 SLOAD PUSH1 0x1 PUSH1 0x1 PUSH1 0xA0 SHL SUB DUP4 DUP2 AND PUSH1 0x1 PUSH1 0x1 PUSH1 0xA0 SHL SUB NOT DUP4 AND DUP2 OR DUP5 SSTORE PUSH1 0x40 MLOAD SWAP2 SWAP1 SWAP3 AND SWAP3 DUP4 SWAP2 PUSH32 0x8BE0079C531659141344CD1FD0A4F28419497F9722A3DAAFE3B4186F6B6457E0 SWAP2 SWAP1 LOG3 POP POP JUMP JUMPDEST DUP1 MLOAD PUSH1 0x1 PUSH1 0x1 PUSH1 0xA0 SHL SUB DUP2 AND DUP2 EQ PUSH2 0x10A JUMPI PUSH1 0x0 DUP1 REVERT JUMPDEST SWAP2 SWAP1 POP JUMP JUMPDEST PUSH1 0x0 DUP1 PUSH1 0x0 DUP1 PUSH1 0x80 DUP6 DUP8 SUB SLT ISZERO PUSH2 0x125 JUMPI PUSH1 0x0 DUP1 REVERT JUMPDEST PUSH2 0x12E DUP6 PUSH2 0xF3 JUMP JUMPDEST SWAP4 POP PUSH1 0x20 DUP6 ADD MLOAD SWAP3 POP PUSH1 0x40 DUP6 ADD MLOAD SWAP2 POP PUSH2 0x14A PUSH1 0x60 DUP7 ADD PUSH2 0xF3 JUMP JUMPDEST SWAP1 POP SWAP3 SWAP6 SWAP2 SWAP5 POP SWAP3 POP JUMP JUMPDEST PUSH1 0x80 MLOAD PUSH2 0x7AA PUSH2 0x17D PUSH1 0x0 CODECOPY PUSH1 0x0 DUP2 DUP2 PUSH1 0xCA ADD MSTORE DUP2 DUP2 PUSH2 0x28E ADD MSTORE PUSH2 0x395 ADD MSTORE PUSH2 0x7AA PUSH1 0x0 RETURN INVALID PUSH1 0x80 PUSH1 0x40 MSTORE CALLVALUE DUP1 ISZERO PUSH2 0x10 JUMPI PUSH1 0x0 DUP1 REVERT JUMPDEST POP PUSH1 0x4 CALLDATASIZE LT PUSH2 0xA4 JUMPI PUSH1 0x0 CALLDATALOAD PUSH1 0xE0 SHR DUP1 PUSH4 0x24A9D853 EQ PUSH2 0xA9 JUMPI DUP1 PUSH4 0x3013CE29 EQ PUSH2 0xC5 JUMPI DUP1 PUSH4 0x6A272462 EQ PUSH2 0xF9 JUMPI DUP1 PUSH4 0x715018A6 EQ PUSH2 0x10C JUMPI DUP1 PUSH4 0x72C27B62 EQ PUSH2 0x116 JUMPI DUP1 PUSH4 0x8DA5CB5B EQ PUSH2 0x129 JUMPI DUP1 PUSH4 0xA59AC6DD EQ PUSH2 0x13A JUMPI DUP1 PUSH4 0xD82E66FA EQ PUSH2 0x14D JUMPI DUP1 PUSH4 0xEF76E2EE EQ PUSH2 0x180 JUMPI DUP1 PUSH4 0xF293C598 EQ PUSH2 0x193 JUMPI DUP1 PUSH4 0xF2FDE38B EQ PUSH2 0x19C JUMPI DUP1 PUSH4 0xFC4E88F5 EQ PUSH2 0x1AF JUMPI JUMPDEST PUSH1 0x0 DUP1 REVERT JUMPDEST PUSH2 0xB2 PUSH1 0x2 SLOAD DUP2 JUMP JUMPDEST PUSH1 0x40 MLOAD SWAP1 DUP2 MSTORE PUSH1 0x20 ADD JUMPDEST PUSH1 0x40 MLOAD DUP1 SWAP2 SUB SWAP1 RETURN JUMPDEST PUSH2 0xEC PUSH32 0x0 DUP2 JUMP JUMPDEST PUSH1 0x40 MLOAD PUSH2 0xBC SWAP2 SWAP1 PUSH2 0x632 JUMP JUMPDEST PUSH2 0xB2 PUSH2 0x107 CALLDATASIZE PUSH1 0x4 PUSH2 0x662 JUMP JUMPDEST PUSH2 0x1C2 JUMP JUMPDEST PUSH2 0x114 PUSH2 0x2BE JUMP JUMPDEST STOP JUMPDEST PUSH2 0x114 PUSH2 0x124 CALLDATASIZE PUSH1 0x4 PUSH2 0x695 JUMP JUMPDEST PUSH2 0x2D2 JUMP JUMPDEST PUSH1 0x0 SLOAD PUSH1 0x1 PUSH1 0x1 PUSH1 0xA0 SHL SUB AND PUSH2 0xEC JUMP JUMPDEST PUSH2 0xB2 PUSH2 0x148 CALLDATASIZE PUSH1 0x4 PUSH2 0x662 JUMP JUMPDEST PUSH2 0x2DF JUMP JUMPDEST PUSH2 0x170 PUSH2 0x15B CALLDATASIZE PUSH1 0x4 PUSH2 0x6AE JUMP JUMPDEST PUSH1 0x1 PUSH1 0x20 MSTORE PUSH1 0x0 SWAP1 DUP2 MSTORE PUSH1 0x40 SWAP1 KECCAK256 SLOAD PUSH1 0xFF AND DUP2 JUMP JUMPDEST PUSH1 0x40 MLOAD SWAP1 ISZERO ISZERO DUP2 MSTORE PUSH1 0x20 ADD PUSH2 0xBC JUMP JUMPDEST PUSH2 0x114 PUSH2 0x18E CALLDATASIZE PUSH1 0x4 PUSH2 0x6D0 JUMP JUMPDEST PUSH2 0x3D1 JUMP JUMPDEST PUSH2 0xB2 PUSH1 0x3 SLOAD DUP2 JUMP JUMPDEST PUSH2 0x114 PUSH2 0x1AA CALLDATASIZE PUSH1 0x4 PUSH2 0x6AE JUMP JUMPDEST PUSH2 0x404 JUMP JUMPDEST PUSH2 0x114 PUSH2 0x1BD CALLDATASIZE PUSH1 0x4 PUSH2 0x695 JUMP JUMPDEST PUSH2 0x44B JUMP JUMPDEST PUSH1 0x1 PUSH1 0x1 PUSH1 0xA0 SHL SUB DUP4 AND PUSH1 0x0 SWAP1 DUP2 MSTORE PUSH1 0x1 PUSH1 0x20 MSTORE PUSH1 0x40 DUP2 KECCAK256 SLOAD PUSH1 0xFF AND PUSH2 0x1FB JUMPI PUSH1 0x40 MLOAD PUSH4 0x981A2A2B PUSH1 0xE0 SHL DUP2 MSTORE PUSH1 0x4 ADD PUSH1 0x40 MLOAD DUP1 SWAP2 SUB SWAP1 REVERT JUMPDEST PUSH1 0x0 PUSH8 0xDE0B6B3A7640000 PUSH1 0x3 SLOAD DUP6 PUSH2 0x214 SWAP2 SWAP1 PUSH2 0x722 JUMP JUMPDEST PUSH2 0x21E SWAP2 SWAP1 PUSH2 0x73F JUMP JUMPDEST SWAP1 POP PUSH1 0x0 PUSH2 0x2710 PUSH1 0x2 SLOAD DUP4 PUSH2 0x233 SWAP2 SWAP1 PUSH2 0x722 JUMP JUMPDEST PUSH2 0x23D SWAP2 SWAP1 PUSH2 0x73F JUMP JUMPDEST SWAP1 POP PUSH2 0x249 DUP2 DUP4 PUSH2 0x761 JUMP JUMPDEST SWAP3 POP DUP4 DUP4 LT ISZERO PUSH2 0x26C JUMPI PUSH1 0x40 MLOAD PUSH4 0x7DD37F7 PUSH1 0xE4 SHL DUP2 MSTORE PUSH1 0x4 ADD PUSH1 0x40 MLOAD DUP1 SWAP2 SUB SWAP1 REVERT JUMPDEST PUSH2 0x281 PUSH1 0x1 PUSH1 0x1 PUSH1 0xA0 SHL SUB DUP8 AND CALLER ADDRESS DUP9 PUSH2 0x479 JUMP JUMPDEST PUSH2 0x2B5 PUSH1 0x1 PUSH1 0x1 PUSH1 0xA0 SHL SUB PUSH32 0x0 AND CALLER DUP6 PUSH2 0x4AC JUMP JUMPDEST POP POP SWAP4 SWAP3 POP POP POP JUMP JUMPDEST PUSH2 0x2C6 PUSH2 0x4DD JUMP JUMPDEST PUSH2 0x2D0 PUSH1 0x0 PUSH2 0x50A JUMP JUMPDEST JUMP JUMPDEST PUSH2 0x2DA PUSH2 0x4DD JUMP JUMPDEST PUSH1 0x2 SSTORE JUMP JUMPDEST PUSH1 0x1 PUSH1 0x1 PUSH1 0xA0 SHL SUB DUP4 AND PUSH1 0x0 SWAP1 DUP2 MSTORE PUSH1 0x1 PUSH1 0x20 MSTORE PUSH1 0x40 DUP2 KECCAK256 SLOAD PUSH1 0xFF AND PUSH2 0x318 JUMPI PUSH1 0x40 MLOAD PUSH4 0x981A2A2B PUSH1 0xE0 SHL DUP2 MSTORE PUSH1 0x4 ADD PUSH1 0x40 MLOAD DUP1 SWAP2 SUB SWAP1 REVERT JUMPDEST PUSH1 0x3 SLOAD PUSH1 0x0 SWAP1 PUSH2 0x330 DUP6 PUSH8 0xDE0B6B3A7640000 PUSH2 0x722 JUMP JUMPDEST PUSH2 0x33A SWAP2 SWAP1 PUSH2 0x73F JUMP JUMPDEST SWAP1 POP PUSH1 0x0 PUSH2 0x2710 PUSH1 0x2 SLOAD DUP4 PUSH2 0x34F SWAP2 SWAP1 PUSH2 0x722 JUMP JUMPDEST PUSH2 0x359 SWAP2 SWAP1 PUSH2 0x73F JUMP JUMPDEST SWAP1 POP PUSH2 0x365 DUP2 DUP4 PUSH2 0x761 JUMP JUMPDEST SWAP3 POP DUP4 DUP4 LT ISZERO PUSH2 0x388 JUMPI PUSH1 0x40 MLOAD PUSH4 0x7DD37F7 PUSH1 0xE4 SHL DUP2 MSTORE PUSH1 0x4 ADD PUSH1 0x40 MLOAD DUP1 SWAP2 SUB SWAP1 REVERT JUMPDEST PUSH2 0x3BD PUSH1 0x1 PUSH1 0x1 PUSH1 0xA0 SHL SUB PUSH32 0x0 AND CALLER ADDRESS DUP9 PUSH2 0x479 JUMP JUMPDEST PUSH2 0x2B5 PUSH1 0x1 PUSH1 0x1 PUSH1 0xA0 SHL SUB DUP8 AND CALLER DUP6 PUSH2 0x4AC JUMP JUMPDEST PUSH2 0x3D9 PUSH2 0x4DD JUMP JUMPDEST PUSH1 0x1 PUSH1 0x1 PUSH1 0xA0 SHL SUB SWAP2 SWAP1 SWAP2 AND PUSH1 0x0 SWAP1 DUP2 MSTORE PUSH1 0x1 PUSH1 0x20 MSTORE PUSH1 0x40 SWAP1 KECCAK256 DUP1 SLOAD PUSH1 0xFF NOT AND SWAP2 ISZERO ISZERO SWAP2 SWAP1 SWAP2 OR SWAP1 SSTORE JUMP JUMPDEST PUSH2 0x40C PUSH2 0x4DD JUMP JUMPDEST PUSH1 0x1 PUSH1 0x1 PUSH1 0xA0 SHL SUB DUP2 AND PUSH2 0x43F JUMPI PUSH1 0x0 PUSH1 0x40 MLOAD PUSH4 0x1E4FBDF7 PUSH1 0xE0 SHL DUP2 MSTORE PUSH1 0x4 ADD PUSH2 0x436 SWAP2 SWAP1 PUSH2 0x632 JUMP JUMPDEST PUSH1 0x40 MLOAD DUP1 SWAP2 SUB SWAP1 REVERT JUMPDEST PUSH2 0x448 DUP2 PUSH2 0x50A JUMP JUMPDEST POP JUMP JUMPDEST PUSH2 0x453 PUSH2 0x4DD JUMP JUMPDEST DUP1 PUSH1 0x0 SUB PUSH2 0x474 JUMPI PUSH1 0x40 MLOAD PUSH4 0xFD1EE349 PUSH1 0xE0 SHL DUP2 MSTORE PUSH1 0x4 ADD PUSH1 0x40 MLOAD DUP1 SWAP2 SUB SWAP1 REVERT JUMPDEST PUSH1 0x3 SSTORE JUMP JUMPDEST PUSH2 0x487 DUP5 DUP5 DUP5 DUP5 PUSH1 0x1 PUSH2 0x55A JUMP JUMPDEST PUSH2 0x4A6 JUMPI DUP4 PUSH1 0x40 MLOAD PUSH4 0x5274AFE7 PUSH1 0xE0 SHL DUP2 MSTORE PUSH1 0x4 ADD PUSH2 0x436 SWAP2 SWAP1 PUSH2 0x632 JUMP JUMPDEST POP POP POP POP JUMP JUMPDEST PUSH2 0x4B9 DUP4 DUP4 DUP4 PUSH1 0x1 PUSH2 0x5CC JUMP JUMPDEST PUSH2 0x4D8 JUMPI DUP3 PUSH1 0x40 MLOAD PUSH4 0x5274AFE7 PUSH1 0xE0 SHL DUP2 MSTORE PUSH1 0x4 ADD PUSH2 0x436 SWAP2 SWAP1 PUSH2 0x632 JUMP JUMPDEST POP POP POP JUMP JUMPDEST PUSH1 0x0 SLOAD PUSH1 0x1 PUSH1 0x1 PUSH1 0xA0 SHL SUB AND CALLER EQ PUSH2 0x2D0 JUMPI CALLER PUSH1 0x40 MLOAD PUSH4 0x118CDAA7 PUSH1 0xE0 SHL DUP2 MSTORE PUSH1 0x4 ADD PUSH2 0x436 SWAP2 SWAP1 PUSH2 0x632 JUMP JUMPDEST PUSH1 0x0 DUP1 SLOAD PUSH1 0x1 PUSH1 0x1 PUSH1 0xA0 SHL SUB DUP4 DUP2 AND PUSH1 0x1 PUSH1 0x1 PUSH1 0xA0 SHL SUB NOT DUP4 AND DUP2 OR DUP5 SSTORE PUSH1 0x40 MLOAD SWAP2 SWAP1 SWAP3 AND SWAP3 DUP4 SWAP2 PUSH32 0x8BE0079C531659141344CD1FD0A4F28419497F9722A3DAAFE3B4186F6B6457E0 SWAP2 SWAP1 LOG3 POP POP JUMP JUMPDEST PUSH1 0x40 MLOAD PUSH4 0x23B872DD PUSH1 0xE0 SHL PUSH1 0x0 DUP2 DUP2 MSTORE PUSH1 0x1 PUSH1 0x1 PUSH1 0xA0 SHL SUB DUP8 DUP2 AND PUSH1 0x4 MSTORE DUP7 AND PUSH1 0x24 MSTORE PUSH1 0x44 DUP6 SWAP1 MSTORE SWAP2 PUSH1 0x20 DUP4 PUSH1 0x64 DUP2 DUP1 DUP13 GAS CALL SWAP3 POP PUSH1 0x1 PUSH1 0x0 MLOAD EQ DUP4 AND PUSH2 0x5BA JUMPI DUP4 DUP4 ISZERO AND ISZERO PUSH2 0x5AD JUMPI RETURNDATASIZE PUSH1 0x0 DUP3 RETURNDATACOPY RETURNDATASIZE DUP2 REVERT JUMPDEST PUSH1 0x0 DUP9 EXTCODESIZE GT RETURNDATASIZE ISZERO AND DUP4 AND SWAP3 POP JUMPDEST PUSH1 0x40 MSTORE POP PUSH1 0x0 PUSH1 0x60 MSTORE SWAP6 SWAP5 POP POP POP POP POP JUMP JUMPDEST PUSH1 0x40 MLOAD PUSH4 0xA9059CBB PUSH1 0xE0 SHL PUSH1 0x0 DUP2 DUP2 MSTORE PUSH1 0x1 PUSH1 0x1 PUSH1 0xA0 SHL SUB DUP7 AND PUSH1 0x4 MSTORE PUSH1 0x24 DUP6 SWAP1 MSTORE SWAP2 PUSH1 0x20 DUP4 PUSH1 0x44 DUP2 DUP1 DUP12 GAS CALL SWAP3 POP PUSH1 0x1 PUSH1 0x0 MLOAD EQ DUP4 AND PUSH2 0x626 JUMPI DUP4 DUP4 ISZERO AND ISZERO PUSH2 0x619 JUMPI RETURNDATASIZE PUSH1 0x0 DUP3 RETURNDATACOPY RETURNDATASIZE DUP2 REVERT JUMPDEST PUSH1 0x0 DUP8 EXTCODESIZE GT RETURNDATASIZE ISZERO AND DUP4 AND SWAP3 POP JUMPDEST PUSH1 0x40 MSTORE POP SWAP5 SWAP4 POP POP POP POP JUMP JUMPDEST PUSH1 0x1 PUSH1 0x1 PUSH1 0xA0 SHL SUB SWAP2 SWAP1 SWAP2 AND DUP2 MSTORE PUSH1 0x20 ADD SWAP1 JUMP JUMPDEST DUP1 CALLDATALOAD PUSH1 0x1 PUSH1 0x1 PUSH1 0xA0 SHL SUB DUP2 AND DUP2 EQ PUSH2 0x65D JUMPI PUSH1 0x0 DUP1 REVERT JUMPDEST SWAP2 SWAP1 POP JUMP JUMPDEST PUSH1 0x0 DUP1 PUSH1 0x0 PUSH1 0x60 DUP5 DUP7 SUB SLT ISZERO PUSH2 0x677 JUMPI PUSH1 0x0 DUP1 REVERT JUMPDEST PUSH2 0x680 DUP5 PUSH2 0x646 JUMP JUMPDEST SWAP6 PUSH1 0x20 DUP6 ADD CALLDATALOAD SWAP6 POP PUSH1 0x40 SWAP1 SWAP5 ADD CALLDATALOAD SWAP4 SWAP3 POP POP POP JUMP JUMPDEST PUSH1 0x0 PUSH1 0x20 DUP3 DUP5 SUB SLT ISZERO PUSH2 0x6A7 JUMPI PUSH1 0x0 DUP1 REVERT JUMPDEST POP CALLDATALOAD SWAP2 SWAP1 POP JUMP JUMPDEST PUSH1 0x0 PUSH1 0x20 DUP3 DUP5 SUB SLT ISZERO PUSH2 0x6C0 JUMPI PUSH1 0x0 DUP1 REVERT JUMPDEST PUSH2 0x6C9 DUP3 PUSH2 0x646 JUMP JUMPDEST SWAP4 SWAP3 POP POP POP JUMP JUMPDEST PUSH1 0x0 DUP1 PUSH1 0x40 DUP4 DUP6 SUB SLT ISZERO PUSH2 0x6E3 JUMPI PUSH1 0x0 DUP1 REVERT JUMPDEST PUSH2 0x6EC DUP4 PUSH2 0x646 JUMP JUMPDEST SWAP2 POP PUSH1 0x20 DUP4 ADD CALLDATALOAD DUP1 ISZERO ISZERO DUP2 EQ PUSH2 0x701 JUMPI PUSH1 0x0 DUP1 REVERT JUMPDEST DUP1 SWAP2 POP POP SWAP3 POP SWAP3 SWAP1 POP JUMP JUMPDEST PUSH4 0x4E487B71 PUSH1 0xE0 SHL PUSH1 0x0 MSTORE PUSH1 0x11 PUSH1 0x4 MSTORE PUSH1 0x24 PUSH1 0x0 REVERT JUMPDEST DUP1 DUP3 MUL DUP2 ISZERO DUP3 DUP3 DIV DUP5 EQ OR PUSH2 0x739 JUMPI PUSH2 0x739 PUSH2 0x70C JUMP JUMPDEST SWAP3 SWAP2 POP POP JUMP JUMPDEST PUSH1 0x0 DUP3 PUSH2 0x75C JUMPI PUSH4 0x4E487B71 PUSH1 0xE0 SHL PUSH1 0x0 MSTORE PUSH1 0x12 PUSH1 0x4 MSTORE PUSH1 0x24 PUSH1 0x0 REVERT JUMPDEST POP DIV SWAP1 JUMP JUMPDEST DUP2 DUP2 SUB DUP2 DUP2 GT ISZERO PUSH2 0x739 JUMPI PUSH2 0x739 PUSH2 0x70C JUMP INVALID LOG2 PUSH5 0x6970667358 0x22 SLT KECCAK256 0x25 0xB6 0xA6 0xF6 PUSH16 0x7F22C27F12AB95132CF52863647A62FE MSIZE SLOAD EXTCODEHASH PUSH27 0xA55E4A0CCF13C764736F6C63430008180033000000000000000000 "},"gasEstimates":{"creation":{"codeDepositCost":"392400","executionCost":"infinite","totalCost":"infinite"},"external":{"buy(address,uint256,uint256)":"infinite","feeBps()":"2262","owner()":"2443","paymentToken()":"infinite","renounceOwnership()":"infinite","sell(address,uint256,uint256)":"infinite","setFeeBps(uint256)":"24554","setStablePerAssetE18(uint256)":"24731","setSupportedAsset(address,bool)":"27012","stablePerAssetE18()":"2460","supportedAsset(address)":"2663","transferOwnership(address)":"28531"}},"methodIdentifiers":{"buy(address,uint256,uint256)":"a59ac6dd","feeBps()":"24a9d853","owner()":"8da5cb5b","paymentToken()":"3013ce29","renounceOwnership()":"715018a6","sell(address,uint256,uint256)":"6a272462","setFeeBps(uint256)":"72c27b62","setStablePerAssetE18(uint256)":"fc4e88f5","setSupportedAsset(address,bool)":"ef76e2ee","stablePerAssetE18()":"f293c598","supportedAsset(address)":"d82e66fa","transferOwnership(address)":"f2fde38b"}},"storageLayout":{"storage":[{"astId":8,"contract":"contracts/assetsManagers/MockUniswapLikeManager.sol:MockUniswapLikeManager","label":"_owner","offset":0,"slot":"0","type":"t_address"},{"astId":2303,"contract":"contracts/assetsManagers/MockUniswapLikeManager.sol:MockUniswapLikeManager","label":"supportedAsset","offset":0,"slot":"1","type":"t_mapping(t_address,t_bool)"},{"astId":2305,"contract":"contracts/assetsManagers/MockUniswapLikeManager.sol:MockUniswapLikeManager","label":"feeBps","offset":0,"slot":"2","type":"t_uint256"},{"astId":2307,"contract":"contracts/assetsManagers/MockUniswapLikeManager.sol:MockUniswapLikeManager","label":"stablePerAssetE18","offset":0,"slot":"3","type":"t_uint256"}],"types":{"t_address":{"encoding":"inplace","label":"address","numberOfBytes":"20"},"t_bool":{"encoding":"inplace","label":"bool","numberOfBytes":"1"},"t_mapping(t_address,t_bool)":{"encoding":"mapping","key":"t_address","label":"mapping(address => bool)","numberOfBytes":"32","value":"t_bool"},"t_uint256":{"encoding":"inplace","label":"uint256","numberOfBytes":"32"}}},"userdoc":{"kind":"user","methods":{},"version":1}}}}