{"contracts/InternalSystem/InternalSystem.sol":{"InternalSystem":{"abi":[{"inputs":[{"internalType":"address","name":"paymentToken_","type":"address"},{"internalType":"address","name":"initialOwner","type":"address"}],"stateMutability":"nonpayable","type":"constructor"},{"inputs":[],"name":"BadCalldata","type":"error"},{"inputs":[{"internalType":"bytes","name":"reason","type":"bytes"}],"name":"CallFailed","type":"error"},{"inputs":[],"name":"InsufficientFree","type":"error"},{"inputs":[],"name":"InsufficientPosition","type":"error"},{"inputs":[],"name":"NotOwnerForGenericExecute","type":"error"},{"inputs":[],"name":"OnlyZeroValue","type":"error"},{"inputs":[{"internalType":"address","name":"owner","type":"address"}],"name":"OwnableInvalidOwner","type":"error"},{"inputs":[{"internalType":"address","name":"account","type":"address"}],"name":"OwnableUnauthorizedAccount","type":"error"},{"inputs":[{"internalType":"address","name":"token","type":"address"}],"name":"SafeERC20FailedOperation","type":"error"},{"inputs":[],"name":"TargetNotAllowed","type":"error"},{"anonymous":false,"inputs":[{"indexed":true,"internalType":"address","name":"user","type":"address"},{"indexed":true,"internalType":"address","name":"manager","type":"address"},{"indexed":true,"internalType":"address","name":"assetToken","type":"address"},{"indexed":false,"internalType":"uint256","name":"paymentIn","type":"uint256"},{"indexed":false,"internalType":"uint256","name":"assetOut","type":"uint256"}],"name":"Bought","type":"event"},{"anonymous":false,"inputs":[{"indexed":true,"internalType":"address","name":"user","type":"address"},{"indexed":false,"internalType":"uint256","name":"amount","type":"uint256"}],"name":"Deposited","type":"event"},{"anonymous":false,"inputs":[{"indexed":true,"internalType":"address","name":"user","type":"address"},{"indexed":true,"internalType":"address","name":"target","type":"address"},{"indexed":true,"internalType":"bytes4","name":"selector","type":"bytes4"},{"indexed":false,"internalType":"uint256","name":"value","type":"uint256"}],"name":"Execute","type":"event"},{"anonymous":false,"inputs":[{"indexed":true,"internalType":"address","name":"previousOwner","type":"address"},{"indexed":true,"internalType":"address","name":"newOwner","type":"address"}],"name":"OwnershipTransferred","type":"event"},{"anonymous":false,"inputs":[{"indexed":true,"internalType":"address","name":"user","type":"address"},{"indexed":true,"internalType":"address","name":"manager","type":"address"},{"indexed":true,"internalType":"address","name":"assetToken","type":"address"},{"indexed":false,"internalType":"uint256","name":"assetIn","type":"uint256"},{"indexed":false,"internalType":"uint256","name":"paymentOut","type":"uint256"}],"name":"Sold","type":"event"},{"anonymous":false,"inputs":[{"indexed":true,"internalType":"address","name":"user","type":"address"},{"indexed":false,"internalType":"uint256","name":"amount","type":"uint256"}],"name":"SoldToFree","type":"event"},{"anonymous":false,"inputs":[{"indexed":true,"internalType":"address","name":"target","type":"address"},{"indexed":false,"internalType":"bool","name":"allowed","type":"bool"}],"name":"TargetAllowed","type":"event"},{"anonymous":false,"inputs":[{"indexed":true,"internalType":"address","name":"user","type":"address"},{"indexed":false,"internalType":"uint256","name":"amount","type":"uint256"}],"name":"Withdrawn","type":"event"},{"inputs":[{"internalType":"address","name":"","type":"address"}],"name":"allowedTarget","outputs":[{"internalType":"bool","name":"","type":"bool"}],"stateMutability":"view","type":"function"},{"inputs":[{"internalType":"address","name":"user","type":"address"}],"name":"balancesOf","outputs":[{"components":[{"internalType":"uint256","name":"free","type":"uint256"},{"internalType":"uint256","name":"got","type":"uint256"},{"internalType":"uint256","name":"sold","type":"uint256"},{"internalType":"uint256","name":"out","type":"uint256"}],"internalType":"struct InternalSystem.Balances","name":"","type":"tuple"}],"stateMutability":"view","type":"function"},{"inputs":[{"internalType":"uint256","name":"amount","type":"uint256"}],"name":"deposit","outputs":[],"stateMutability":"nonpayable","type":"function"},{"inputs":[{"internalType":"address","name":"target","type":"address"},{"internalType":"uint256","name":"value","type":"uint256"},{"internalType":"bytes","name":"data","type":"bytes"}],"name":"execute","outputs":[{"internalType":"bytes","name":"result","type":"bytes"}],"stateMutability":"nonpayable","type":"function"},{"inputs":[{"internalType":"uint256","name":"amount","type":"uint256"}],"name":"moveSoldToFree","outputs":[],"stateMutability":"nonpayable","type":"function"},{"inputs":[],"name":"owner","outputs":[{"internalType":"address","name":"","type":"address"}],"stateMutability":"view","type":"function"},{"inputs":[],"name":"paymentToken","outputs":[{"internalType":"contract IERC20","name":"","type":"address"}],"stateMutability":"view","type":"function"},{"inputs":[{"internalType":"address","name":"user","type":"address"},{"internalType":"address","name":"assetToken","type":"address"}],"name":"positionOf","outputs":[{"internalType":"uint256","name":"","type":"uint256"}],"stateMutability":"view","type":"function"},{"inputs":[],"name":"renounceOwnership","outputs":[],"stateMutability":"nonpayable","type":"function"},{"inputs":[{"internalType":"address","name":"target","type":"address"},{"internalType":"bool","name":"allowed","type":"bool"}],"name":"setAllowedTarget","outputs":[],"stateMutability":"nonpayable","type":"function"},{"inputs":[{"internalType":"address","name":"newOwner","type":"address"}],"name":"transferOwnership","outputs":[],"stateMutability":"nonpayable","type":"function"},{"inputs":[{"internalType":"uint256","name":"amount","type":"uint256"}],"name":"withdraw","outputs":[],"stateMutability":"nonpayable","type":"function"}],"devdoc":{"errors":{"OwnableInvalidOwner(address)":[{"details":"The owner is not a valid owner account. (eg. `address(0)`)"}],"OwnableUnauthorizedAccount(address)":[{"details":"The caller account is not authorized to perform an operation."}],"SafeERC20FailedOperation(address)":[{"details":"An operation with an ERC-20 token failed."}]},"kind":"dev","methods":{"owner()":{"details":"Returns the address of the current owner."},"renounceOwnership()":{"details":"Leaves the contract without owner. It will not be possible to call `onlyOwner` functions. Can only be called by the current owner. NOTE: Renouncing ownership will leave the contract without an owner, thereby disabling any functionality that is only available to the owner."},"transferOwnership(address)":{"details":"Transfers ownership of the contract to a new account (`newOwner`). Can only be called by the current owner."}},"version":1},"evm":{"bytecode":{"linkReferences":{},"object":"60a060405234801561001057600080fd5b506040516200134938038062001349833981016040819052610031916100e8565b806001600160a01b03811661006057604051631e4fbdf760e01b81526000600482015260240160405180910390fd5b6100698161007c565b50506001600160a01b031660805261011b565b600080546001600160a01b038381166001600160a01b0319831681178455604051919092169283917f8be0079c531659141344cd1fd0a4f28419497f9722a3daafe3b4186f6b6457e09190a35050565b80516001600160a01b03811681146100e357600080fd5b919050565b600080604083850312156100fb57600080fd5b610104836100cc565b9150610112602084016100cc565b90509250929050565b6080516111fe6200014b6000396000818160d601528181610260015281816106cc01526108f101526111fe6000f3fe608060405234801561001057600080fd5b50600436106100a45760003560e01c80632e1a7d4d146100a95780632fc8830f146100be5780633013ce29146100d15780635f39f8921461010e5780636392a51f14610141578063715018a614610187578063892f928e1461018f5780638da5cb5b146101b0578063b61d27f6146101b8578063b6b55f25146101d8578063ca1dd22e146101eb578063f2fde38b146101fe575b600080fd5b6100bc6100b7366004610f00565b610211565b005b6100bc6100cc366004610f00565b6102c1565b6100f87f000000000000000000000000000000000000000000000000000000000000000081565b6040516101059190610f19565b60405180910390f35b61013161011c366004610f42565b60036020526000908152604090205460ff1681565b6040519015158152602001610105565b61015461014f366004610f42565b610338565b60405161010591908151815260208083015190820152604080830151908201526060918201519181019190915260800190565b6100bc6103b0565b6101a261019d366004610f66565b6103c4565b604051908152602001610105565b6100f86103f1565b6101cb6101c6366004610f9f565b610400565b604051610105919061104c565b6100bc6101e6366004610f00565b6106bf565b6100bc6101f936600461107f565b610750565b6100bc61020c366004610f42565b6107b0565b33600090815260016020526040902080548211156102425760405163fa9ec97360e01b815260040160405180910390fd5b80548290038155600381018054830190556102876001600160a01b037f00000000000000000000000000000000000000000000000000000000000000001633846107ee565b60405182815233907f7084f5476618d8e60b11ef0d7d3f06914655adb8793e28ff7f018d4c76d505d5906020015b60405180910390a25050565b33600090815260016020526040902060028101548211156102f55760405163fa9ec97360e01b815260040160405180910390fd5b600281018054839003905580548201815560405182815233907f7a3ea96721ab769446edd792ffc4106550c7a983d80d1dcd2853747bfc09e8bd906020016102b5565b6103636040518060800160405280600081526020016000815260200160008152602001600081525090565b506001600160a01b03166000908152600160208181526040928390208351608081018552815481529281015491830191909152600281015492820192909252600390910154606082015290565b6103b861081f565b6103c26000610851565b565b6001600160a01b038083166000908152600260209081526040808320938516835292905220545b92915050565b6000546001600160a01b031690565b6001600160a01b03841660009081526003602052604090205460609060ff1661043c576040516348cbf26d60e01b815260040160405180910390fd5b831561045b57604051631eae938960e11b815260040160405180910390fd5b600482101561047d5760405163068b856560e21b815260040160405180910390fd5b600061048c60048285876110b2565b610495916110dc565b9050806001600160e01b031916866001600160a01b0316336001600160a01b03167f617529f582f57b4019d1afd3244f10b9f046a08d3892ec9891b5ea0a5f77aeff886040516104e791815260200190565b60405180910390a4635a65392360e01b6001600160e01b031982160161057f5760008080610518866004818a6110b2565b810190610525919061110c565b925092509250610538338a8585856108a1565b3360009081526002602090815260408083206001600160a01b038716845282529182902054825191820152015b6040516020818303038152906040529450505050506106b7565b634aec6dcf60e11b6001600160e01b03198216016105eb57600080806105a8866004818a6110b2565b8101906105b5919061110c565b9250925092506105c8338a858585610a8e565b336000908152600160209081526040918290206002015482519182015201610565565b6105f36103f1565b6001600160a01b0316336001600160a01b03161461062457604051631b1c465b60e31b815260040160405180910390fd5b600080876001600160a01b0316878787604051610642929190611141565b60006040518083038185875af1925050503d806000811461067f576040519150601f19603f3d011682016040523d82523d6000602084013e610684565b606091505b5091509150816106b2578060405163a5fa8d2b60e01b81526004016106a9919061104c565b60405180910390fd5b925050505b949350505050565b6106f46001600160a01b037f000000000000000000000000000000000000000000000000000000000000000016333084610cad565b3360009081526001602052604081208054839290610713908490611151565b909155505060405181815233907f2da466a7b24304f47e87fa2e1e5a81b9831ce54fec19055ce277ca2f39ba42c49060200160405180910390a250565b61075861081f565b6001600160a01b038216600081815260036020908152604091829020805460ff191685151590811790915591519182527fa15b89ddfd4f8f39b42c00d0e35440aa574da8d20d9e1d886e42edf16ce9ad4c91016102b5565b6107b861081f565b6001600160a01b0381166107e2576000604051631e4fbdf760e01b81526004016106a99190610f19565b6107eb81610851565b50565b6107fb8383836001610ce0565b61081a5782604051635274afe760e01b81526004016106a99190610f19565b505050565b336108286103f1565b6001600160a01b0316146103c2573360405163118cdaa760e01b81526004016106a99190610f19565b600080546001600160a01b038381166001600160a01b0319831681178455604051919092169283917f8be0079c531659141344cd1fd0a4f28419497f9722a3daafe3b4186f6b6457e09190a35050565b6001600160a01b038516600090815260016020526040902080548311156108db5760405163fa9ec97360e01b815260040160405180910390fd5b80548390038155600181018054840190556109177f00000000000000000000000000000000000000000000000000000000000000008685610d46565b600084848460405160240161092e93929190611172565b60408051601f198184030181529181526020820180516001600160e01b031663a59ac6dd60e01b1790525190915060009081906001600160a01b03891690610977908590611193565b6000604051808303816000865af19150503d80600081146109b4576040519150601f19603f3d011682016040523d82523d6000602084013e6109b9565b606091505b5091509150816109de578060405163a5fa8d2b60e01b81526004016106a9919061104c565b6000818060200190518101906109f491906111af565b6001600160a01b03808c166000908152600260209081526040808320938d16835292905290812080549293508392909190610a30908490611151565b909155505060408051888152602081018390526001600160a01b03808b16928c821692918e16917fe7804cc8b53dc839e6771b33c9cadfcc8e85986e3b8dd5058bf3753f92ea36f5910160405180910390a450505050505050505050565b6001600160a01b0380861660009081526002602090815260408083209387168352929052205482811015610ad557604051633289c42960e11b815260040160405180910390fd5b6001600160a01b0380871660009081526002602090815260408083209388168352929052208382039055610b0a848685610d46565b6000848484604051602401610b2193929190611172565b60408051601f198184030181529181526020820180516001600160e01b0316633513923160e11b1790525190915060009081906001600160a01b03891690610b6a908590611193565b6000604051808303816000865af19150503d8060008114610ba7576040519150601f19603f3d011682016040523d82523d6000602084013e610bac565b606091505b509150915081610bd1578060405163a5fa8d2b60e01b81526004016106a9919061104c565b600081806020019051810190610be791906111af565b6001600160a01b038b1660009081526001602052604081206002810180549394509092849290610c18908490611151565b909155505060018101548211610c38576001810180548390039055610c40565b600060018201555b886001600160a01b03168a6001600160a01b03168c6001600160a01b03167f5764dbcef91eb6f946584f4ea671217c686fa7e858ce4f9f42d08422b86556a98b86604051610c98929190918252602082015260400190565b60405180910390a45050505050505050505050565b610cbb848484846001610dfa565b610cda5783604051635274afe760e01b81526004016106a99190610f19565b50505050565b60405163a9059cbb60e01b60008181526001600160a01b038616600452602485905291602083604481808b5af192506001600051148316610d3a578383151615610d2d573d6000823e3d81fd5b6000873b113d1516831692505b60405250949350505050565b604051636eb1769f60e11b81523060048201526001600160a01b0383811660248301526000919085169063dd62ed3e90604401602060405180830381865afa158015610d96573d6000803e3d6000fd5b505050506040513d601f19601f82011682018060405250810190610dba91906111af565b9050818110610dc95750505050565b8015610de457610de46001600160a01b038516846000610e6c565b610cda6001600160a01b03851684600019610e6c565b6040516323b872dd60e01b60008181526001600160a01b038781166004528616602452604485905291602083606481808c5af192506001600051148316610e5a578383151615610e4d573d6000823e3d81fd5b6000883b113d1516831692505b60405250600060605295945050505050565b610e798383836000610eb3565b61081a57610e8b838360006001610eb3565b610eaa5782604051635274afe760e01b81526004016106a99190610f19565b6107fb83838360015b60405163095ea7b360e01b60008181526001600160a01b038616600452602485905291602083604481808b5af192506001600051148316610d3a578383151615610d2d573d6000823e3d81fd5b600060208284031215610f1257600080fd5b5035919050565b6001600160a01b0391909116815260200190565b6001600160a01b03811681146107eb57600080fd5b600060208284031215610f5457600080fd5b8135610f5f81610f2d565b9392505050565b60008060408385031215610f7957600080fd5b8235610f8481610f2d565b91506020830135610f9481610f2d565b809150509250929050565b60008060008060608587031215610fb557600080fd5b8435610fc081610f2d565b935060208501359250604085013567ffffffffffffffff80821115610fe457600080fd5b818701915087601f830112610ff857600080fd5b81358181111561100757600080fd5b88602082850101111561101957600080fd5b95989497505060200194505050565b60005b8381101561104357818101518382015260200161102b565b50506000910152565b602081526000825180602084015261106b816040850160208701611028565b601f01601f19169190910160400192915050565b6000806040838503121561109257600080fd5b823561109d81610f2d565b915060208301358015158114610f9457600080fd5b600080858511156110c257600080fd5b838611156110cf57600080fd5b5050820193919092039150565b6001600160e01b031981358181169160048510156111045780818660040360031b1b83161692505b505092915050565b60008060006060848603121561112157600080fd5b833561112c81610f2d565b95602085013595506040909401359392505050565b8183823760009101908152919050565b808201808211156103eb57634e487b7160e01b600052601160045260246000fd5b6001600160a01b039390931683526020830191909152604082015260600190565b600082516111a5818460208701611028565b9190910192915050565b6000602082840312156111c157600080fd5b505191905056fea26469706673582212204f68e217bc3ff8e7767d1dacd1a329f4368d88d7e6f2626e636efc58db6e495564736f6c63430008180033","opcodes":"PUSH1 0xA0 PUSH1 0x40 MSTORE CALLVALUE DUP1 ISZERO PUSH2 0x10 JUMPI PUSH1 0x0 DUP1 REVERT JUMPDEST POP PUSH1 0x40 MLOAD PUSH3 0x1349 CODESIZE SUB DUP1 PUSH3 0x1349 DUP4 CODECOPY DUP2 ADD PUSH1 0x40 DUP2 SWAP1 MSTORE PUSH2 0x31 SWAP2 PUSH2 0xE8 JUMP JUMPDEST DUP1 PUSH1 0x1 PUSH1 0x1 PUSH1 0xA0 SHL SUB DUP2 AND PUSH2 0x60 JUMPI PUSH1 0x40 MLOAD PUSH4 0x1E4FBDF7 PUSH1 0xE0 SHL DUP2 MSTORE PUSH1 0x0 PUSH1 0x4 DUP3 ADD MSTORE PUSH1 0x24 ADD PUSH1 0x40 MLOAD DUP1 SWAP2 SUB SWAP1 REVERT JUMPDEST PUSH2 0x69 DUP2 PUSH2 0x7C JUMP JUMPDEST POP POP PUSH1 0x1 PUSH1 0x1 PUSH1 0xA0 SHL SUB AND PUSH1 0x80 MSTORE PUSH2 0x11B JUMP JUMPDEST PUSH1 0x0 DUP1 SLOAD PUSH1 0x1 PUSH1 0x1 PUSH1 0xA0 SHL SUB DUP4 DUP2 AND PUSH1 0x1 PUSH1 0x1 PUSH1 0xA0 SHL SUB NOT DUP4 AND DUP2 OR DUP5 SSTORE PUSH1 0x40 MLOAD SWAP2 SWAP1 SWAP3 AND SWAP3 DUP4 SWAP2 PUSH32 0x8BE0079C531659141344CD1FD0A4F28419497F9722A3DAAFE3B4186F6B6457E0 SWAP2 SWAP1 LOG3 POP POP JUMP JUMPDEST DUP1 MLOAD PUSH1 0x1 PUSH1 0x1 PUSH1 0xA0 SHL SUB DUP2 AND DUP2 EQ PUSH2 0xE3 JUMPI PUSH1 0x0 DUP1 REVERT JUMPDEST SWAP2 SWAP1 POP JUMP JUMPDEST PUSH1 0x0 DUP1 PUSH1 0x40 DUP4 DUP6 SUB SLT ISZERO PUSH2 0xFB JUMPI PUSH1 0x0 DUP1 REVERT JUMPDEST PUSH2 0x104 DUP4 PUSH2 0xCC JUMP JUMPDEST SWAP2 POP PUSH2 0x112 PUSH1 0x20 DUP5 ADD PUSH2 0xCC JUMP JUMPDEST SWAP1 POP SWAP3 POP SWAP3 SWAP1 POP JUMP JUMPDEST PUSH1 0x80 MLOAD PUSH2 0x11FE PUSH3 0x14B PUSH1 0x0 CODECOPY PUSH1 0x0 DUP2 DUP2 PUSH1 0xD6 ADD MSTORE DUP2 DUP2 PUSH2 0x260 ADD MSTORE DUP2 DUP2 PUSH2 0x6CC ADD MSTORE PUSH2 0x8F1 ADD MSTORE PUSH2 0x11FE PUSH1 0x0 RETURN INVALID PUSH1 0x80 PUSH1 0x40 MSTORE CALLVALUE DUP1 ISZERO PUSH2 0x10 JUMPI PUSH1 0x0 DUP1 REVERT JUMPDEST POP PUSH1 0x4 CALLDATASIZE LT PUSH2 0xA4 JUMPI PUSH1 0x0 CALLDATALOAD PUSH1 0xE0 SHR DUP1 PUSH4 0x2E1A7D4D EQ PUSH2 0xA9 JUMPI DUP1 PUSH4 0x2FC8830F EQ PUSH2 0xBE JUMPI DUP1 PUSH4 0x3013CE29 EQ PUSH2 0xD1 JUMPI DUP1 PUSH4 0x5F39F892 EQ PUSH2 0x10E JUMPI DUP1 PUSH4 0x6392A51F EQ PUSH2 0x141 JUMPI DUP1 PUSH4 0x715018A6 EQ PUSH2 0x187 JUMPI DUP1 PUSH4 0x892F928E EQ PUSH2 0x18F JUMPI DUP1 PUSH4 0x8DA5CB5B EQ PUSH2 0x1B0 JUMPI DUP1 PUSH4 0xB61D27F6 EQ PUSH2 0x1B8 JUMPI DUP1 PUSH4 0xB6B55F25 EQ PUSH2 0x1D8 JUMPI DUP1 PUSH4 0xCA1DD22E EQ PUSH2 0x1EB JUMPI DUP1 PUSH4 0xF2FDE38B EQ PUSH2 0x1FE JUMPI JUMPDEST PUSH1 0x0 DUP1 REVERT JUMPDEST PUSH2 0xBC PUSH2 0xB7 CALLDATASIZE PUSH1 0x4 PUSH2 0xF00 JUMP JUMPDEST PUSH2 0x211 JUMP JUMPDEST STOP JUMPDEST PUSH2 0xBC PUSH2 0xCC CALLDATASIZE PUSH1 0x4 PUSH2 0xF00 JUMP JUMPDEST PUSH2 0x2C1 JUMP JUMPDEST PUSH2 0xF8 PUSH32 0x0 DUP2 JUMP JUMPDEST PUSH1 0x40 MLOAD PUSH2 0x105 SWAP2 SWAP1 PUSH2 0xF19 JUMP JUMPDEST PUSH1 0x40 MLOAD DUP1 SWAP2 SUB SWAP1 RETURN JUMPDEST PUSH2 0x131 PUSH2 0x11C CALLDATASIZE PUSH1 0x4 PUSH2 0xF42 JUMP JUMPDEST PUSH1 0x3 PUSH1 0x20 MSTORE PUSH1 0x0 SWAP1 DUP2 MSTORE PUSH1 0x40 SWAP1 KECCAK256 SLOAD PUSH1 0xFF AND DUP2 JUMP JUMPDEST PUSH1 0x40 MLOAD SWAP1 ISZERO ISZERO DUP2 MSTORE PUSH1 0x20 ADD PUSH2 0x105 JUMP JUMPDEST PUSH2 0x154 PUSH2 0x14F CALLDATASIZE PUSH1 0x4 PUSH2 0xF42 JUMP JUMPDEST PUSH2 0x338 JUMP JUMPDEST PUSH1 0x40 MLOAD PUSH2 0x105 SWAP2 SWAP1 DUP2 MLOAD DUP2 MSTORE PUSH1 0x20 DUP1 DUP4 ADD MLOAD SWAP1 DUP3 ADD MSTORE PUSH1 0x40 DUP1 DUP4 ADD MLOAD SWAP1 DUP3 ADD MSTORE PUSH1 0x60 SWAP2 DUP3 ADD MLOAD SWAP2 DUP2 ADD SWAP2 SWAP1 SWAP2 MSTORE PUSH1 0x80 ADD SWAP1 JUMP JUMPDEST PUSH2 0xBC PUSH2 0x3B0 JUMP JUMPDEST PUSH2 0x1A2 PUSH2 0x19D CALLDATASIZE PUSH1 0x4 PUSH2 0xF66 JUMP JUMPDEST PUSH2 0x3C4 JUMP JUMPDEST PUSH1 0x40 MLOAD SWAP1 DUP2 MSTORE PUSH1 0x20 ADD PUSH2 0x105 JUMP JUMPDEST PUSH2 0xF8 PUSH2 0x3F1 JUMP JUMPDEST PUSH2 0x1CB PUSH2 0x1C6 CALLDATASIZE PUSH1 0x4 PUSH2 0xF9F JUMP JUMPDEST PUSH2 0x400 JUMP JUMPDEST PUSH1 0x40 MLOAD PUSH2 0x105 SWAP2 SWAP1 PUSH2 0x104C JUMP JUMPDEST PUSH2 0xBC PUSH2 0x1E6 CALLDATASIZE PUSH1 0x4 PUSH2 0xF00 JUMP JUMPDEST PUSH2 0x6BF JUMP JUMPDEST PUSH2 0xBC PUSH2 0x1F9 CALLDATASIZE PUSH1 0x4 PUSH2 0x107F JUMP JUMPDEST PUSH2 0x750 JUMP JUMPDEST PUSH2 0xBC PUSH2 0x20C CALLDATASIZE PUSH1 0x4 PUSH2 0xF42 JUMP JUMPDEST PUSH2 0x7B0 JUMP JUMPDEST CALLER PUSH1 0x0 SWAP1 DUP2 MSTORE PUSH1 0x1 PUSH1 0x20 MSTORE PUSH1 0x40 SWAP1 KECCAK256 DUP1 SLOAD DUP3 GT ISZERO PUSH2 0x242 JUMPI PUSH1 0x40 MLOAD PUSH4 0xFA9EC973 PUSH1 0xE0 SHL DUP2 MSTORE PUSH1 0x4 ADD PUSH1 0x40 MLOAD DUP1 SWAP2 SUB SWAP1 REVERT JUMPDEST DUP1 SLOAD DUP3 SWAP1 SUB DUP2 SSTORE PUSH1 0x3 DUP2 ADD DUP1 SLOAD DUP4 ADD SWAP1 SSTORE PUSH2 0x287 PUSH1 0x1 PUSH1 0x1 PUSH1 0xA0 SHL SUB PUSH32 0x0 AND CALLER DUP5 PUSH2 0x7EE JUMP JUMPDEST PUSH1 0x40 MLOAD DUP3 DUP2 MSTORE CALLER SWAP1 PUSH32 0x7084F5476618D8E60B11EF0D7D3F06914655ADB8793E28FF7F018D4C76D505D5 SWAP1 PUSH1 0x20 ADD JUMPDEST PUSH1 0x40 MLOAD DUP1 SWAP2 SUB SWAP1 LOG2 POP POP JUMP JUMPDEST CALLER PUSH1 0x0 SWAP1 DUP2 MSTORE PUSH1 0x1 PUSH1 0x20 MSTORE PUSH1 0x40 SWAP1 KECCAK256 PUSH1 0x2 DUP2 ADD SLOAD DUP3 GT ISZERO PUSH2 0x2F5 JUMPI PUSH1 0x40 MLOAD PUSH4 0xFA9EC973 PUSH1 0xE0 SHL DUP2 MSTORE PUSH1 0x4 ADD PUSH1 0x40 MLOAD DUP1 SWAP2 SUB SWAP1 REVERT JUMPDEST PUSH1 0x2 DUP2 ADD DUP1 SLOAD DUP4 SWAP1 SUB SWAP1 SSTORE DUP1 SLOAD DUP3 ADD DUP2 SSTORE PUSH1 0x40 MLOAD DUP3 DUP2 MSTORE CALLER SWAP1 PUSH32 0x7A3EA96721AB769446EDD792FFC4106550C7A983D80D1DCD2853747BFC09E8BD SWAP1 PUSH1 0x20 ADD PUSH2 0x2B5 JUMP JUMPDEST PUSH2 0x363 PUSH1 0x40 MLOAD DUP1 PUSH1 0x80 ADD PUSH1 0x40 MSTORE DUP1 PUSH1 0x0 DUP2 MSTORE PUSH1 0x20 ADD PUSH1 0x0 DUP2 MSTORE PUSH1 0x20 ADD PUSH1 0x0 DUP2 MSTORE PUSH1 0x20 ADD PUSH1 0x0 DUP2 MSTORE POP SWAP1 JUMP JUMPDEST POP PUSH1 0x1 PUSH1 0x1 PUSH1 0xA0 SHL SUB AND PUSH1 0x0 SWAP1 DUP2 MSTORE PUSH1 0x1 PUSH1 0x20 DUP2 DUP2 MSTORE PUSH1 0x40 SWAP3 DUP4 SWAP1 KECCAK256 DUP4 MLOAD PUSH1 0x80 DUP2 ADD DUP6 MSTORE DUP2 SLOAD DUP2 MSTORE SWAP3 DUP2 ADD SLOAD SWAP2 DUP4 ADD SWAP2 SWAP1 SWAP2 MSTORE PUSH1 0x2 DUP2 ADD SLOAD SWAP3 DUP3 ADD SWAP3 SWAP1 SWAP3 MSTORE PUSH1 0x3 SWAP1 SWAP2 ADD SLOAD PUSH1 0x60 DUP3 ADD MSTORE SWAP1 JUMP JUMPDEST PUSH2 0x3B8 PUSH2 0x81F JUMP JUMPDEST PUSH2 0x3C2 PUSH1 0x0 PUSH2 0x851 JUMP JUMPDEST JUMP JUMPDEST PUSH1 0x1 PUSH1 0x1 PUSH1 0xA0 SHL SUB DUP1 DUP4 AND PUSH1 0x0 SWAP1 DUP2 MSTORE PUSH1 0x2 PUSH1 0x20 SWAP1 DUP2 MSTORE PUSH1 0x40 DUP1 DUP4 KECCAK256 SWAP4 DUP6 AND DUP4 MSTORE SWAP3 SWAP1 MSTORE KECCAK256 SLOAD JUMPDEST SWAP3 SWAP2 POP POP JUMP JUMPDEST PUSH1 0x0 SLOAD PUSH1 0x1 PUSH1 0x1 PUSH1 0xA0 SHL SUB AND SWAP1 JUMP JUMPDEST PUSH1 0x1 PUSH1 0x1 PUSH1 0xA0 SHL SUB DUP5 AND PUSH1 0x0 SWAP1 DUP2 MSTORE PUSH1 0x3 PUSH1 0x20 MSTORE PUSH1 0x40 SWAP1 KECCAK256 SLOAD PUSH1 0x60 SWAP1 PUSH1 0xFF AND PUSH2 0x43C JUMPI PUSH1 0x40 MLOAD PUSH4 0x48CBF26D PUSH1 0xE0 SHL DUP2 MSTORE PUSH1 0x4 ADD PUSH1 0x40 MLOAD DUP1 SWAP2 SUB SWAP1 REVERT JUMPDEST DUP4 ISZERO PUSH2 0x45B JUMPI PUSH1 0x40 MLOAD PUSH4 0x1EAE9389 PUSH1 0xE1 SHL DUP2 MSTORE PUSH1 0x4 ADD PUSH1 0x40 MLOAD DUP1 SWAP2 SUB SWAP1 REVERT JUMPDEST PUSH1 0x4 DUP3 LT ISZERO PUSH2 0x47D JUMPI PUSH1 0x40 MLOAD PUSH4 0x68B8565 PUSH1 0xE2 SHL DUP2 MSTORE PUSH1 0x4 ADD PUSH1 0x40 MLOAD DUP1 SWAP2 SUB SWAP1 REVERT JUMPDEST PUSH1 0x0 PUSH2 0x48C PUSH1 0x4 DUP3 DUP6 DUP8 PUSH2 0x10B2 JUMP JUMPDEST PUSH2 0x495 SWAP2 PUSH2 0x10DC JUMP JUMPDEST SWAP1 POP DUP1 PUSH1 0x1 PUSH1 0x1 PUSH1 0xE0 SHL SUB NOT AND DUP7 PUSH1 0x1 PUSH1 0x1 PUSH1 0xA0 SHL SUB AND CALLER PUSH1 0x1 PUSH1 0x1 PUSH1 0xA0 SHL SUB AND PUSH32 0x617529F582F57B4019D1AFD3244F10B9F046A08D3892EC9891B5EA0A5F77AEFF DUP9 PUSH1 0x40 MLOAD PUSH2 0x4E7 SWAP2 DUP2 MSTORE PUSH1 0x20 ADD SWAP1 JUMP JUMPDEST PUSH1 0x40 MLOAD DUP1 SWAP2 SUB SWAP1 LOG4 PUSH4 0x5A653923 PUSH1 0xE0 SHL PUSH1 0x1 PUSH1 0x1 PUSH1 0xE0 SHL SUB NOT DUP3 AND ADD PUSH2 0x57F JUMPI PUSH1 0x0 DUP1 DUP1 PUSH2 0x518 DUP7 PUSH1 0x4 DUP2 DUP11 PUSH2 0x10B2 JUMP JUMPDEST DUP2 ADD SWAP1 PUSH2 0x525 SWAP2 SWAP1 PUSH2 0x110C JUMP JUMPDEST SWAP3 POP SWAP3 POP SWAP3 POP PUSH2 0x538 CALLER DUP11 DUP6 DUP6 DUP6 PUSH2 0x8A1 JUMP JUMPDEST CALLER PUSH1 0x0 SWAP1 DUP2 MSTORE PUSH1 0x2 PUSH1 0x20 SWAP1 DUP2 MSTORE PUSH1 0x40 DUP1 DUP4 KECCAK256 PUSH1 0x1 PUSH1 0x1 PUSH1 0xA0 SHL SUB DUP8 AND DUP5 MSTORE DUP3 MSTORE SWAP2 DUP3 SWAP1 KECCAK256 SLOAD DUP3 MLOAD SWAP2 DUP3 ADD MSTORE ADD JUMPDEST PUSH1 0x40 MLOAD PUSH1 0x20 DUP2 DUP4 SUB SUB DUP2 MSTORE SWAP1 PUSH1 0x40 MSTORE SWAP5 POP POP POP POP POP PUSH2 0x6B7 JUMP JUMPDEST PUSH4 0x4AEC6DCF PUSH1 0xE1 SHL PUSH1 0x1 PUSH1 0x1 PUSH1 0xE0 SHL SUB NOT DUP3 AND ADD PUSH2 0x5EB JUMPI PUSH1 0x0 DUP1 DUP1 PUSH2 0x5A8 DUP7 PUSH1 0x4 DUP2 DUP11 PUSH2 0x10B2 JUMP JUMPDEST DUP2 ADD SWAP1 PUSH2 0x5B5 SWAP2 SWAP1 PUSH2 0x110C JUMP JUMPDEST SWAP3 POP SWAP3 POP SWAP3 POP PUSH2 0x5C8 CALLER DUP11 DUP6 DUP6 DUP6 PUSH2 0xA8E JUMP JUMPDEST CALLER PUSH1 0x0 SWAP1 DUP2 MSTORE PUSH1 0x1 PUSH1 0x20 SWAP1 DUP2 MSTORE PUSH1 0x40 SWAP2 DUP3 SWAP1 KECCAK256 PUSH1 0x2 ADD SLOAD DUP3 MLOAD SWAP2 DUP3 ADD MSTORE ADD PUSH2 0x565 JUMP JUMPDEST PUSH2 0x5F3 PUSH2 0x3F1 JUMP JUMPDEST PUSH1 0x1 PUSH1 0x1 PUSH1 0xA0 SHL SUB AND CALLER PUSH1 0x1 PUSH1 0x1 PUSH1 0xA0 SHL SUB AND EQ PUSH2 0x624 JUMPI PUSH1 0x40 MLOAD PUSH4 0x1B1C465B PUSH1 0xE3 SHL DUP2 MSTORE PUSH1 0x4 ADD PUSH1 0x40 MLOAD DUP1 SWAP2 SUB SWAP1 REVERT JUMPDEST PUSH1 0x0 DUP1 DUP8 PUSH1 0x1 PUSH1 0x1 PUSH1 0xA0 SHL SUB AND DUP8 DUP8 DUP8 PUSH1 0x40 MLOAD PUSH2 0x642 SWAP3 SWAP2 SWAP1 PUSH2 0x1141 JUMP JUMPDEST PUSH1 0x0 PUSH1 0x40 MLOAD DUP1 DUP4 SUB DUP2 DUP6 DUP8 GAS CALL SWAP3 POP POP POP RETURNDATASIZE DUP1 PUSH1 0x0 DUP2 EQ PUSH2 0x67F JUMPI PUSH1 0x40 MLOAD SWAP2 POP PUSH1 0x1F NOT PUSH1 0x3F RETURNDATASIZE ADD AND DUP3 ADD PUSH1 0x40 MSTORE RETURNDATASIZE DUP3 MSTORE RETURNDATASIZE PUSH1 0x0 PUSH1 0x20 DUP5 ADD RETURNDATACOPY PUSH2 0x684 JUMP JUMPDEST PUSH1 0x60 SWAP2 POP JUMPDEST POP SWAP2 POP SWAP2 POP DUP2 PUSH2 0x6B2 JUMPI DUP1 PUSH1 0x40 MLOAD PUSH4 0xA5FA8D2B PUSH1 0xE0 SHL DUP2 MSTORE PUSH1 0x4 ADD PUSH2 0x6A9 SWAP2 SWAP1 PUSH2 0x104C JUMP JUMPDEST PUSH1 0x40 MLOAD DUP1 SWAP2 SUB SWAP1 REVERT JUMPDEST SWAP3 POP POP POP JUMPDEST SWAP5 SWAP4 POP POP POP POP JUMP JUMPDEST PUSH2 0x6F4 PUSH1 0x1 PUSH1 0x1 PUSH1 0xA0 SHL SUB PUSH32 0x0 AND CALLER ADDRESS DUP5 PUSH2 0xCAD JUMP JUMPDEST CALLER PUSH1 0x0 SWAP1 DUP2 MSTORE PUSH1 0x1 PUSH1 0x20 MSTORE PUSH1 0x40 DUP2 KECCAK256 DUP1 SLOAD DUP4 SWAP3 SWAP1 PUSH2 0x713 SWAP1 DUP5 SWAP1 PUSH2 0x1151 JUMP JUMPDEST SWAP1 SWAP2 SSTORE POP POP PUSH1 0x40 MLOAD DUP2 DUP2 MSTORE CALLER SWAP1 PUSH32 0x2DA466A7B24304F47E87FA2E1E5A81B9831CE54FEC19055CE277CA2F39BA42C4 SWAP1 PUSH1 0x20 ADD PUSH1 0x40 MLOAD DUP1 SWAP2 SUB SWAP1 LOG2 POP JUMP JUMPDEST PUSH2 0x758 PUSH2 0x81F JUMP JUMPDEST PUSH1 0x1 PUSH1 0x1 PUSH1 0xA0 SHL SUB DUP3 AND PUSH1 0x0 DUP2 DUP2 MSTORE PUSH1 0x3 PUSH1 0x20 SWAP1 DUP2 MSTORE PUSH1 0x40 SWAP2 DUP3 SWAP1 KECCAK256 DUP1 SLOAD PUSH1 0xFF NOT AND DUP6 ISZERO ISZERO SWAP1 DUP2 OR SWAP1 SWAP2 SSTORE SWAP2 MLOAD SWAP2 DUP3 MSTORE PUSH32 0xA15B89DDFD4F8F39B42C00D0E35440AA574DA8D20D9E1D886E42EDF16CE9AD4C SWAP2 ADD PUSH2 0x2B5 JUMP JUMPDEST PUSH2 0x7B8 PUSH2 0x81F JUMP JUMPDEST PUSH1 0x1 PUSH1 0x1 PUSH1 0xA0 SHL SUB DUP2 AND PUSH2 0x7E2 JUMPI PUSH1 0x0 PUSH1 0x40 MLOAD PUSH4 0x1E4FBDF7 PUSH1 0xE0 SHL DUP2 MSTORE PUSH1 0x4 ADD PUSH2 0x6A9 SWAP2 SWAP1 PUSH2 0xF19 JUMP JUMPDEST PUSH2 0x7EB DUP2 PUSH2 0x851 JUMP JUMPDEST POP JUMP JUMPDEST PUSH2 0x7FB DUP4 DUP4 DUP4 PUSH1 0x1 PUSH2 0xCE0 JUMP JUMPDEST PUSH2 0x81A JUMPI DUP3 PUSH1 0x40 MLOAD PUSH4 0x5274AFE7 PUSH1 0xE0 SHL DUP2 MSTORE PUSH1 0x4 ADD PUSH2 0x6A9 SWAP2 SWAP1 PUSH2 0xF19 JUMP JUMPDEST POP POP POP JUMP JUMPDEST CALLER PUSH2 0x828 PUSH2 0x3F1 JUMP JUMPDEST PUSH1 0x1 PUSH1 0x1 PUSH1 0xA0 SHL SUB AND EQ PUSH2 0x3C2 JUMPI CALLER PUSH1 0x40 MLOAD PUSH4 0x118CDAA7 PUSH1 0xE0 SHL DUP2 MSTORE PUSH1 0x4 ADD PUSH2 0x6A9 SWAP2 SWAP1 PUSH2 0xF19 JUMP JUMPDEST PUSH1 0x0 DUP1 SLOAD PUSH1 0x1 PUSH1 0x1 PUSH1 0xA0 SHL SUB DUP4 DUP2 AND PUSH1 0x1 PUSH1 0x1 PUSH1 0xA0 SHL SUB NOT DUP4 AND DUP2 OR DUP5 SSTORE PUSH1 0x40 MLOAD SWAP2 SWAP1 SWAP3 AND SWAP3 DUP4 SWAP2 PUSH32 0x8BE0079C531659141344CD1FD0A4F28419497F9722A3DAAFE3B4186F6B6457E0 SWAP2 SWAP1 LOG3 POP POP JUMP JUMPDEST PUSH1 0x1 PUSH1 0x1 PUSH1 0xA0 SHL SUB DUP6 AND PUSH1 0x0 SWAP1 DUP2 MSTORE PUSH1 0x1 PUSH1 0x20 MSTORE PUSH1 0x40 SWAP1 KECCAK256 DUP1 SLOAD DUP4 GT ISZERO PUSH2 0x8DB JUMPI PUSH1 0x40 MLOAD PUSH4 0xFA9EC973 PUSH1 0xE0 SHL DUP2 MSTORE PUSH1 0x4 ADD PUSH1 0x40 MLOAD DUP1 SWAP2 SUB SWAP1 REVERT JUMPDEST DUP1 SLOAD DUP4 SWAP1 SUB DUP2 SSTORE PUSH1 0x1 DUP2 ADD DUP1 SLOAD DUP5 ADD SWAP1 SSTORE PUSH2 0x917 PUSH32 0x0 DUP7 DUP6 PUSH2 0xD46 JUMP JUMPDEST PUSH1 0x0 DUP5 DUP5 DUP5 PUSH1 0x40 MLOAD PUSH1 0x24 ADD PUSH2 0x92E SWAP4 SWAP3 SWAP2 SWAP1 PUSH2 0x1172 JUMP JUMPDEST PUSH1 0x40 DUP1 MLOAD PUSH1 0x1F NOT DUP2 DUP5 SUB ADD DUP2 MSTORE SWAP2 DUP2 MSTORE PUSH1 0x20 DUP3 ADD DUP1 MLOAD PUSH1 0x1 PUSH1 0x1 PUSH1 0xE0 SHL SUB AND PUSH4 0xA59AC6DD PUSH1 0xE0 SHL OR SWAP1 MSTORE MLOAD SWAP1 SWAP2 POP PUSH1 0x0 SWAP1 DUP2 SWAP1 PUSH1 0x1 PUSH1 0x1 PUSH1 0xA0 SHL SUB DUP10 AND SWAP1 PUSH2 0x977 SWAP1 DUP6 SWAP1 PUSH2 0x1193 JUMP JUMPDEST PUSH1 0x0 PUSH1 0x40 MLOAD DUP1 DUP4 SUB DUP2 PUSH1 0x0 DUP7 GAS CALL SWAP2 POP POP RETURNDATASIZE DUP1 PUSH1 0x0 DUP2 EQ PUSH2 0x9B4 JUMPI PUSH1 0x40 MLOAD SWAP2 POP PUSH1 0x1F NOT PUSH1 0x3F RETURNDATASIZE ADD AND DUP3 ADD PUSH1 0x40 MSTORE RETURNDATASIZE DUP3 MSTORE RETURNDATASIZE PUSH1 0x0 PUSH1 0x20 DUP5 ADD RETURNDATACOPY PUSH2 0x9B9 JUMP JUMPDEST PUSH1 0x60 SWAP2 POP JUMPDEST POP SWAP2 POP SWAP2 POP DUP2 PUSH2 0x9DE JUMPI DUP1 PUSH1 0x40 MLOAD PUSH4 0xA5FA8D2B PUSH1 0xE0 SHL DUP2 MSTORE PUSH1 0x4 ADD PUSH2 0x6A9 SWAP2 SWAP1 PUSH2 0x104C JUMP JUMPDEST PUSH1 0x0 DUP2 DUP1 PUSH1 0x20 ADD SWAP1 MLOAD DUP2 ADD SWAP1 PUSH2 0x9F4 SWAP2 SWAP1 PUSH2 0x11AF JUMP JUMPDEST PUSH1 0x1 PUSH1 0x1 PUSH1 0xA0 SHL SUB DUP1 DUP13 AND PUSH1 0x0 SWAP1 DUP2 MSTORE PUSH1 0x2 PUSH1 0x20 SWAP1 DUP2 MSTORE PUSH1 0x40 DUP1 DUP4 KECCAK256 SWAP4 DUP14 AND DUP4 MSTORE SWAP3 SWAP1 MSTORE SWAP1 DUP2 KECCAK256 DUP1 SLOAD SWAP3 SWAP4 POP DUP4 SWAP3 SWAP1 SWAP2 SWAP1 PUSH2 0xA30 SWAP1 DUP5 SWAP1 PUSH2 0x1151 JUMP JUMPDEST SWAP1 SWAP2 SSTORE POP POP PUSH1 0x40 DUP1 MLOAD DUP9 DUP2 MSTORE PUSH1 0x20 DUP2 ADD DUP4 SWAP1 MSTORE PUSH1 0x1 PUSH1 0x1 PUSH1 0xA0 SHL SUB DUP1 DUP12 AND SWAP3 DUP13 DUP3 AND SWAP3 SWAP2 DUP15 AND SWAP2 PUSH32 0xE7804CC8B53DC839E6771B33C9CADFCC8E85986E3B8DD5058BF3753F92EA36F5 SWAP2 ADD PUSH1 0x40 MLOAD DUP1 SWAP2 SUB SWAP1 LOG4 POP POP POP POP POP POP POP POP POP POP JUMP JUMPDEST PUSH1 0x1 PUSH1 0x1 PUSH1 0xA0 SHL SUB DUP1 DUP7 AND PUSH1 0x0 SWAP1 DUP2 MSTORE PUSH1 0x2 PUSH1 0x20 SWAP1 DUP2 MSTORE PUSH1 0x40 DUP1 DUP4 KECCAK256 SWAP4 DUP8 AND DUP4 MSTORE SWAP3 SWAP1 MSTORE KECCAK256 SLOAD DUP3 DUP2 LT ISZERO PUSH2 0xAD5 JUMPI PUSH1 0x40 MLOAD PUSH4 0x3289C429 PUSH1 0xE1 SHL DUP2 MSTORE PUSH1 0x4 ADD PUSH1 0x40 MLOAD DUP1 SWAP2 SUB SWAP1 REVERT JUMPDEST PUSH1 0x1 PUSH1 0x1 PUSH1 0xA0 SHL SUB DUP1 DUP8 AND PUSH1 0x0 SWAP1 DUP2 MSTORE PUSH1 0x2 PUSH1 0x20 SWAP1 DUP2 MSTORE PUSH1 0x40 DUP1 DUP4 KECCAK256 SWAP4 DUP9 AND DUP4 MSTORE SWAP3 SWAP1 MSTORE KECCAK256 DUP4 DUP3 SUB SWAP1 SSTORE PUSH2 0xB0A DUP5 DUP7 DUP6 PUSH2 0xD46 JUMP JUMPDEST PUSH1 0x0 DUP5 DUP5 DUP5 PUSH1 0x40 MLOAD PUSH1 0x24 ADD PUSH2 0xB21 SWAP4 SWAP3 SWAP2 SWAP1 PUSH2 0x1172 JUMP JUMPDEST PUSH1 0x40 DUP1 MLOAD PUSH1 0x1F NOT DUP2 DUP5 SUB ADD DUP2 MSTORE SWAP2 DUP2 MSTORE PUSH1 0x20 DUP3 ADD DUP1 MLOAD PUSH1 0x1 PUSH1 0x1 PUSH1 0xE0 SHL SUB AND PUSH4 0x35139231 PUSH1 0xE1 SHL OR SWAP1 MSTORE MLOAD SWAP1 SWAP2 POP PUSH1 0x0 SWAP1 DUP2 SWAP1 PUSH1 0x1 PUSH1 0x1 PUSH1 0xA0 SHL SUB DUP10 AND SWAP1 PUSH2 0xB6A SWAP1 DUP6 SWAP1 PUSH2 0x1193 JUMP JUMPDEST PUSH1 0x0 PUSH1 0x40 MLOAD DUP1 DUP4 SUB DUP2 PUSH1 0x0 DUP7 GAS CALL SWAP2 POP POP RETURNDATASIZE DUP1 PUSH1 0x0 DUP2 EQ PUSH2 0xBA7 JUMPI PUSH1 0x40 MLOAD SWAP2 POP PUSH1 0x1F NOT PUSH1 0x3F RETURNDATASIZE ADD AND DUP3 ADD PUSH1 0x40 MSTORE RETURNDATASIZE DUP3 MSTORE RETURNDATASIZE PUSH1 0x0 PUSH1 0x20 DUP5 ADD RETURNDATACOPY PUSH2 0xBAC JUMP JUMPDEST PUSH1 0x60 SWAP2 POP JUMPDEST POP SWAP2 POP SWAP2 POP DUP2 PUSH2 0xBD1 JUMPI DUP1 PUSH1 0x40 MLOAD PUSH4 0xA5FA8D2B PUSH1 0xE0 SHL DUP2 MSTORE PUSH1 0x4 ADD PUSH2 0x6A9 SWAP2 SWAP1 PUSH2 0x104C JUMP JUMPDEST PUSH1 0x0 DUP2 DUP1 PUSH1 0x20 ADD SWAP1 MLOAD DUP2 ADD SWAP1 PUSH2 0xBE7 SWAP2 SWAP1 PUSH2 0x11AF JUMP JUMPDEST PUSH1 0x1 PUSH1 0x1 PUSH1 0xA0 SHL SUB DUP12 AND PUSH1 0x0 SWAP1 DUP2 MSTORE PUSH1 0x1 PUSH1 0x20 MSTORE PUSH1 0x40 DUP2 KECCAK256 PUSH1 0x2 DUP2 ADD DUP1 SLOAD SWAP4 SWAP5 POP SWAP1 SWAP3 DUP5 SWAP3 SWAP1 PUSH2 0xC18 SWAP1 DUP5 SWAP1 PUSH2 0x1151 JUMP JUMPDEST SWAP1 SWAP2 SSTORE POP POP PUSH1 0x1 DUP2 ADD SLOAD DUP3 GT PUSH2 0xC38 JUMPI PUSH1 0x1 DUP2 ADD DUP1 SLOAD DUP4 SWAP1 SUB SWAP1 SSTORE PUSH2 0xC40 JUMP JUMPDEST PUSH1 0x0 PUSH1 0x1 DUP3 ADD SSTORE JUMPDEST DUP9 PUSH1 0x1 PUSH1 0x1 PUSH1 0xA0 SHL SUB AND DUP11 PUSH1 0x1 PUSH1 0x1 PUSH1 0xA0 SHL SUB AND DUP13 PUSH1 0x1 PUSH1 0x1 PUSH1 0xA0 SHL SUB AND PUSH32 0x5764DBCEF91EB6F946584F4EA671217C686FA7E858CE4F9F42D08422B86556A9 DUP12 DUP7 PUSH1 0x40 MLOAD PUSH2 0xC98 SWAP3 SWAP2 SWAP1 SWAP2 DUP3 MSTORE PUSH1 0x20 DUP3 ADD MSTORE PUSH1 0x40 ADD SWAP1 JUMP JUMPDEST PUSH1 0x40 MLOAD DUP1 SWAP2 SUB SWAP1 LOG4 POP POP POP POP POP POP POP POP POP POP POP JUMP JUMPDEST PUSH2 0xCBB DUP5 DUP5 DUP5 DUP5 PUSH1 0x1 PUSH2 0xDFA JUMP JUMPDEST PUSH2 0xCDA JUMPI DUP4 PUSH1 0x40 MLOAD PUSH4 0x5274AFE7 PUSH1 0xE0 SHL DUP2 MSTORE PUSH1 0x4 ADD PUSH2 0x6A9 SWAP2 SWAP1 PUSH2 0xF19 JUMP JUMPDEST POP POP POP POP JUMP JUMPDEST PUSH1 0x40 MLOAD PUSH4 0xA9059CBB PUSH1 0xE0 SHL PUSH1 0x0 DUP2 DUP2 MSTORE PUSH1 0x1 PUSH1 0x1 PUSH1 0xA0 SHL SUB DUP7 AND PUSH1 0x4 MSTORE PUSH1 0x24 DUP6 SWAP1 MSTORE SWAP2 PUSH1 0x20 DUP4 PUSH1 0x44 DUP2 DUP1 DUP12 GAS CALL SWAP3 POP PUSH1 0x1 PUSH1 0x0 MLOAD EQ DUP4 AND PUSH2 0xD3A JUMPI DUP4 DUP4 ISZERO AND ISZERO PUSH2 0xD2D JUMPI RETURNDATASIZE PUSH1 0x0 DUP3 RETURNDATACOPY RETURNDATASIZE DUP2 REVERT JUMPDEST PUSH1 0x0 DUP8 EXTCODESIZE GT RETURNDATASIZE ISZERO AND DUP4 AND SWAP3 POP JUMPDEST PUSH1 0x40 MSTORE POP SWAP5 SWAP4 POP POP POP POP JUMP JUMPDEST PUSH1 0x40 MLOAD PUSH4 0x6EB1769F PUSH1 0xE1 SHL DUP2 MSTORE ADDRESS PUSH1 0x4 DUP3 ADD MSTORE PUSH1 0x1 PUSH1 0x1 PUSH1 0xA0 SHL SUB DUP4 DUP2 AND PUSH1 0x24 DUP4 ADD MSTORE PUSH1 0x0 SWAP2 SWAP1 DUP6 AND SWAP1 PUSH4 0xDD62ED3E SWAP1 PUSH1 0x44 ADD PUSH1 0x20 PUSH1 0x40 MLOAD DUP1 DUP4 SUB DUP2 DUP7 GAS STATICCALL ISZERO DUP1 ISZERO PUSH2 0xD96 JUMPI RETURNDATASIZE PUSH1 0x0 DUP1 RETURNDATACOPY RETURNDATASIZE PUSH1 0x0 REVERT JUMPDEST POP POP POP POP PUSH1 0x40 MLOAD RETURNDATASIZE PUSH1 0x1F NOT PUSH1 0x1F DUP3 ADD AND DUP3 ADD DUP1 PUSH1 0x40 MSTORE POP DUP2 ADD SWAP1 PUSH2 0xDBA SWAP2 SWAP1 PUSH2 0x11AF JUMP JUMPDEST SWAP1 POP DUP2 DUP2 LT PUSH2 0xDC9 JUMPI POP POP POP POP JUMP JUMPDEST DUP1 ISZERO PUSH2 0xDE4 JUMPI PUSH2 0xDE4 PUSH1 0x1 PUSH1 0x1 PUSH1 0xA0 SHL SUB DUP6 AND DUP5 PUSH1 0x0 PUSH2 0xE6C JUMP JUMPDEST PUSH2 0xCDA PUSH1 0x1 PUSH1 0x1 PUSH1 0xA0 SHL SUB DUP6 AND DUP5 PUSH1 0x0 NOT PUSH2 0xE6C JUMP JUMPDEST PUSH1 0x40 MLOAD PUSH4 0x23B872DD PUSH1 0xE0 SHL PUSH1 0x0 DUP2 DUP2 MSTORE PUSH1 0x1 PUSH1 0x1 PUSH1 0xA0 SHL SUB DUP8 DUP2 AND PUSH1 0x4 MSTORE DUP7 AND PUSH1 0x24 MSTORE PUSH1 0x44 DUP6 SWAP1 MSTORE SWAP2 PUSH1 0x20 DUP4 PUSH1 0x64 DUP2 DUP1 DUP13 GAS CALL SWAP3 POP PUSH1 0x1 PUSH1 0x0 MLOAD EQ DUP4 AND PUSH2 0xE5A JUMPI DUP4 DUP4 ISZERO AND ISZERO PUSH2 0xE4D JUMPI RETURNDATASIZE PUSH1 0x0 DUP3 RETURNDATACOPY RETURNDATASIZE DUP2 REVERT JUMPDEST PUSH1 0x0 DUP9 EXTCODESIZE GT RETURNDATASIZE ISZERO AND DUP4 AND SWAP3 POP JUMPDEST PUSH1 0x40 MSTORE POP PUSH1 0x0 PUSH1 0x60 MSTORE SWAP6 SWAP5 POP POP POP POP POP JUMP JUMPDEST PUSH2 0xE79 DUP4 DUP4 DUP4 PUSH1 0x0 PUSH2 0xEB3 JUMP JUMPDEST PUSH2 0x81A JUMPI PUSH2 0xE8B DUP4 DUP4 PUSH1 0x0 PUSH1 0x1 PUSH2 0xEB3 JUMP JUMPDEST PUSH2 0xEAA JUMPI DUP3 PUSH1 0x40 MLOAD PUSH4 0x5274AFE7 PUSH1 0xE0 SHL DUP2 MSTORE PUSH1 0x4 ADD PUSH2 0x6A9 SWAP2 SWAP1 PUSH2 0xF19 JUMP JUMPDEST PUSH2 0x7FB DUP4 DUP4 DUP4 PUSH1 0x1 JUMPDEST PUSH1 0x40 MLOAD PUSH4 0x95EA7B3 PUSH1 0xE0 SHL PUSH1 0x0 DUP2 DUP2 MSTORE PUSH1 0x1 PUSH1 0x1 PUSH1 0xA0 SHL SUB DUP7 AND PUSH1 0x4 MSTORE PUSH1 0x24 DUP6 SWAP1 MSTORE SWAP2 PUSH1 0x20 DUP4 PUSH1 0x44 DUP2 DUP1 DUP12 GAS CALL SWAP3 POP PUSH1 0x1 PUSH1 0x0 MLOAD EQ DUP4 AND PUSH2 0xD3A JUMPI DUP4 DUP4 ISZERO AND ISZERO PUSH2 0xD2D JUMPI RETURNDATASIZE PUSH1 0x0 DUP3 RETURNDATACOPY RETURNDATASIZE DUP2 REVERT JUMPDEST PUSH1 0x0 PUSH1 0x20 DUP3 DUP5 SUB SLT ISZERO PUSH2 0xF12 JUMPI PUSH1 0x0 DUP1 REVERT JUMPDEST POP CALLDATALOAD SWAP2 SWAP1 POP JUMP JUMPDEST PUSH1 0x1 PUSH1 0x1 PUSH1 0xA0 SHL SUB SWAP2 SWAP1 SWAP2 AND DUP2 MSTORE PUSH1 0x20 ADD SWAP1 JUMP JUMPDEST PUSH1 0x1 PUSH1 0x1 PUSH1 0xA0 SHL SUB DUP2 AND DUP2 EQ PUSH2 0x7EB JUMPI PUSH1 0x0 DUP1 REVERT JUMPDEST PUSH1 0x0 PUSH1 0x20 DUP3 DUP5 SUB SLT ISZERO PUSH2 0xF54 JUMPI PUSH1 0x0 DUP1 REVERT JUMPDEST DUP2 CALLDATALOAD PUSH2 0xF5F DUP2 PUSH2 0xF2D JUMP JUMPDEST SWAP4 SWAP3 POP POP POP JUMP JUMPDEST PUSH1 0x0 DUP1 PUSH1 0x40 DUP4 DUP6 SUB SLT ISZERO PUSH2 0xF79 JUMPI PUSH1 0x0 DUP1 REVERT JUMPDEST DUP3 CALLDATALOAD PUSH2 0xF84 DUP2 PUSH2 0xF2D JUMP JUMPDEST SWAP2 POP PUSH1 0x20 DUP4 ADD CALLDATALOAD PUSH2 0xF94 DUP2 PUSH2 0xF2D JUMP JUMPDEST DUP1 SWAP2 POP POP SWAP3 POP SWAP3 SWAP1 POP JUMP JUMPDEST PUSH1 0x0 DUP1 PUSH1 0x0 DUP1 PUSH1 0x60 DUP6 DUP8 SUB SLT ISZERO PUSH2 0xFB5 JUMPI PUSH1 0x0 DUP1 REVERT JUMPDEST DUP5 CALLDATALOAD PUSH2 0xFC0 DUP2 PUSH2 0xF2D JUMP JUMPDEST SWAP4 POP PUSH1 0x20 DUP6 ADD CALLDATALOAD SWAP3 POP PUSH1 0x40 DUP6 ADD CALLDATALOAD PUSH8 0xFFFFFFFFFFFFFFFF DUP1 DUP3 GT ISZERO PUSH2 0xFE4 JUMPI PUSH1 0x0 DUP1 REVERT JUMPDEST DUP2 DUP8 ADD SWAP2 POP DUP8 PUSH1 0x1F DUP4 ADD SLT PUSH2 0xFF8 JUMPI PUSH1 0x0 DUP1 REVERT JUMPDEST DUP2 CALLDATALOAD DUP2 DUP2 GT ISZERO PUSH2 0x1007 JUMPI PUSH1 0x0 DUP1 REVERT JUMPDEST DUP9 PUSH1 0x20 DUP3 DUP6 ADD ADD GT ISZERO PUSH2 0x1019 JUMPI PUSH1 0x0 DUP1 REVERT JUMPDEST SWAP6 SWAP9 SWAP5 SWAP8 POP POP PUSH1 0x20 ADD SWAP5 POP POP POP JUMP JUMPDEST PUSH1 0x0 JUMPDEST DUP4 DUP2 LT ISZERO PUSH2 0x1043 JUMPI DUP2 DUP2 ADD MLOAD DUP4 DUP3 ADD MSTORE PUSH1 0x20 ADD PUSH2 0x102B JUMP JUMPDEST POP POP PUSH1 0x0 SWAP2 ADD MSTORE JUMP JUMPDEST PUSH1 0x20 DUP2 MSTORE PUSH1 0x0 DUP3 MLOAD DUP1 PUSH1 0x20 DUP5 ADD MSTORE PUSH2 0x106B DUP2 PUSH1 0x40 DUP6 ADD PUSH1 0x20 DUP8 ADD PUSH2 0x1028 JUMP JUMPDEST PUSH1 0x1F ADD PUSH1 0x1F NOT AND SWAP2 SWAP1 SWAP2 ADD PUSH1 0x40 ADD SWAP3 SWAP2 POP POP JUMP JUMPDEST PUSH1 0x0 DUP1 PUSH1 0x40 DUP4 DUP6 SUB SLT ISZERO PUSH2 0x1092 JUMPI PUSH1 0x0 DUP1 REVERT JUMPDEST DUP3 CALLDATALOAD PUSH2 0x109D DUP2 PUSH2 0xF2D JUMP JUMPDEST SWAP2 POP PUSH1 0x20 DUP4 ADD CALLDATALOAD DUP1 ISZERO ISZERO DUP2 EQ PUSH2 0xF94 JUMPI PUSH1 0x0 DUP1 REVERT JUMPDEST PUSH1 0x0 DUP1 DUP6 DUP6 GT ISZERO PUSH2 0x10C2 JUMPI PUSH1 0x0 DUP1 REVERT JUMPDEST DUP4 DUP7 GT ISZERO PUSH2 0x10CF JUMPI PUSH1 0x0 DUP1 REVERT JUMPDEST POP POP DUP3 ADD SWAP4 SWAP2 SWAP1 SWAP3 SUB SWAP2 POP JUMP JUMPDEST PUSH1 0x1 PUSH1 0x1 PUSH1 0xE0 SHL SUB NOT DUP2 CALLDATALOAD DUP2 DUP2 AND SWAP2 PUSH1 0x4 DUP6 LT ISZERO PUSH2 0x1104 JUMPI DUP1 DUP2 DUP7 PUSH1 0x4 SUB PUSH1 0x3 SHL SHL DUP4 AND AND SWAP3 POP JUMPDEST POP POP SWAP3 SWAP2 POP POP JUMP JUMPDEST PUSH1 0x0 DUP1 PUSH1 0x0 PUSH1 0x60 DUP5 DUP7 SUB SLT ISZERO PUSH2 0x1121 JUMPI PUSH1 0x0 DUP1 REVERT JUMPDEST DUP4 CALLDATALOAD PUSH2 0x112C DUP2 PUSH2 0xF2D JUMP JUMPDEST SWAP6 PUSH1 0x20 DUP6 ADD CALLDATALOAD SWAP6 POP PUSH1 0x40 SWAP1 SWAP5 ADD CALLDATALOAD SWAP4 SWAP3 POP POP POP JUMP JUMPDEST DUP2 DUP4 DUP3 CALLDATACOPY PUSH1 0x0 SWAP2 ADD SWAP1 DUP2 MSTORE SWAP2 SWAP1 POP JUMP JUMPDEST DUP1 DUP3 ADD DUP1 DUP3 GT ISZERO PUSH2 0x3EB JUMPI PUSH4 0x4E487B71 PUSH1 0xE0 SHL PUSH1 0x0 MSTORE PUSH1 0x11 PUSH1 0x4 MSTORE PUSH1 0x24 PUSH1 0x0 REVERT JUMPDEST PUSH1 0x1 PUSH1 0x1 PUSH1 0xA0 SHL SUB SWAP4 SWAP1 SWAP4 AND DUP4 MSTORE PUSH1 0x20 DUP4 ADD SWAP2 SWAP1 SWAP2 MSTORE PUSH1 0x40 DUP3 ADD MSTORE PUSH1 0x60 ADD SWAP1 JUMP JUMPDEST PUSH1 0x0 DUP3 MLOAD PUSH2 0x11A5 DUP2 DUP5 PUSH1 0x20 DUP8 ADD PUSH2 0x1028 JUMP JUMPDEST SWAP2 SWAP1 SWAP2 ADD SWAP3 SWAP2 POP POP JUMP JUMPDEST PUSH1 0x0 PUSH1 0x20 DUP3 DUP5 SUB SLT ISZERO PUSH2 0x11C1 JUMPI PUSH1 0x0 DUP1 REVERT JUMPDEST POP MLOAD SWAP2 SWAP1 POP JUMP INVALID LOG2 PUSH5 0x6970667358 0x22 SLT KECCAK256 0x4F PUSH9 0xE217BC3FF8E7767D1D 0xAC 0xD1 LOG3 0x29 DELEGATECALL CALLDATASIZE DUP14 DUP9 0xD7 0xE6 CALLCODE PUSH3 0x6E636E 0xFC PC 0xDB PUSH15 0x495564736F6C634300081800330000 "},"gasEstimates":{"creation":{"codeDepositCost":"921200","executionCost":"infinite","totalCost":"infinite"},"external":{"allowedTarget(address)":"2569","balancesOf(address)":"9267","deposit(uint256)":"infinite","execute(address,uint256,bytes)":"infinite","moveSoldToFree(uint256)":"52313","owner()":"2502","paymentToken()":"infinite","positionOf(address,address)":"infinite","renounceOwnership()":"infinite","setAllowedTarget(address,bool)":"28546","transferOwnership(address)":"infinite","withdraw(uint256)":"infinite"},"internal":{"_approveIfNeeded(contract IERC20,address,uint256)":"infinite","_buy(address,address,address,uint256,uint256)":"infinite","_sell(address,address,address,uint256,uint256)":"infinite"}},"methodIdentifiers":{"allowedTarget(address)":"5f39f892","balancesOf(address)":"6392a51f","deposit(uint256)":"b6b55f25","execute(address,uint256,bytes)":"b61d27f6","moveSoldToFree(uint256)":"2fc8830f","owner()":"8da5cb5b","paymentToken()":"3013ce29","positionOf(address,address)":"892f928e","renounceOwnership()":"715018a6","setAllowedTarget(address,bool)":"ca1dd22e","transferOwnership(address)":"f2fde38b","withdraw(uint256)":"2e1a7d4d"}},"storageLayout":{"storage":[{"astId":8,"contract":"contracts/InternalSystem/InternalSystem.sol:InternalSystem","label":"_owner","offset":0,"slot":"0","type":"t_address"},{"astId":1523,"contract":"contracts/InternalSystem/InternalSystem.sol:InternalSystem","label":"_balances","offset":0,"slot":"1","type":"t_mapping(t_address,t_struct(Balances)1515_storage)"},{"astId":1529,"contract":"contracts/InternalSystem/InternalSystem.sol:InternalSystem","label":"_positions","offset":0,"slot":"2","type":"t_mapping(t_address,t_mapping(t_address,t_uint256))"},{"astId":1533,"contract":"contracts/InternalSystem/InternalSystem.sol:InternalSystem","label":"allowedTarget","offset":0,"slot":"3","type":"t_mapping(t_address,t_bool)"}],"types":{"t_address":{"encoding":"inplace","label":"address","numberOfBytes":"20"},"t_bool":{"encoding":"inplace","label":"bool","numberOfBytes":"1"},"t_mapping(t_address,t_bool)":{"encoding":"mapping","key":"t_address","label":"mapping(address => bool)","numberOfBytes":"32","value":"t_bool"},"t_mapping(t_address,t_mapping(t_address,t_uint256))":{"encoding":"mapping","key":"t_address","label":"mapping(address => mapping(address => uint256))","numberOfBytes":"32","value":"t_mapping(t_address,t_uint256)"},"t_mapping(t_address,t_struct(Balances)1515_storage)":{"encoding":"mapping","key":"t_address","label":"mapping(address => struct InternalSystem.Balances)","numberOfBytes":"32","value":"t_struct(Balances)1515_storage"},"t_mapping(t_address,t_uint256)":{"encoding":"mapping","key":"t_address","label":"mapping(address => uint256)","numberOfBytes":"32","value":"t_uint256"},"t_struct(Balances)1515_storage":{"encoding":"inplace","label":"struct InternalSystem.Balances","members":[{"astId":1508,"contract":"contracts/InternalSystem/InternalSystem.sol:InternalSystem","label":"free","offset":0,"slot":"0","type":"t_uint256"},{"astId":1510,"contract":"contracts/InternalSystem/InternalSystem.sol:InternalSystem","label":"got","offset":0,"slot":"1","type":"t_uint256"},{"astId":1512,"contract":"contracts/InternalSystem/InternalSystem.sol:InternalSystem","label":"sold","offset":0,"slot":"2","type":"t_uint256"},{"astId":1514,"contract":"contracts/InternalSystem/InternalSystem.sol:InternalSystem","label":"out","offset":0,"slot":"3","type":"t_uint256"}],"numberOfBytes":"128"},"t_uint256":{"encoding":"inplace","label":"uint256","numberOfBytes":"32"}}},"userdoc":{"kind":"user","methods":{},"version":1}}}}