{
  "_format": "hh-sol-artifact-1",
  "contractName": "PrivateBrokerManager",
  "sourceName": "contracts/assetsManagers/PrivateBrokerManager.sol",
  "abi": [
    {
      "inputs": [
        {
          "internalType": "address",
          "name": "paymentToken_",
          "type": "address"
        },
        {
          "internalType": "uint256",
          "name": "stablePerAssetE18_",
          "type": "uint256"
        },
        {
          "internalType": "uint256",
          "name": "feeBps_",
          "type": "uint256"
        },
        {
          "internalType": "address",
          "name": "initialOwner",
          "type": "address"
        }
      ],
      "stateMutability": "nonpayable",
      "type": "constructor"
    },
    {
      "inputs": [],
      "name": "AssetNotSupported",
      "type": "error"
    },
    {
      "inputs": [],
      "name": "BadPrice",
      "type": "error"
    },
    {
      "inputs": [],
      "name": "NotAuthorizedDesk",
      "type": "error"
    },
    {
      "inputs": [
        {
          "internalType": "address",
          "name": "owner",
          "type": "address"
        }
      ],
      "name": "OwnableInvalidOwner",
      "type": "error"
    },
    {
      "inputs": [
        {
          "internalType": "address",
          "name": "account",
          "type": "address"
        }
      ],
      "name": "OwnableUnauthorizedAccount",
      "type": "error"
    },
    {
      "inputs": [
        {
          "internalType": "address",
          "name": "token",
          "type": "address"
        }
      ],
      "name": "SafeERC20FailedOperation",
      "type": "error"
    },
    {
      "inputs": [],
      "name": "Slippage",
      "type": "error"
    },
    {
      "anonymous": false,
      "inputs": [
        {
          "indexed": true,
          "internalType": "address",
          "name": "previousOwner",
          "type": "address"
        },
        {
          "indexed": true,
          "internalType": "address",
          "name": "newOwner",
          "type": "address"
        }
      ],
      "name": "OwnershipTransferred",
      "type": "event"
    },
    {
      "inputs": [
        {
          "internalType": "address",
          "name": "",
          "type": "address"
        }
      ],
      "name": "authorizedDesk",
      "outputs": [
        {
          "internalType": "bool",
          "name": "",
          "type": "bool"
        }
      ],
      "stateMutability": "view",
      "type": "function"
    },
    {
      "inputs": [
        {
          "internalType": "address",
          "name": "assetToken",
          "type": "address"
        },
        {
          "internalType": "uint256",
          "name": "paymentAmountIn",
          "type": "uint256"
        },
        {
          "internalType": "uint256",
          "name": "minAssetOut",
          "type": "uint256"
        }
      ],
      "name": "buy",
      "outputs": [
        {
          "internalType": "uint256",
          "name": "assetOut",
          "type": "uint256"
        }
      ],
      "stateMutability": "nonpayable",
      "type": "function"
    },
    {
      "inputs": [],
      "name": "feeBps",
      "outputs": [
        {
          "internalType": "uint256",
          "name": "",
          "type": "uint256"
        }
      ],
      "stateMutability": "view",
      "type": "function"
    },
    {
      "inputs": [],
      "name": "owner",
      "outputs": [
        {
          "internalType": "address",
          "name": "",
          "type": "address"
        }
      ],
      "stateMutability": "view",
      "type": "function"
    },
    {
      "inputs": [],
      "name": "paymentToken",
      "outputs": [
        {
          "internalType": "address",
          "name": "",
          "type": "address"
        }
      ],
      "stateMutability": "view",
      "type": "function"
    },
    {
      "inputs": [],
      "name": "renounceOwnership",
      "outputs": [],
      "stateMutability": "nonpayable",
      "type": "function"
    },
    {
      "inputs": [
        {
          "internalType": "address",
          "name": "assetToken",
          "type": "address"
        },
        {
          "internalType": "uint256",
          "name": "assetAmountIn",
          "type": "uint256"
        },
        {
          "internalType": "uint256",
          "name": "minPaymentOut",
          "type": "uint256"
        }
      ],
      "name": "sell",
      "outputs": [
        {
          "internalType": "uint256",
          "name": "paymentOut",
          "type": "uint256"
        }
      ],
      "stateMutability": "nonpayable",
      "type": "function"
    },
    {
      "inputs": [
        {
          "internalType": "address",
          "name": "desk",
          "type": "address"
        },
        {
          "internalType": "bool",
          "name": "authorized",
          "type": "bool"
        }
      ],
      "name": "setAuthorizedDesk",
      "outputs": [],
      "stateMutability": "nonpayable",
      "type": "function"
    },
    {
      "inputs": [
        {
          "internalType": "uint256",
          "name": "feeBps_",
          "type": "uint256"
        }
      ],
      "name": "setFeeBps",
      "outputs": [],
      "stateMutability": "nonpayable",
      "type": "function"
    },
    {
      "inputs": [
        {
          "internalType": "uint256",
          "name": "stablePerAssetE18_",
          "type": "uint256"
        }
      ],
      "name": "setStablePerAssetE18",
      "outputs": [],
      "stateMutability": "nonpayable",
      "type": "function"
    },
    {
      "inputs": [
        {
          "internalType": "address",
          "name": "assetToken",
          "type": "address"
        },
        {
          "internalType": "bool",
          "name": "supported",
          "type": "bool"
        }
      ],
      "name": "setSupportedAsset",
      "outputs": [],
      "stateMutability": "nonpayable",
      "type": "function"
    },
    {
      "inputs": [],
      "name": "stablePerAssetE18",
      "outputs": [
        {
          "internalType": "uint256",
          "name": "",
          "type": "uint256"
        }
      ],
      "stateMutability": "view",
      "type": "function"
    },
    {
      "inputs": [
        {
          "internalType": "address",
          "name": "",
          "type": "address"
        }
      ],
      "name": "supportedAsset",
      "outputs": [
        {
          "internalType": "bool",
          "name": "",
          "type": "bool"
        }
      ],
      "stateMutability": "view",
      "type": "function"
    },
    {
      "inputs": [
        {
          "internalType": "address",
          "name": "newOwner",
          "type": "address"
        }
      ],
      "name": "transferOwnership",
      "outputs": [],
      "stateMutability": "nonpayable",
      "type": "function"
    }
  ],
  "bytecode": "0x60a060405234801561001057600080fd5b50604051610a05380380610a0583398101604081905261002f9161010f565b806001600160a01b03811661005e57604051631e4fbdf760e01b81526000600482015260240160405180910390fd5b610067816100a3565b50826000036100895760405163fd1ee34960e01b815260040160405180910390fd5b506001600160a01b03909216608052600455600355610155565b600080546001600160a01b038381166001600160a01b0319831681178455604051919092169283917f8be0079c531659141344cd1fd0a4f28419497f9722a3daafe3b4186f6b6457e09190a35050565b80516001600160a01b038116811461010a57600080fd5b919050565b6000806000806080858703121561012557600080fd5b61012e856100f3565b9350602085015192506040850151915061014a606086016100f3565b905092959194509250565b60805161088761017e6000396000818161011301528181610309015261047201526108876000f3fe608060405234801561001057600080fd5b50600436106100ba5760003560e01c80630d224390146100bf57806324a9d853146100f75780633013ce291461010e5780636a27246214610142578063715018a61461015557806372c27b621461015f57806381724c28146101725780638da5cb5b14610185578063a59ac6dd14610196578063d82e66fa146101a9578063ef76e2ee146101cc578063f293c598146101df578063f2fde38b146101e8578063fc4e88f5146101fb575b600080fd5b6100e26100cd36600461072b565b60026020526000908152604090205460ff1681565b60405190151581526020015b60405180910390f35b61010060035481565b6040519081526020016100ee565b6101357f000000000000000000000000000000000000000000000000000000000000000081565b6040516100ee919061074d565b610100610150366004610761565b61020e565b61015d610339565b005b61015d61016d366004610794565b61034d565b61015d6101803660046107ad565b61035a565b6000546001600160a01b0316610135565b6101006101a4366004610761565b61038d565b6100e26101b736600461072b565b60016020526000908152604090205460ff1681565b61015d6101da3660046107ad565b6104ae565b61010060045481565b61015d6101f636600461072b565b6104e1565b61015d610209366004610794565b610528565b3360009081526002602052604081205460ff1661023d5760405162a0cc2960e61b815260040160405180910390fd5b6001600160a01b03841660009081526001602052604090205460ff166102765760405163981a2a2b60e01b815260040160405180910390fd5b6000670de0b6b3a76400006004548561028f91906107ff565b610299919061081c565b90506000612710600354836102ae91906107ff565b6102b8919061081c565b90506102c4818361083e565b9250838310156102e7576040516307dd37f760e41b815260040160405180910390fd5b6102fc6001600160a01b038716333088610556565b6103306001600160a01b037f0000000000000000000000000000000000000000000000000000000000000000163385610589565b50509392505050565b6103416105ba565b61034b60006105e7565b565b6103556105ba565b600355565b6103626105ba565b6001600160a01b03919091166000908152600260205260409020805460ff1916911515919091179055565b3360009081526002602052604081205460ff166103bc5760405162a0cc2960e61b815260040160405180910390fd5b6001600160a01b03841660009081526001602052604090205460ff166103f55760405163981a2a2b60e01b815260040160405180910390fd5b60045460009061040d85670de0b6b3a76400006107ff565b610417919061081c565b905060006127106003548361042c91906107ff565b610436919061081c565b9050610442818361083e565b925083831015610465576040516307dd37f760e41b815260040160405180910390fd5b61049a6001600160a01b037f000000000000000000000000000000000000000000000000000000000000000016333088610556565b6103306001600160a01b0387163385610589565b6104b66105ba565b6001600160a01b03919091166000908152600160205260409020805460ff1916911515919091179055565b6104e96105ba565b6001600160a01b03811661051c576000604051631e4fbdf760e01b8152600401610513919061074d565b60405180910390fd5b610525816105e7565b50565b6105306105ba565b806000036105515760405163fd1ee34960e01b815260040160405180910390fd5b600455565b610564848484846001610637565b6105835783604051635274afe760e01b8152600401610513919061074d565b50505050565b61059683838360016106a9565b6105b55782604051635274afe760e01b8152600401610513919061074d565b505050565b6000546001600160a01b0316331461034b573360405163118cdaa760e01b8152600401610513919061074d565b600080546001600160a01b038381166001600160a01b0319831681178455604051919092169283917f8be0079c531659141344cd1fd0a4f28419497f9722a3daafe3b4186f6b6457e09190a35050565b6040516323b872dd60e01b60008181526001600160a01b038781166004528616602452604485905291602083606481808c5af19250600160005114831661069757838315161561068a573d6000823e3d81fd5b6000883b113d1516831692505b60405250600060605295945050505050565b60405163a9059cbb60e01b60008181526001600160a01b038616600452602485905291602083604481808b5af1925060016000511483166107035783831516156106f6573d6000823e3d81fd5b6000873b113d1516831692505b60405250949350505050565b80356001600160a01b038116811461072657600080fd5b919050565b60006020828403121561073d57600080fd5b6107468261070f565b9392505050565b6001600160a01b0391909116815260200190565b60008060006060848603121561077657600080fd5b61077f8461070f565b95602085013595506040909401359392505050565b6000602082840312156107a657600080fd5b5035919050565b600080604083850312156107c057600080fd5b6107c98361070f565b9150602083013580151581146107de57600080fd5b809150509250929050565b634e487b7160e01b600052601160045260246000fd5b8082028115828204841417610816576108166107e9565b92915050565b60008261083957634e487b7160e01b600052601260045260246000fd5b500490565b81810381811115610816576108166107e956fea26469706673582212202c274b62136bedadcfccfa1534392433cad27c7aed4e43725cba25835e4a8a3664736f6c63430008180033",
  "linkReferences": {},
  "deployedLinkReferences": {}
}